{
  "abi": [
    {
      "inputs": [
        {
          "internalType": "address",
          "name": "_payrollBeacon",
          "type": "address"
        }
      ],
      "stateMutability": "nonpayable",
      "type": "constructor"
    },
    {
      "inputs": [],
      "name": "PayrollFactory__NotContractAddress",
      "type": "error"
    },
    {
      "inputs": [
        {
          "internalType": "address",
          "name": "account",
          "type": "address"
        }
      ],
      "name": "PayrollFactory__ZeroAddress",
      "type": "error"
    },
    {
      "anonymous": false,
      "inputs": [
        {
          "indexed": true,
          "internalType": "address",
          "name": "previousOwner",
          "type": "address"
        },
        {
          "indexed": true,
          "internalType": "address",
          "name": "newOwner",
          "type": "address"
        }
      ],
      "name": "OwnershipTransferred",
      "type": "event"
    },
    {
      "anonymous": false,
      "inputs": [
        {
          "indexed": false,
          "internalType": "address",
          "name": "newPayrollBeaconAddress",
          "type": "address"
        }
      ],
      "name": "PayrollBeaconAddressUpdated",
      "type": "event"
    },
    {
      "anonymous": false,
      "inputs": [
        {
          "indexed": true,
          "internalType": "address",
          "name": "payrollAddress",
          "type": "address"
        }
      ],
      "name": "PayrollCreated",
      "type": "event"
    },
    {
      "inputs": [
        {
          "internalType": "address",
          "name": "owner",
          "type": "address"
        },
        {
          "internalType": "address",
          "name": "admin",
          "type": "address"
        }
      ],
      "name": "createPayroll",
      "outputs": [
        {
          "internalType": "address",
          "name": "payrollAddress",
          "type": "address"
        }
      ],
      "stateMutability": "nonpayable",
      "type": "function"
    },
    {
      "inputs": [
        {
          "internalType": "address",
          "name": "payrollOwner",
          "type": "address"
        }
      ],
      "name": "getPayrollList",
      "outputs": [
        {
          "internalType": "address[]",
          "name": "",
          "type": "address[]"
        }
      ],
      "stateMutability": "view",
      "type": "function"
    },
    {
      "inputs": [],
      "name": "owner",
      "outputs": [
        {
          "internalType": "address",
          "name": "",
          "type": "address"
        }
      ],
      "stateMutability": "view",
      "type": "function"
    },
    {
      "inputs": [],
      "name": "payrollBeacon",
      "outputs": [
        {
          "internalType": "address",
          "name": "",
          "type": "address"
        }
      ],
      "stateMutability": "view",
      "type": "function"
    },
    {
      "inputs": [
        {
          "internalType": "address",
          "name": "",
          "type": "address"
        },
        {
          "internalType": "uint256",
          "name": "",
          "type": "uint256"
        }
      ],
      "name": "payrolls",
      "outputs": [
        {
          "internalType": "address",
          "name": "",
          "type": "address"
        }
      ],
      "stateMutability": "view",
      "type": "function"
    },
    {
      "inputs": [],
      "name": "renounceOwnership",
      "outputs": [],
      "stateMutability": "nonpayable",
      "type": "function"
    },
    {
      "inputs": [
        {
          "internalType": "address",
          "name": "newPayrollBeaconAddress",
          "type": "address"
        }
      ],
      "name": "setBeacon",
      "outputs": [],
      "stateMutability": "nonpayable",
      "type": "function"
    },
    {
      "inputs": [
        {
          "internalType": "address",
          "name": "newOwner",
          "type": "address"
        }
      ],
      "name": "transferOwnership",
      "outputs": [],
      "stateMutability": "nonpayable",
      "type": "function"
    }
  ],
  "bytecode": {
    "object": "0x608060405234801561001057600080fd5b506040516110f43803806110f483398101604081905261002f916100da565b6100383361008a565b6001600160a01b0381163b1515600003610065576040516307b7d8d360e31b815260040160405180910390fd5b600180546001600160a01b0319166001600160a01b039290921691909117905561010a565b600080546001600160a01b038381166001600160a01b0319831681178455604051919092169283917f8be0079c531659141344cd1fd0a4f28419497f9722a3daafe3b4186f6b6457e09190a35050565b6000602082840312156100ec57600080fd5b81516001600160a01b038116811461010357600080fd5b9392505050565b610fdb806101196000396000f3fe60806040523480156200001157600080fd5b5060043610620000935760003560e01c80638da5cb5b11620000625780638da5cb5b1462000103578063cfa4e7681462000115578063d42afb56146200013b578063f2fde38b146200015257600080fd5b80630dba921214620000985780633505d22e14620000cc5780634ae7f09d14620000e0578063715018a614620000f7575b600080fd5b620000af620000a9366004620007fb565b62000169565b6040516001600160a01b0390911681526020015b60405180910390f35b600154620000af906001600160a01b031681565b620000af620000f136600462000833565b620001f4565b620001016200022d565b005b6000546001600160a01b0316620000af565b6200012c6200012636600462000860565b62000245565b604051620000c391906200087e565b620001016200014c36600462000860565b620002bd565b620001016200016336600462000860565b62000349565b600062000175620003c8565b6001600160a01b038316620001ad5760405163679175c560e01b81526001600160a01b03841660048201526024015b60405180910390fd5b6001600160a01b038216620001e15760405163679175c560e01b81526001600160a01b0383166004820152602401620001a4565b620001ed838362000424565b9392505050565b600260205281600052604060002081815481106200021157600080fd5b6000918252602090912001546001600160a01b03169150829050565b62000237620003c8565b62000243600062000780565b565b6001600160a01b038116600090815260026020908152604091829020805483518184028101840190945280845260609392830182828015620002b157602002820191906000526020600020905b81546001600160a01b0316815260019091019060200180831162000292575b50505050509050919050565b620002c7620003c8565b6001600160a01b0381163b1515600003620002f5576040516307b7d8d360e31b815260040160405180910390fd5b600180546001600160a01b0319166001600160a01b0383169081179091556040519081527f46ffaeca6239b7d196faa7df9377e5ee31eeaa5ef7efe377dc7d9ae0d2fb819d9060200160405180910390a150565b62000353620003c8565b6001600160a01b038116620003ba5760405162461bcd60e51b815260206004820152602660248201527f4f776e61626c653a206e6577206f776e657220697320746865207a65726f206160448201526564647265737360d01b6064820152608401620001a4565b620003c58162000780565b50565b6000546001600160a01b03163314620002435760405162461bcd60e51b815260206004820181905260248201527f4f776e61626c653a2063616c6c6572206973206e6f7420746865206f776e65726044820152606401620001a4565b60015460405160009182916001600160a01b03909116906200044690620007d0565b6001600160a01b039091168152602001604051809103906000f08015801562000473573d6000803e3d6000fd5b5090506000819050806001600160a01b0316638129fc1c6040518163ffffffff1660e01b8152600401600060405180830381600087803b158015620004b757600080fd5b505af1158015620004cc573d6000803e3d6000fd5b505060405163397a8bab60e01b81526001600160a01b0388811660048301528416925063397a8bab9150602401600060405180830381600087803b1580156200051457600080fd5b505af115801562000529573d6000803e3d6000fd5b505060405163be57522960e01b81526001600160a01b0388811660048301528416925063be5752299150602401600060405180830381600087803b1580156200057157600080fd5b505af115801562000586573d6000803e3d6000fd5b505060405163631a5bc760e11b81526001600160a01b0387811660048301528416925063c634b78e9150602401600060405180830381600087803b158015620005ce57600080fd5b505af1158015620005e3573d6000803e3d6000fd5b50505050806001600160a01b0316632f2ff15d826001600160a01b03166388e7d6096040518163ffffffff1660e01b8152600401602060405180830381865afa15801562000635573d6000803e3d6000fd5b505050506040513d601f19601f820116820180604052508101906200065b9190620008cd565b6040516001600160e01b031960e084901b1681526004810191909152336024820152604401600060405180830381600087803b1580156200069b57600080fd5b505af1158015620006b0573d6000803e3d6000fd5b505050506001600160a01b0385811660009081526002602090815260408083208054600181018255908452919092200180546001600160a01b031916858416179055516309a19c7b60e41b815230600482015290821690639a19c7b090602401600060405180830381600087803b1580156200072b57600080fd5b505af115801562000740573d6000803e3d6000fd5b50506040516001600160a01b03851692507f9c8fa5e089f782c7c91fcb725d0cddf8259586042111d483fbfbdd346a8917609150600090a2509392505050565b600080546001600160a01b038381166001600160a01b0319831681178455604051919092169283917f8be0079c531659141344cd1fd0a4f28419497f9722a3daafe3b4186f6b6457e09190a35050565b6106be80620008e883390190565b80356001600160a01b0381168114620007f657600080fd5b919050565b600080604083850312156200080f57600080fd5b6200081a83620007de565b91506200082a60208401620007de565b90509250929050565b600080604083850312156200084757600080fd5b6200085283620007de565b946020939093013593505050565b6000602082840312156200087357600080fd5b620001ed82620007de565b6020808252825182820181905260009190848201906040850190845b81811015620008c15783516001600160a01b0316835292840192918401916001016200089a565b50909695505050505050565b600060208284031215620008e057600080fd5b505191905056fe608060405234801561001057600080fd5b506040516106be3803806106be83398101604081905261002f916103ef565b80604051806020016040528060008152506100528282600061005a60201b60201c565b50505061048b565b6100638361011b565b6040516001600160a01b038416907f1cf3b03a6cf19fa2baba4df148e9dcabedea7f8a5c07840e207e5c089be95d3e90600090a26000825111806100a45750805b1561011657610114836001600160a01b0316635c60da1b6040518163ffffffff1660e01b8152600401602060405180830381865afa1580156100ea573d6000803e3d6000fd5b505050506040513d601f19601f8201168201806040525081019061010e91906103ef565b8361029f565b505b505050565b6001600160a01b0381163b6101855760405162461bcd60e51b815260206004820152602560248201527f455243313936373a206e657720626561636f6e206973206e6f74206120636f6e6044820152641d1c9858dd60da1b60648201526084015b60405180910390fd5b6101f9816001600160a01b0316635c60da1b6040518163ffffffff1660e01b8152600401602060405180830381865afa1580156101c6573d6000803e3d6000fd5b505050506040513d601f19601f820116820180604052508101906101ea91906103ef565b6001600160a01b03163b151590565b61025e5760405162461bcd60e51b815260206004820152603060248201527f455243313936373a20626561636f6e20696d706c656d656e746174696f6e206960448201526f1cc81b9bdd08184818dbdb9d1c9858dd60821b606482015260840161017c565b7fa3f0ad74e5423aebfd80d3ef4346578335a9a72aeaee59ff6cb3582b35133d5080546001600160a01b0319166001600160a01b0392909216919091179055565b60606102c48383604051806060016040528060278152602001610697602791396102cb565b9392505050565b6060600080856001600160a01b0316856040516102e8919061043c565b600060405180830381855af49150503d8060008114610323576040519150601f19603f3d011682016040523d82523d6000602084013e610328565b606091505b50909250905061033a86838387610344565b9695505050505050565b606083156103b35782516000036103ac576001600160a01b0385163b6103ac5760405162461bcd60e51b815260206004820152601d60248201527f416464726573733a2063616c6c20746f206e6f6e2d636f6e7472616374000000604482015260640161017c565b50816103bd565b6103bd83836103c5565b949350505050565b8151156103d55781518083602001fd5b8060405162461bcd60e51b815260040161017c9190610458565b60006020828403121561040157600080fd5b81516001600160a01b03811681146102c457600080fd5b60005b8381101561043357818101518382015260200161041b565b50506000910152565b6000825161044e818460208701610418565b9190910192915050565b6020815260008251806020840152610477816040850160208701610418565b601f01601f19169190910160400192915050565b6101fd8061049a6000396000f3fe60806040526004361061002d5760003560e01c80632d6b3a6b14610044578063aaf10f42146100755761003c565b3661003c5761003a61008a565b005b61003a61008a565b34801561005057600080fd5b5061005961009c565b6040516001600160a01b03909116815260200160405180910390f35b34801561008157600080fd5b506100596100d9565b61009a6100956100df565b610173565b565b60006100d460006100d47fa3f0ad74e5423aebfd80d3ef4346578335a9a72aeaee59ff6cb3582b35133d50546001600160a01b031690565b905090565b60006100d45b60006101127fa3f0ad74e5423aebfd80d3ef4346578335a9a72aeaee59ff6cb3582b35133d50546001600160a01b031690565b6001600160a01b0316635c60da1b6040518163ffffffff1660e01b8152600401602060405180830381865afa15801561014f573d6000803e3d6000fd5b505050506040513d601f19601f820116820180604052508101906100d49190610197565b3660008037600080366000845af43d6000803e808015610192573d6000f35b3d6000fd5b6000602082840312156101a957600080fd5b81516001600160a01b03811681146101c057600080fd5b939250505056fea2646970667358221220cc354e5ca00d7ea93f15188fc96a4a3994a843022d6a54fe23b088daeb3056e964736f6c63430008130033416464726573733a206c6f772d6c6576656c2064656c65676174652063616c6c206661696c6564a2646970667358221220c56f92a32f8e32733ceba1e011bec05cc00a8a46abfa43b1114872ad003be40a64736f6c63430008130033",
    "linkReferences": {}
  },
  "methodIdentifiers": {
    "createPayroll(address,address)": "0dba9212",
    "getPayrollList(address)": "cfa4e768",
    "owner()": "8da5cb5b",
    "payrollBeacon()": "3505d22e",
    "payrolls(address,uint256)": "4ae7f09d",
    "renounceOwnership()": "715018a6",
    "setBeacon(address)": "d42afb56",
    "transferOwnership(address)": "f2fde38b"
  },
  "id": 72
}