{
  "abi": [
    {
      "inputs": [],
      "name": "Employee_GenderCannotBeVerified",
      "type": "error"
    },
    {
      "inputs": [
        {
          "internalType": "address",
          "name": "caller",
          "type": "address"
        }
      ],
      "name": "Employee__AccessControl__CallerIsNotAdminRole",
      "type": "error"
    },
    {
      "inputs": [
        {
          "internalType": "address",
          "name": "caller",
          "type": "address"
        }
      ],
      "name": "Employee__AccessControl__CallerIsNotOwnerRole",
      "type": "error"
    },
    {
      "inputs": [
        {
          "internalType": "address",
          "name": "caller",
          "type": "address"
        }
      ],
      "name": "Employee__AccessControl__CallerIsNotReadRole",
      "type": "error"
    },
    {
      "inputs": [],
      "name": "Employee__AlreadyClosed",
      "type": "error"
    },
    {
      "inputs": [],
      "name": "Employee__AlreadyExists",
      "type": "error"
    },
    {
      "inputs": [],
      "name": "Employee__DataReferenceMustNotBeEmpty",
      "type": "error"
    },
    {
      "inputs": [],
      "name": "Employee__DateOfBirthAlreadyVerified",
      "type": "error"
    },
    {
      "inputs": [],
      "name": "Employee__DateOfBirthCannotBeVerified",
      "type": "error"
    },
    {
      "inputs": [],
      "name": "Employee__DefaultReadRoleCannotBeRevoked",
      "type": "error"
    },
    {
      "inputs": [],
      "name": "Employee__GenderAlreadyVerified",
      "type": "error"
    },
    {
      "inputs": [],
      "name": "Employee__InvalidID",
      "type": "error"
    },
    {
      "inputs": [],
      "name": "Employee__NotFound",
      "type": "error"
    },
    {
      "inputs": [],
      "name": "Employee__ZeroAddress",
      "type": "error"
    },
    {
      "anonymous": false,
      "inputs": [
        {
          "indexed": true,
          "internalType": "bytes32",
          "name": "id",
          "type": "bytes32"
        },
        {
          "components": [
            {
              "internalType": "address",
              "name": "account",
              "type": "address"
            },
            {
              "internalType": "bytes32",
              "name": "employeeId",
              "type": "bytes32"
            },
            {
              "internalType": "uint256",
              "name": "dateOfBirth",
              "type": "uint256"
            },
            {
              "internalType": "enum Gender",
              "name": "gender",
              "type": "uint8"
            },
            {
              "internalType": "bool",
              "name": "active",
              "type": "bool"
            },
            {
              "internalType": "enum AgeVerification",
              "name": "ageVerification",
              "type": "uint8"
            }
          ],
          "indexed": false,
          "internalType": "struct EmployeeType",
          "name": "employee",
          "type": "tuple"
        }
      ],
      "name": "AddEmployee",
      "type": "event"
    },
    {
      "anonymous": false,
      "inputs": [
        {
          "indexed": false,
          "internalType": "uint8",
          "name": "version",
          "type": "uint8"
        }
      ],
      "name": "Initialized",
      "type": "event"
    },
    {
      "anonymous": false,
      "inputs": [
        {
          "indexed": true,
          "internalType": "bytes32",
          "name": "role",
          "type": "bytes32"
        },
        {
          "indexed": true,
          "internalType": "bytes32",
          "name": "previousAdminRole",
          "type": "bytes32"
        },
        {
          "indexed": true,
          "internalType": "bytes32",
          "name": "newAdminRole",
          "type": "bytes32"
        }
      ],
      "name": "RoleAdminChanged",
      "type": "event"
    },
    {
      "anonymous": false,
      "inputs": [
        {
          "indexed": true,
          "internalType": "bytes32",
          "name": "role",
          "type": "bytes32"
        },
        {
          "indexed": true,
          "internalType": "address",
          "name": "account",
          "type": "address"
        },
        {
          "indexed": true,
          "internalType": "address",
          "name": "sender",
          "type": "address"
        }
      ],
      "name": "RoleGranted",
      "type": "event"
    },
    {
      "anonymous": false,
      "inputs": [
        {
          "indexed": true,
          "internalType": "bytes32",
          "name": "role",
          "type": "bytes32"
        },
        {
          "indexed": true,
          "internalType": "address",
          "name": "account",
          "type": "address"
        },
        {
          "indexed": true,
          "internalType": "address",
          "name": "sender",
          "type": "address"
        }
      ],
      "name": "RoleRevoked",
      "type": "event"
    },
    {
      "anonymous": false,
      "inputs": [
        {
          "indexed": false,
          "internalType": "address",
          "name": "sender",
          "type": "address"
        },
        {
          "indexed": false,
          "internalType": "bytes32",
          "name": "employeeId",
          "type": "bytes32"
        },
        {
          "indexed": false,
          "internalType": "uint256",
          "name": "dateOfBirth",
          "type": "uint256"
        }
      ],
      "name": "VerifyDateOfBirth",
      "type": "event"
    },
    {
      "anonymous": false,
      "inputs": [
        {
          "indexed": false,
          "internalType": "address",
          "name": "sender",
          "type": "address"
        },
        {
          "indexed": false,
          "internalType": "bytes32",
          "name": "employeeId",
          "type": "bytes32"
        },
        {
          "indexed": false,
          "internalType": "enum Gender",
          "name": "gender",
          "type": "uint8"
        }
      ],
      "name": "VerifyGender",
      "type": "event"
    },
    {
      "inputs": [],
      "name": "DEFAULT_ADMIN_ROLE",
      "outputs": [
        {
          "internalType": "bytes32",
          "name": "",
          "type": "bytes32"
        }
      ],
      "stateMutability": "view",
      "type": "function"
    },
    {
      "inputs": [],
      "name": "DEFAULT_READ_ROLE",
      "outputs": [
        {
          "internalType": "bytes32",
          "name": "",
          "type": "bytes32"
        }
      ],
      "stateMutability": "view",
      "type": "function"
    },
    {
      "inputs": [],
      "name": "OWNER_ROLE",
      "outputs": [
        {
          "internalType": "bytes32",
          "name": "",
          "type": "bytes32"
        }
      ],
      "stateMutability": "view",
      "type": "function"
    },
    {
      "inputs": [],
      "name": "READ_ROLE",
      "outputs": [
        {
          "internalType": "bytes32",
          "name": "",
          "type": "bytes32"
        }
      ],
      "stateMutability": "view",
      "type": "function"
    },
    {
      "inputs": [
        {
          "internalType": "address",
          "name": "_account",
          "type": "address"
        },
        {
          "internalType": "bytes32",
          "name": "_employeeId",
          "type": "bytes32"
        },
        {
          "internalType": "uint256",
          "name": "_gender",
          "type": "uint256"
        },
        {
          "internalType": "uint256",
          "name": "_dateOfBirth",
          "type": "uint256"
        },
        {
          "internalType": "bool",
          "name": "_active",
          "type": "bool"
        }
      ],
      "name": "addEmployee",
      "outputs": [],
      "stateMutability": "nonpayable",
      "type": "function"
    },
    {
      "inputs": [
        {
          "internalType": "address",
          "name": "account",
          "type": "address"
        }
      ],
      "name": "getAccount",
      "outputs": [
        {
          "internalType": "address",
          "name": "",
          "type": "address"
        }
      ],
      "stateMutability": "view",
      "type": "function"
    },
    {
      "inputs": [
        {
          "internalType": "bytes32",
          "name": "role",
          "type": "bytes32"
        }
      ],
      "name": "getRoleAdmin",
      "outputs": [
        {
          "internalType": "bytes32",
          "name": "",
          "type": "bytes32"
        }
      ],
      "stateMutability": "view",
      "type": "function"
    },
    {
      "inputs": [
        {
          "internalType": "address",
          "name": "_account",
          "type": "address"
        }
      ],
      "name": "grantAdminRole",
      "outputs": [],
      "stateMutability": "nonpayable",
      "type": "function"
    },
    {
      "inputs": [
        {
          "internalType": "address",
          "name": "_account",
          "type": "address"
        }
      ],
      "name": "grantOwnerRole",
      "outputs": [],
      "stateMutability": "nonpayable",
      "type": "function"
    },
    {
      "inputs": [
        {
          "internalType": "address",
          "name": "_account",
          "type": "address"
        }
      ],
      "name": "grantReadRole",
      "outputs": [],
      "stateMutability": "nonpayable",
      "type": "function"
    },
    {
      "inputs": [
        {
          "internalType": "bytes32",
          "name": "role",
          "type": "bytes32"
        },
        {
          "internalType": "address",
          "name": "_account",
          "type": "address"
        }
      ],
      "name": "grantRole",
      "outputs": [],
      "stateMutability": "nonpayable",
      "type": "function"
    },
    {
      "inputs": [
        {
          "internalType": "bytes32",
          "name": "role",
          "type": "bytes32"
        },
        {
          "internalType": "address",
          "name": "account",
          "type": "address"
        }
      ],
      "name": "hasRole",
      "outputs": [
        {
          "internalType": "bool",
          "name": "",
          "type": "bool"
        }
      ],
      "stateMutability": "view",
      "type": "function"
    },
    {
      "inputs": [],
      "name": "initialize",
      "outputs": [],
      "stateMutability": "nonpayable",
      "type": "function"
    },
    {
      "inputs": [],
      "name": "minAge",
      "outputs": [
        {
          "internalType": "uint256",
          "name": "",
          "type": "uint256"
        }
      ],
      "stateMutability": "view",
      "type": "function"
    },
    {
      "inputs": [
        {
          "internalType": "bytes32",
          "name": "role",
          "type": "bytes32"
        },
        {
          "internalType": "address",
          "name": "account",
          "type": "address"
        }
      ],
      "name": "renounceRole",
      "outputs": [],
      "stateMutability": "nonpayable",
      "type": "function"
    },
    {
      "inputs": [
        {
          "internalType": "address",
          "name": "_account",
          "type": "address"
        }
      ],
      "name": "revokeAdminRole",
      "outputs": [],
      "stateMutability": "nonpayable",
      "type": "function"
    },
    {
      "inputs": [
        {
          "internalType": "address",
          "name": "_account",
          "type": "address"
        }
      ],
      "name": "revokeOwnerRole",
      "outputs": [],
      "stateMutability": "nonpayable",
      "type": "function"
    },
    {
      "inputs": [
        {
          "internalType": "address",
          "name": "_account",
          "type": "address"
        }
      ],
      "name": "revokeReadRole",
      "outputs": [],
      "stateMutability": "nonpayable",
      "type": "function"
    },
    {
      "inputs": [
        {
          "internalType": "bytes32",
          "name": "role",
          "type": "bytes32"
        },
        {
          "internalType": "address",
          "name": "_account",
          "type": "address"
        }
      ],
      "name": "revokeRole",
      "outputs": [],
      "stateMutability": "nonpayable",
      "type": "function"
    },
    {
      "inputs": [
        {
          "internalType": "bytes4",
          "name": "interfaceId",
          "type": "bytes4"
        }
      ],
      "name": "supportsInterface",
      "outputs": [
        {
          "internalType": "bool",
          "name": "",
          "type": "bool"
        }
      ],
      "stateMutability": "view",
      "type": "function"
    },
    {
      "inputs": [
        {
          "internalType": "uint256",
          "name": "_dateOfBirth",
          "type": "uint256"
        }
      ],
      "name": "verifyDateOfBirth",
      "outputs": [],
      "stateMutability": "nonpayable",
      "type": "function"
    },
    {
      "inputs": [
        {
          "internalType": "enum Gender",
          "name": "_gender",
          "type": "uint8"
        }
      ],
      "name": "verifyGender",
      "outputs": [],
      "stateMutability": "nonpayable",
      "type": "function"
    }
  ],
  "bytecode": {
    "object": "0x608060405234801561001057600080fd5b50610fe7806100206000396000f3fe608060405234801561001057600080fd5b50600436106101425760003560e01c806391d14854116100b8578063aff92f051161007c578063aff92f05146102b7578063be575229146102ca578063c634b78e146102dd578063d547741f146102f0578063e58378bb14610303578063fbcbc0f11461031857600080fd5b806391d148541461024f5780639a19c7b0146102625780639c5bdeb414610275578063a217fddf14610288578063af15256a1461029057600080fd5b806336568abe1161010a57806336568abe146101db578063397a8bab146101ee57806355519d87146102015780638129fc1c1461020d57806388e7d609146102155780638aca9f431461023c57600080fd5b806301ffc9a7146101475780630411b3391461016f5780631d772f6214610184578063248a9ca3146101975780632f2ff15d146101c8575b600080fd5b61015a610155366004610dad565b61035c565b60405190151581526020015b60405180910390f35b61018261017d366004610dde565b610393565b005b610182610192366004610e1b565b610537565b6101ba6101a5366004610e36565b60009081526065602052604090206001015490565b604051908152602001610166565b6101826101d6366004610e4f565b6105a4565b6101826101e9366004610e4f565b6105cc565b6101826101fc366004610e1b565b610646565b6101ba648440e8976081565b610182610678565b6101ba7f9ba8518984ecd922a282db79730eef360aab3a173c17b159e362d8ead1b281c581565b61018261024a366004610e36565b61078b565b61015a61025d366004610e4f565b610908565b610182610270366004610e1b565b610933565b610182610283366004610e1b565b610958565b6101ba600081565b6101ba7f30854e1816f97c77fec020bfaf79d4d65ec0313c6c52626de45756a4441c650c81565b6101826102c5366004610e7b565b61098a565b6101826102d8366004610e1b565b610a63565b6101826102eb366004610e1b565b610aa7565b6101826102fe366004610e4f565b610acc565b6101ba600080516020610f9283398151915281565b610344610326366004610e1b565b6001600160a01b039081166000908152609960205260409020541690565b6040516001600160a01b039091168152602001610166565b60006001600160e01b03198216637965db0b60e01b148061038d57506301ffc9a760e01b6001600160e01b03198316145b92915050565b336000908152609b602052604090205460ff1615156001036103c857604051635b75fc4360e11b815260040160405180910390fd5b8060018111156103da576103da610ed4565b3360009081526099602052604090206003015460ff16600181111561040157610401610ed4565b1461041f5760405163b66cbc5160e01b815260040160405180910390fd5b336000908152609b60209081526040808320805460ff1916600190811790915560998352818420825160c08101845281546001600160a01b0316815281830154948101949094526002810154928401929092526003820154606084019160ff919091169081111561049257610492610ed4565b60018111156104a3576104a3610ed4565b8152600382015460ff6101008204811615156020840152604090920191620100009091041660028111156104d9576104d9610ed4565b60028111156104ea576104ea610ed4565b8152505090507ff90f2da76cb4d1931611e96b8f2e9fa4c25066274272d5d2b54a7d6824b42962338260200151836060015160405161052b93929190610efe565b60405180910390a15050565b610542600033610908565b151560000361057757335b604051633487ad5960e21b81526001600160a01b0390911660048201526024015b60405180910390fd5b6105a17f30854e1816f97c77fec020bfaf79d4d65ec0313c6c52626de45756a4441c650c82610b26565b50565b6105af600033610908565b15156000036105be573361054d565b6105c88282610b8d565b5050565b6001600160a01b038116331461063c5760405162461bcd60e51b815260206004820152602f60248201527f416363657373436f6e74726f6c3a2063616e206f6e6c792072656e6f756e636560448201526e103937b632b9903337b91039b2b63360891b606482015260840161056e565b6105c88282610b26565b610651600033610908565b1515600003610660573361054d565b6105a1600080516020610f92833981519152826105be565b600054610100900460ff16158080156106985750600054600160ff909116105b806106b25750303b1580156106b2575060005460ff166001145b6107155760405162461bcd60e51b815260206004820152602e60248201527f496e697469616c697a61626c653a20636f6e747261637420697320616c72656160448201526d191e481a5b9a5d1a585b1a5e995960921b606482015260840161056e565b6000805460ff191660011790558015610738576000805461ff0019166101001790555b6107436000336105be565b80156105a1576000805461ff0019169055604051600181527f7f26b83ff96e1f2b6a682f133852f6798a09c465da95921460cefb38474024989060200160405180910390a150565b336000908152609a602052604090205460ff1615156001036107c05760405163521b5e8560e01b815260040160405180910390fd5b3360009081526099602052604090206002015481146107f25760405163df8d0c3b60e01b815260040160405180910390fd5b336000908152609a60209081526040808320805460ff1916600190811790915560998352818420825160c08101845281546001600160a01b0316815281830154948101949094526002810154928401929092526003820154606084019160ff919091169081111561086557610865610ed4565b600181111561087657610876610ed4565b8152600382015460ff6101008204811615156020840152604090920191620100009091041660028111156108ac576108ac610ed4565b60028111156108bd576108bd610ed4565b9052506020808201516040808401518151338152938401929092528201529091507f4902c71d10d6ba7f214b023a7898800bb7fb21534ebd7664f44c84455c70303a9060600161052b565b60009182526065602090815260408084206001600160a01b0393909316845291905290205460ff1690565b61093e600033610908565b151560000361094d573361054d565b6105a1600082610acc565b610963600033610908565b1515600003610972573361054d565b6105a1600080516020610f9283398151915282610b26565b6109a2600080516020610f9283398151915233610908565b15156000036109c65760405163153d666b60e11b815233600482015260240161056e565b6001600160a01b0385166109ed5760405163027cd49160e31b815260040160405180910390fd5b6001600160a01b0380861660008181526099602052604090205490911603610a285760405163172dc47560e31b815260040160405180910390fd5b600084815260986020526040902080546001600160a01b0319166001600160a01b038716179055610a5c8585858585610c13565b5050505050565b610a6e600033610908565b1515600003610a7d573361054d565b6105a17f30854e1816f97c77fec020bfaf79d4d65ec0313c6c52626de45756a4441c650c82610b8d565b610ab2600033610908565b1515600003610ac1573361054d565b6105a1600082610b8d565b610ad7600033610908565b1515600003610ae6573361054d565b7f9ba8518984ecd922a282db79730eef360aab3a173c17b159e362d8ead1b281c5820361063c5760405163f044427960e01b815260040160405180910390fd5b610b308282610908565b156105c85760008281526065602090815260408083206001600160a01b0385168085529252808320805460ff1916905551339285917ff6391f5c32d9c69d2a47ea670b442974b53935d1edc7fd64eb21e047a839171b9190a45050565b610b978282610908565b6105c85760008281526065602090815260408083206001600160a01b03851684529091529020805460ff19166001179055610bcf3390565b6001600160a01b0316816001600160a01b0316837f2f8788117e7eff1d82e926ec794901d17c78024a50270940304540a733656f0d60405160405180910390a45050565b60006040518060c00160405280876001600160a01b03168152602001868152602001848152602001856001811115610c4d57610c4d610ed4565b6001811115610c5e57610c5e610ed4565b81528315156020820152604001600090526001600160a01b03878116600090815260996020908152604091829020845181546001600160a01b0319169416939093178355830151600180840191909155908301516002830155606083015160038301805494955085949192909160ff1916908381811115610ce157610ce1610ed4565b021790555060808201516003820180549115156101000261ff001983168117825560a08501519262ff00001990911662ffff00199091161762010000836002811115610d2f57610d2f610ed4565b021790555050609780546001810182556000919091527f354a83ed9988f79f6038d4c7a7dadbad8af32f4ad6df893e0e5807a1b1944ff9018690555060405185907fc58ddd6836452df255c34cb8b0f8d0767530757ccce2ed8b99c83dda94a29da090610d9d908490610f2a565b60405180910390a2505050505050565b600060208284031215610dbf57600080fd5b81356001600160e01b031981168114610dd757600080fd5b9392505050565b600060208284031215610df057600080fd5b813560028110610dd757600080fd5b80356001600160a01b0381168114610e1657600080fd5b919050565b600060208284031215610e2d57600080fd5b610dd782610dff565b600060208284031215610e4857600080fd5b5035919050565b60008060408385031215610e6257600080fd5b82359150610e7260208401610dff565b90509250929050565b600080600080600060a08688031215610e9357600080fd5b610e9c86610dff565b945060208601359350604086013592506060860135915060808601358015158114610ec657600080fd5b809150509295509295909350565b634e487b7160e01b600052602160045260246000fd5b60028110610efa57610efa610ed4565b9052565b6001600160a01b03841681526020810183905260608101610f226040830184610eea565b949350505050565b81516001600160a01b03168152602080830151908201526040808301519082015260608083015160c0830191610f6290840182610eea565b5060808301511515608083015260a083015160038110610f8457610f84610ed4565b8060a0840152509291505056feb19546dff01e856fb3f010c267a7b1c60363cf8a4664e21cc89c26224620214ea2646970667358221220e0e8646cf9a4210a603ac0871930a7ddcd79a095a3a82639dff1924c9b29b34c64736f6c63430008130033",
    "linkReferences": {}
  },
  "methodIdentifiers": {
    "DEFAULT_ADMIN_ROLE()": "a217fddf",
    "DEFAULT_READ_ROLE()": "88e7d609",
    "OWNER_ROLE()": "e58378bb",
    "READ_ROLE()": "af15256a",
    "addEmployee(address,bytes32,uint256,uint256,bool)": "aff92f05",
    "getAccount(address)": "fbcbc0f1",
    "getRoleAdmin(bytes32)": "248a9ca3",
    "grantAdminRole(address)": "c634b78e",
    "grantOwnerRole(address)": "397a8bab",
    "grantReadRole(address)": "be575229",
    "grantRole(bytes32,address)": "2f2ff15d",
    "hasRole(bytes32,address)": "91d14854",
    "initialize()": "8129fc1c",
    "minAge()": "55519d87",
    "renounceRole(bytes32,address)": "36568abe",
    "revokeAdminRole(address)": "9a19c7b0",
    "revokeOwnerRole(address)": "9c5bdeb4",
    "revokeReadRole(address)": "1d772f62",
    "revokeRole(bytes32,address)": "d547741f",
    "supportsInterface(bytes4)": "01ffc9a7",
    "verifyDateOfBirth(uint256)": "8aca9f43",
    "verifyGender(uint8)": "0411b339"
  },
  "id": 39
}