{
  "abi": [
    {
      "inputs": [],
      "name": "hellow",
      "outputs": [
        {
          "internalType": "uint256",
          "name": "",
          "type": "uint256"
        }
      ],
      "stateMutability": "pure",
      "type": "function"
    }
  ],
  "bytecode": {
    "object": "0x6080604052348015600f57600080fd5b50607880601d6000396000f3fe6080604052348015600f57600080fd5b506004361060285760003560e01c806355941d9714602d575b600080fd5b6107d060405190815260200160405180910390f3fea26469706673582212204aba089675575482f9201f9af96a64cdea0bddc867c3ae7123a81232336ace7d64736f6c63430008130033",
    "linkReferences": {}
  },
  "methodIdentifiers": {
    "hellow()": "55941d97"
  },
  "id": 0
}