{
  "abi": [
    {
      "inputs": [
        {
          "internalType": "address",
          "name": "_beacon",
          "type": "address"
        }
      ],
      "stateMutability": "nonpayable",
      "type": "constructor"
    },
    {
      "anonymous": false,
      "inputs": [
        {
          "indexed": false,
          "internalType": "address",
          "name": "previousAdmin",
          "type": "address"
        },
        {
          "indexed": false,
          "internalType": "address",
          "name": "newAdmin",
          "type": "address"
        }
      ],
      "name": "AdminChanged",
      "type": "event"
    },
    {
      "anonymous": false,
      "inputs": [
        {
          "indexed": true,
          "internalType": "address",
          "name": "beacon",
          "type": "address"
        }
      ],
      "name": "BeaconUpgraded",
      "type": "event"
    },
    {
      "anonymous": false,
      "inputs": [
        {
          "indexed": true,
          "internalType": "address",
          "name": "implementation",
          "type": "address"
        }
      ],
      "name": "Upgraded",
      "type": "event"
    },
    {
      "stateMutability": "payable",
      "type": "fallback"
    },
    {
      "inputs": [],
      "name": "getBeacon",
      "outputs": [
        {
          "internalType": "address",
          "name": "",
          "type": "address"
        }
      ],
      "stateMutability": "view",
      "type": "function"
    },
    {
      "inputs": [],
      "name": "getImplementation",
      "outputs": [
        {
          "internalType": "address",
          "name": "",
          "type": "address"
        }
      ],
      "stateMutability": "view",
      "type": "function"
    },
    {
      "stateMutability": "payable",
      "type": "receive"
    }
  ],
  "bytecode": {
    "object": "0x608060405234801561001057600080fd5b506040516106be3803806106be83398101604081905261002f916103ef565b80604051806020016040528060008152506100528282600061005a60201b60201c565b50505061048b565b6100638361011b565b6040516001600160a01b038416907f1cf3b03a6cf19fa2baba4df148e9dcabedea7f8a5c07840e207e5c089be95d3e90600090a26000825111806100a45750805b1561011657610114836001600160a01b0316635c60da1b6040518163ffffffff1660e01b8152600401602060405180830381865afa1580156100ea573d6000803e3d6000fd5b505050506040513d601f19601f8201168201806040525081019061010e91906103ef565b8361029f565b505b505050565b6001600160a01b0381163b6101855760405162461bcd60e51b815260206004820152602560248201527f455243313936373a206e657720626561636f6e206973206e6f74206120636f6e6044820152641d1c9858dd60da1b60648201526084015b60405180910390fd5b6101f9816001600160a01b0316635c60da1b6040518163ffffffff1660e01b8152600401602060405180830381865afa1580156101c6573d6000803e3d6000fd5b505050506040513d601f19601f820116820180604052508101906101ea91906103ef565b6001600160a01b03163b151590565b61025e5760405162461bcd60e51b815260206004820152603060248201527f455243313936373a20626561636f6e20696d706c656d656e746174696f6e206960448201526f1cc81b9bdd08184818dbdb9d1c9858dd60821b606482015260840161017c565b7fa3f0ad74e5423aebfd80d3ef4346578335a9a72aeaee59ff6cb3582b35133d5080546001600160a01b0319166001600160a01b0392909216919091179055565b60606102c48383604051806060016040528060278152602001610697602791396102cb565b9392505050565b6060600080856001600160a01b0316856040516102e8919061043c565b600060405180830381855af49150503d8060008114610323576040519150601f19603f3d011682016040523d82523d6000602084013e610328565b606091505b50909250905061033a86838387610344565b9695505050505050565b606083156103b35782516000036103ac576001600160a01b0385163b6103ac5760405162461bcd60e51b815260206004820152601d60248201527f416464726573733a2063616c6c20746f206e6f6e2d636f6e7472616374000000604482015260640161017c565b50816103bd565b6103bd83836103c5565b949350505050565b8151156103d55781518083602001fd5b8060405162461bcd60e51b815260040161017c9190610458565b60006020828403121561040157600080fd5b81516001600160a01b03811681146102c457600080fd5b60005b8381101561043357818101518382015260200161041b565b50506000910152565b6000825161044e818460208701610418565b9190910192915050565b6020815260008251806020840152610477816040850160208701610418565b601f01601f19169190910160400192915050565b6101fd8061049a6000396000f3fe60806040526004361061002d5760003560e01c80632d6b3a6b14610044578063aaf10f42146100755761003c565b3661003c5761003a61008a565b005b61003a61008a565b34801561005057600080fd5b5061005961009c565b6040516001600160a01b03909116815260200160405180910390f35b34801561008157600080fd5b506100596100d9565b61009a6100956100df565b610173565b565b60006100d460006100d47fa3f0ad74e5423aebfd80d3ef4346578335a9a72aeaee59ff6cb3582b35133d50546001600160a01b031690565b905090565b60006100d45b60006101127fa3f0ad74e5423aebfd80d3ef4346578335a9a72aeaee59ff6cb3582b35133d50546001600160a01b031690565b6001600160a01b0316635c60da1b6040518163ffffffff1660e01b8152600401602060405180830381865afa15801561014f573d6000803e3d6000fd5b505050506040513d601f19601f820116820180604052508101906100d49190610197565b3660008037600080366000845af43d6000803e808015610192573d6000f35b3d6000fd5b6000602082840312156101a957600080fd5b81516001600160a01b03811681146101c057600080fd5b939250505056fea2646970667358221220cc354e5ca00d7ea93f15188fc96a4a3994a843022d6a54fe23b088daeb3056e964736f6c63430008130033416464726573733a206c6f772d6c6576656c2064656c65676174652063616c6c206661696c6564",
    "linkReferences": {}
  },
  "methodIdentifiers": {
    "getBeacon()": "2d6b3a6b",
    "getImplementation()": "aaf10f42"
  },
  "id": 73
}