{
  "abi": [
    {
      "inputs": [],
      "stateMutability": "nonpayable",
      "type": "constructor"
    },
    {
      "anonymous": false,
      "inputs": [
        {
          "indexed": true,
          "internalType": "address",
          "name": "tokenOwner",
          "type": "address"
        },
        {
          "indexed": true,
          "internalType": "address",
          "name": "spender",
          "type": "address"
        },
        {
          "indexed": false,
          "internalType": "uint256",
          "name": "tokens",
          "type": "uint256"
        }
      ],
      "name": "Approval",
      "type": "event"
    },
    {
      "anonymous": false,
      "inputs": [
        {
          "indexed": true,
          "internalType": "address",
          "name": "from",
          "type": "address"
        },
        {
          "indexed": true,
          "internalType": "address",
          "name": "to",
          "type": "address"
        },
        {
          "indexed": false,
          "internalType": "uint256",
          "name": "tokens",
          "type": "uint256"
        }
      ],
      "name": "Transfer",
      "type": "event"
    },
    {
      "inputs": [
        {
          "internalType": "address",
          "name": "tokenOwner",
          "type": "address"
        },
        {
          "internalType": "address",
          "name": "spender",
          "type": "address"
        }
      ],
      "name": "allowance",
      "outputs": [
        {
          "internalType": "uint256",
          "name": "remaining",
          "type": "uint256"
        }
      ],
      "stateMutability": "view",
      "type": "function"
    },
    {
      "inputs": [
        {
          "internalType": "address",
          "name": "spender",
          "type": "address"
        },
        {
          "internalType": "uint256",
          "name": "tokens",
          "type": "uint256"
        }
      ],
      "name": "approve",
      "outputs": [
        {
          "internalType": "bool",
          "name": "success",
          "type": "bool"
        }
      ],
      "stateMutability": "nonpayable",
      "type": "function"
    },
    {
      "inputs": [
        {
          "internalType": "address",
          "name": "tokenOwner",
          "type": "address"
        }
      ],
      "name": "balanceOf",
      "outputs": [
        {
          "internalType": "uint256",
          "name": "balance",
          "type": "uint256"
        }
      ],
      "stateMutability": "view",
      "type": "function"
    },
    {
      "inputs": [],
      "name": "decimals",
      "outputs": [
        {
          "internalType": "uint8",
          "name": "",
          "type": "uint8"
        }
      ],
      "stateMutability": "view",
      "type": "function"
    },
    {
      "inputs": [
        {
          "internalType": "address",
          "name": "addr",
          "type": "address"
        }
      ],
      "name": "isContract",
      "outputs": [
        {
          "internalType": "bool",
          "name": "success",
          "type": "bool"
        }
      ],
      "stateMutability": "view",
      "type": "function"
    },
    {
      "inputs": [],
      "name": "name",
      "outputs": [
        {
          "internalType": "string",
          "name": "",
          "type": "string"
        }
      ],
      "stateMutability": "view",
      "type": "function"
    },
    {
      "inputs": [],
      "name": "symbol",
      "outputs": [
        {
          "internalType": "string",
          "name": "",
          "type": "string"
        }
      ],
      "stateMutability": "view",
      "type": "function"
    },
    {
      "inputs": [],
      "name": "totalSupply",
      "outputs": [
        {
          "internalType": "uint256",
          "name": "",
          "type": "uint256"
        }
      ],
      "stateMutability": "pure",
      "type": "function"
    },
    {
      "inputs": [
        {
          "internalType": "address",
          "name": "to",
          "type": "address"
        },
        {
          "internalType": "uint256",
          "name": "tokens",
          "type": "uint256"
        }
      ],
      "name": "transfer",
      "outputs": [
        {
          "internalType": "bool",
          "name": "success",
          "type": "bool"
        }
      ],
      "stateMutability": "nonpayable",
      "type": "function"
    },
    {
      "inputs": [
        {
          "internalType": "address",
          "name": "from",
          "type": "address"
        },
        {
          "internalType": "address",
          "name": "to",
          "type": "address"
        },
        {
          "internalType": "uint256",
          "name": "tokens",
          "type": "uint256"
        }
      ],
      "name": "transferFrom",
      "outputs": [
        {
          "internalType": "bool",
          "name": "success",
          "type": "bool"
        }
      ],
      "stateMutability": "nonpayable",
      "type": "function"
    }
  ],
  "bytecode": {
    "object": "0x608060405234801561001057600080fd5b503360008181526020818152604080832066038d7ea4c680009081905590519081527fddf252ad1be2c89b69c2b068fc378daa952ba7f163c4a11628f55a4df523b3ef910160405180910390a36106868061006c6000396000f3fe608060405234801561001057600080fd5b506004361061009e5760003560e01c8063313ce56711610066578063313ce5671461014757806370a082311461016157806395d89b411461018a578063a9059cbb146101ac578063dd62ed3e146101bf57600080fd5b806306fdde03146100a3578063095ea7b3146100e6578063162790551461010957806318160ddd1461011d57806323b872dd14610134575b600080fd5b6100d06040518060400160405280600e81526020016d2830b832b92a30b6329021b7b4b760911b81525081565b6040516100dd91906104d9565b60405180910390f35b6100f96100f4366004610543565b6101f8565b60405190151581526020016100dd565b6100f961011736600461056d565b3b151590565b66038d7ea4c680005b6040519081526020016100dd565b6100f961014236600461058f565b61028a565b61014f600281565b60405160ff90911681526020016100dd565b61012661016f36600461056d565b6001600160a01b031660009081526020819052604090205490565b6100d06040518060400160405280600381526020016250544360e81b81525081565b6100f96101ba366004610543565b6103fe565b6101266101cd3660046105cb565b6001600160a01b03918216600090815260016020908152604080832093909416825291909152205490565b600080821180156102185750336000908152602081905260409020548211155b610224576102246105fe565b3360008181526001602090815260408083206001600160a01b03881680855290835292819020869055518581529192917f8c5be1e5ebec7d5bd14f71427d1e84f3dd0314c0f7b2291e5b200ac8c7c3b92591015b60405180910390a35060015b92915050565b6000826001600160a01b0316846001600160a01b0316141580156102ae5750600082115b80156102d257506001600160a01b0384166000908152602081905260409020548211155b801561030357506001600160a01b038085166000908152600160209081526040808320938716835292905220548211155b61030f5761030f6105fe565b6001600160a01b0380851660009081526001602090815260408083209387168352929052908120805484929061034690849061062a565b90915550506001600160a01b0384166000908152602081905260408120805484929061037390849061062a565b90915550506001600160a01b038316600090815260208190526040812080548492906103a090849061063d565b92505081905550826001600160a01b0316846001600160a01b03167fddf252ad1be2c89b69c2b068fc378daa952ba7f163c4a11628f55a4df523b3ef846040516103ec91815260200190565b60405180910390a35060019392505050565b6000823b1580156104185750336001600160a01b03841614155b80156104245750600082115b801561043f5750336000908152602081905260409020548211155b61044b5761044b6105fe565b336000908152602081905260408120805484929061046a90849061062a565b90915550506001600160a01b0383166000908152602081905260408120805484929061049790849061063d565b90915550506040518281526001600160a01b0384169033907fddf252ad1be2c89b69c2b068fc378daa952ba7f163c4a11628f55a4df523b3ef90602001610278565b600060208083528351808285015260005b81811015610506578581018301518582016040015282016104ea565b506000604082860101526040601f19601f8301168501019250505092915050565b80356001600160a01b038116811461053e57600080fd5b919050565b6000806040838503121561055657600080fd5b61055f83610527565b946020939093013593505050565b60006020828403121561057f57600080fd5b61058882610527565b9392505050565b6000806000606084860312156105a457600080fd5b6105ad84610527565b92506105bb60208501610527565b9150604084013590509250925092565b600080604083850312156105de57600080fd5b6105e783610527565b91506105f560208401610527565b90509250929050565b634e487b7160e01b600052600160045260246000fd5b634e487b7160e01b600052601160045260246000fd5b8181038181111561028457610284610614565b808201808211156102845761028461061456fea264697066735822122041f424ffcf13a2da8fb5f7004762f52baff27659b80db288dd3b30bd45924b4964736f6c63430008130033",
    "linkReferences": {}
  },
  "methodIdentifiers": {
    "allowance(address,address)": "dd62ed3e",
    "approve(address,uint256)": "095ea7b3",
    "balanceOf(address)": "70a08231",
    "decimals()": "313ce567",
    "isContract(address)": "16279055",
    "name()": "06fdde03",
    "symbol()": "95d89b41",
    "totalSupply()": "18160ddd",
    "transfer(address,uint256)": "a9059cbb",
    "transferFrom(address,address,uint256)": "23b872dd"
  },
  "id": 79
}