{
  "abi": [
    {
      "inputs": [
        {
          "internalType": "address",
          "name": "i_beacon",
          "type": "address"
        }
      ],
      "stateMutability": "nonpayable",
      "type": "constructor"
    },
    {
      "inputs": [],
      "name": "EmployeeFactory__NotContractAddress",
      "type": "error"
    },
    {
      "inputs": [
        {
          "internalType": "address",
          "name": "account",
          "type": "address"
        }
      ],
      "name": "EmployeeFactory__ZeroAddress",
      "type": "error"
    },
    {
      "anonymous": false,
      "inputs": [
        {
          "indexed": true,
          "internalType": "address",
          "name": "_proxy",
          "type": "address"
        }
      ],
      "name": "Create",
      "type": "event"
    },
    {
      "anonymous": false,
      "inputs": [
        {
          "indexed": true,
          "internalType": "address",
          "name": "previousOwner",
          "type": "address"
        },
        {
          "indexed": true,
          "internalType": "address",
          "name": "newOwner",
          "type": "address"
        }
      ],
      "name": "OwnershipTransferred",
      "type": "event"
    },
    {
      "anonymous": false,
      "inputs": [
        {
          "indexed": false,
          "internalType": "address",
          "name": "_beacon",
          "type": "address"
        }
      ],
      "name": "SetBeacon",
      "type": "event"
    },
    {
      "inputs": [
        {
          "internalType": "address",
          "name": "owner",
          "type": "address"
        },
        {
          "internalType": "address",
          "name": "admin",
          "type": "address"
        }
      ],
      "name": "create",
      "outputs": [
        {
          "internalType": "address",
          "name": "employeeContractAddress",
          "type": "address"
        }
      ],
      "stateMutability": "nonpayable",
      "type": "function"
    },
    {
      "inputs": [
        {
          "internalType": "address",
          "name": "_owner",
          "type": "address"
        }
      ],
      "name": "getProxyList",
      "outputs": [
        {
          "internalType": "address[]",
          "name": "",
          "type": "address[]"
        }
      ],
      "stateMutability": "view",
      "type": "function"
    },
    {
      "inputs": [],
      "name": "owner",
      "outputs": [
        {
          "internalType": "address",
          "name": "",
          "type": "address"
        }
      ],
      "stateMutability": "view",
      "type": "function"
    },
    {
      "inputs": [],
      "name": "renounceOwnership",
      "outputs": [],
      "stateMutability": "nonpayable",
      "type": "function"
    },
    {
      "inputs": [
        {
          "internalType": "address",
          "name": "_newBeacon",
          "type": "address"
        }
      ],
      "name": "setBeacon",
      "outputs": [],
      "stateMutability": "nonpayable",
      "type": "function"
    },
    {
      "inputs": [
        {
          "internalType": "address",
          "name": "newOwner",
          "type": "address"
        }
      ],
      "name": "transferOwnership",
      "outputs": [],
      "stateMutability": "nonpayable",
      "type": "function"
    }
  ],
  "bytecode": {
    "object": "0x608060405234801561001057600080fd5b5060405161111e38038061111e83398101604081905261002f916100da565b6100383361008a565b6001600160a01b0381163b151560000361006557604051630a2d314360e01b815260040160405180910390fd5b600180546001600160a01b0319166001600160a01b039290921691909117905561010a565b600080546001600160a01b038381166001600160a01b0319831681178455604051919092169283917f8be0079c531659141344cd1fd0a4f28419497f9722a3daafe3b4186f6b6457e09190a35050565b6000602082840312156100ec57600080fd5b81516001600160a01b038116811461010357600080fd5b9392505050565b611005806101196000396000f3fe60806040523480156200001157600080fd5b50600436106200006a5760003560e01c80630b8ac54b146200006f5780633e68680a146200009e578063715018a614620000ce5780638da5cb5b14620000da578063d42afb5614620000ec578063f2fde38b1462000103575b600080fd5b620000866200008036600462000782565b6200011a565b604051620000959190620007a0565b60405180910390f35b620000b5620000af366004620007ef565b62000192565b6040516001600160a01b03909116815260200162000095565b620000d86200021d565b005b6000546001600160a01b0316620000b5565b620000d8620000fd36600462000782565b62000235565b620000d86200011436600462000782565b620002c1565b6001600160a01b0381166000908152600260209081526040918290208054835181840281018401909452808452606093928301828280156200018657602002820191906000526020600020905b81546001600160a01b0316815260019091019060200180831162000167575b50505050509050919050565b60006200019e62000340565b6001600160a01b038316620001d65760405163329a528d60e11b81526001600160a01b03841660048201526024015b60405180910390fd5b6001600160a01b0382166200020a5760405163329a528d60e11b81526001600160a01b0383166004820152602401620001cd565b6200021683836200039c565b9392505050565b6200022762000340565b62000233600062000707565b565b6200023f62000340565b6001600160a01b0381163b15156000036200026d57604051630a2d314360e01b815260040160405180910390fd5b600180546001600160a01b0319166001600160a01b0383169081179091556040519081527feda478a82221a6140112aa7f09cae9d34ba9ef5afe98665b4b91af27bfae4b809060200160405180910390a150565b620002cb62000340565b6001600160a01b038116620003325760405162461bcd60e51b815260206004820152602660248201527f4f776e61626c653a206e6577206f776e657220697320746865207a65726f206160448201526564647265737360d01b6064820152608401620001cd565b6200033d8162000707565b50565b6000546001600160a01b03163314620002335760405162461bcd60e51b815260206004820181905260248201527f4f776e61626c653a2063616c6c6572206973206e6f7420746865206f776e65726044820152606401620001cd565b60015460405160009182916001600160a01b0390911690620003be9062000757565b6001600160a01b039091168152604060208201819052600090820152606001604051809103906000f080158015620003fa573d6000803e3d6000fd5b5090506000819050806001600160a01b0316638129fc1c6040518163ffffffff1660e01b8152600401600060405180830381600087803b1580156200043e57600080fd5b505af115801562000453573d6000803e3d6000fd5b505060405163397a8bab60e01b81526001600160a01b0388811660048301528416925063397a8bab9150602401600060405180830381600087803b1580156200049b57600080fd5b505af1158015620004b0573d6000803e3d6000fd5b505060405163be57522960e01b81526001600160a01b0388811660048301528416925063be5752299150602401600060405180830381600087803b158015620004f857600080fd5b505af11580156200050d573d6000803e3d6000fd5b505060405163631a5bc760e11b81526001600160a01b0387811660048301528416925063c634b78e9150602401600060405180830381600087803b1580156200055557600080fd5b505af11580156200056a573d6000803e3d6000fd5b50505050806001600160a01b0316632f2ff15d826001600160a01b03166388e7d6096040518163ffffffff1660e01b8152600401602060405180830381865afa158015620005bc573d6000803e3d6000fd5b505050506040513d601f19601f82011682018060405250810190620005e2919062000827565b6040516001600160e01b031960e084901b1681526004810191909152336024820152604401600060405180830381600087803b1580156200062257600080fd5b505af115801562000637573d6000803e3d6000fd5b505050506001600160a01b0385811660009081526002602090815260408083208054600181018255908452919092200180546001600160a01b031916858416179055516309a19c7b60e41b815230600482015290821690639a19c7b090602401600060405180830381600087803b158015620006b257600080fd5b505af1158015620006c7573d6000803e3d6000fd5b50506040516001600160a01b03851692507fe3758539c1bd6726422843471b2886c2d2cefd3b4aead6778386283e20a32a809150600090a2509392505050565b600080546001600160a01b038381166001600160a01b0319831681178455604051919092169283917f8be0079c531659141344cd1fd0a4f28419497f9722a3daafe3b4186f6b6457e09190a35050565b61078e806200084283390190565b80356001600160a01b03811681146200077d57600080fd5b919050565b6000602082840312156200079557600080fd5b620002168262000765565b6020808252825182820181905260009190848201906040850190845b81811015620007e35783516001600160a01b031683529284019291840191600101620007bc565b50909695505050505050565b600080604083850312156200080357600080fd5b6200080e8362000765565b91506200081e6020840162000765565b90509250929050565b6000602082840312156200083a57600080fd5b505191905056fe608060405234801561001057600080fd5b5060405161078e38038061078e83398101604081905261002f91610431565b818161003d82826000610046565b5050505061055b565b61004f83610107565b6040516001600160a01b038416907f1cf3b03a6cf19fa2baba4df148e9dcabedea7f8a5c07840e207e5c089be95d3e90600090a26000825111806100905750805b1561010257610100836001600160a01b0316635c60da1b6040518163ffffffff1660e01b8152600401602060405180830381865afa1580156100d6573d6000803e3d6000fd5b505050506040513d601f19601f820116820180604052508101906100fa91906104f1565b8361028b565b505b505050565b6001600160a01b0381163b6101715760405162461bcd60e51b815260206004820152602560248201527f455243313936373a206e657720626561636f6e206973206e6f74206120636f6e6044820152641d1c9858dd60da1b60648201526084015b60405180910390fd5b6101e5816001600160a01b0316635c60da1b6040518163ffffffff1660e01b8152600401602060405180830381865afa1580156101b2573d6000803e3d6000fd5b505050506040513d601f19601f820116820180604052508101906101d691906104f1565b6001600160a01b03163b151590565b61024a5760405162461bcd60e51b815260206004820152603060248201527f455243313936373a20626561636f6e20696d706c656d656e746174696f6e206960448201526f1cc81b9bdd08184818dbdb9d1c9858dd60821b6064820152608401610168565b7fa3f0ad74e5423aebfd80d3ef4346578335a9a72aeaee59ff6cb3582b35133d5080546001600160a01b0319166001600160a01b0392909216919091179055565b60606102b08383604051806060016040528060278152602001610767602791396102b7565b9392505050565b6060600080856001600160a01b0316856040516102d4919061050c565b600060405180830381855af49150503d806000811461030f576040519150601f19603f3d011682016040523d82523d6000602084013e610314565b606091505b50909250905061032686838387610330565b9695505050505050565b6060831561039f578251600003610398576001600160a01b0385163b6103985760405162461bcd60e51b815260206004820152601d60248201527f416464726573733a2063616c6c20746f206e6f6e2d636f6e74726163740000006044820152606401610168565b50816103a9565b6103a983836103b1565b949350505050565b8151156103c15781518083602001fd5b8060405162461bcd60e51b81526004016101689190610528565b80516001600160a01b03811681146103f257600080fd5b919050565b634e487b7160e01b600052604160045260246000fd5b60005b83811015610428578181015183820152602001610410565b50506000910152565b6000806040838503121561044457600080fd5b61044d836103db565b60208401519092506001600160401b038082111561046a57600080fd5b818501915085601f83011261047e57600080fd5b815181811115610490576104906103f7565b604051601f8201601f19908116603f011681019083821181831017156104b8576104b86103f7565b816040528281528860208487010111156104d157600080fd5b6104e283602083016020880161040d565b80955050505050509250929050565b60006020828403121561050357600080fd5b6102b0826103db565b6000825161051e81846020870161040d565b9190910192915050565b602081526000825180602084015261054781604085016020870161040d565b601f01601f19169190910160400192915050565b6101fd8061056a6000396000f3fe60806040526004361061002d5760003560e01c80632d6b3a6b14610044578063aaf10f42146100755761003c565b3661003c5761003a61008a565b005b61003a61008a565b34801561005057600080fd5b5061005961009c565b6040516001600160a01b03909116815260200160405180910390f35b34801561008157600080fd5b506100596100d9565b61009a6100956100df565b610173565b565b60006100d460006100d47fa3f0ad74e5423aebfd80d3ef4346578335a9a72aeaee59ff6cb3582b35133d50546001600160a01b031690565b905090565b60006100d45b60006101127fa3f0ad74e5423aebfd80d3ef4346578335a9a72aeaee59ff6cb3582b35133d50546001600160a01b031690565b6001600160a01b0316635c60da1b6040518163ffffffff1660e01b8152600401602060405180830381865afa15801561014f573d6000803e3d6000fd5b505050506040513d601f19601f820116820180604052508101906100d49190610197565b3660008037600080366000845af43d6000803e808015610192573d6000f35b3d6000fd5b6000602082840312156101a957600080fd5b81516001600160a01b03811681146101c057600080fd5b939250505056fea26469706673582212207c9feeb363807213a43b4db5947b15447317141f40ffbd26ae02e15c84002c8764736f6c63430008130033416464726573733a206c6f772d6c6576656c2064656c65676174652063616c6c206661696c6564a2646970667358221220608624c9948b3262f6e072ef6807e896795379675f54fac696afddd70b47ba3064736f6c63430008130033",
    "linkReferences": {}
  },
  "methodIdentifiers": {
    "create(address,address)": "3e68680a",
    "getProxyList(address)": "0b8ac54b",
    "owner()": "8da5cb5b",
    "renounceOwnership()": "715018a6",
    "setBeacon(address)": "d42afb56",
    "transferOwnership(address)": "f2fde38b"
  },
  "id": 41
}