{
  "abi": [
    {
      "inputs": [],
      "name": "AssetDocument__CallerIsNotAssetExternalAuditor",
      "type": "error"
    },
    {
      "inputs": [],
      "name": "AssetDocument__CallerIsNotAssetOwner",
      "type": "error"
    },
    {
      "inputs": [],
      "name": "AssetDocument__ExternalAuditExists",
      "type": "error"
    },
    {
      "inputs": [],
      "name": "AssetDocument__InternalAuditExists",
      "type": "error"
    },
    {
      "inputs": [],
      "name": "AssetDocument__NoMatchingAsset",
      "type": "error"
    },
    {
      "inputs": [],
      "name": "AssetDocument__ZeroAddress",
      "type": "error"
    },
    {
      "inputs": [],
      "name": "AssetDocument__ZeroBytes32",
      "type": "error"
    },
    {
      "anonymous": false,
      "inputs": [
        {
          "indexed": true,
          "internalType": "address",
          "name": "sender",
          "type": "address"
        },
        {
          "indexed": true,
          "internalType": "uint256",
          "name": "assetId",
          "type": "uint256"
        },
        {
          "indexed": true,
          "internalType": "bytes32",
          "name": "documentId",
          "type": "bytes32"
        },
        {
          "indexed": false,
          "internalType": "uint256",
          "name": "timestamp",
          "type": "uint256"
        }
      ],
      "name": "AddDocument",
      "type": "event"
    },
    {
      "anonymous": false,
      "inputs": [
        {
          "indexed": true,
          "internalType": "address",
          "name": "sender",
          "type": "address"
        },
        {
          "indexed": true,
          "internalType": "uint256",
          "name": "assetId",
          "type": "uint256"
        },
        {
          "indexed": true,
          "internalType": "bytes32",
          "name": "documentId",
          "type": "bytes32"
        },
        {
          "indexed": false,
          "internalType": "uint256",
          "name": "timestamp",
          "type": "uint256"
        }
      ],
      "name": "AddExternalAudit",
      "type": "event"
    },
    {
      "anonymous": false,
      "inputs": [
        {
          "indexed": true,
          "internalType": "address",
          "name": "sender",
          "type": "address"
        },
        {
          "indexed": true,
          "internalType": "uint256",
          "name": "assetId",
          "type": "uint256"
        },
        {
          "indexed": true,
          "internalType": "bytes32",
          "name": "documentId",
          "type": "bytes32"
        },
        {
          "indexed": false,
          "internalType": "uint256",
          "name": "timestamp",
          "type": "uint256"
        }
      ],
      "name": "AddInternalAudit",
      "type": "event"
    },
    {
      "anonymous": false,
      "inputs": [
        {
          "indexed": false,
          "internalType": "address",
          "name": "previousAdmin",
          "type": "address"
        },
        {
          "indexed": false,
          "internalType": "address",
          "name": "newAdmin",
          "type": "address"
        }
      ],
      "name": "AdminChanged",
      "type": "event"
    },
    {
      "anonymous": false,
      "inputs": [
        {
          "indexed": true,
          "internalType": "address",
          "name": "beacon",
          "type": "address"
        }
      ],
      "name": "BeaconUpgraded",
      "type": "event"
    },
    {
      "anonymous": false,
      "inputs": [
        {
          "indexed": false,
          "internalType": "uint8",
          "name": "version",
          "type": "uint8"
        }
      ],
      "name": "Initialized",
      "type": "event"
    },
    {
      "anonymous": false,
      "inputs": [
        {
          "indexed": true,
          "internalType": "address",
          "name": "previousOwner",
          "type": "address"
        },
        {
          "indexed": true,
          "internalType": "address",
          "name": "newOwner",
          "type": "address"
        }
      ],
      "name": "OwnershipTransferred",
      "type": "event"
    },
    {
      "anonymous": false,
      "inputs": [
        {
          "indexed": true,
          "internalType": "address",
          "name": "sender",
          "type": "address"
        },
        {
          "indexed": true,
          "internalType": "uint256",
          "name": "assetId",
          "type": "uint256"
        },
        {
          "indexed": false,
          "internalType": "address",
          "name": "account",
          "type": "address"
        }
      ],
      "name": "SetExternalAuditor",
      "type": "event"
    },
    {
      "anonymous": false,
      "inputs": [
        {
          "indexed": true,
          "internalType": "address",
          "name": "implementation",
          "type": "address"
        }
      ],
      "name": "Upgraded",
      "type": "event"
    },
    {
      "inputs": [
        {
          "internalType": "uint256",
          "name": "assetId",
          "type": "uint256"
        },
        {
          "internalType": "bytes32",
          "name": "documentId",
          "type": "bytes32"
        }
      ],
      "name": "addDocument",
      "outputs": [],
      "stateMutability": "nonpayable",
      "type": "function"
    },
    {
      "inputs": [
        {
          "internalType": "uint256",
          "name": "assetId",
          "type": "uint256"
        },
        {
          "internalType": "bytes32",
          "name": "documentId",
          "type": "bytes32"
        }
      ],
      "name": "addExternalAudit",
      "outputs": [],
      "stateMutability": "nonpayable",
      "type": "function"
    },
    {
      "inputs": [
        {
          "internalType": "uint256",
          "name": "assetId",
          "type": "uint256"
        },
        {
          "internalType": "bytes32",
          "name": "documentId",
          "type": "bytes32"
        }
      ],
      "name": "addInternalAudit",
      "outputs": [],
      "stateMutability": "nonpayable",
      "type": "function"
    },
    {
      "inputs": [],
      "name": "getAssetController",
      "outputs": [
        {
          "internalType": "address",
          "name": "",
          "type": "address"
        }
      ],
      "stateMutability": "view",
      "type": "function"
    },
    {
      "inputs": [
        {
          "internalType": "uint256",
          "name": "assetId",
          "type": "uint256"
        },
        {
          "internalType": "bytes32",
          "name": "documentId",
          "type": "bytes32"
        }
      ],
      "name": "getAssetDocument",
      "outputs": [
        {
          "components": [
            {
              "internalType": "uint256",
              "name": "assetId",
              "type": "uint256"
            },
            {
              "internalType": "address",
              "name": "account",
              "type": "address"
            },
            {
              "internalType": "uint256",
              "name": "timestamp",
              "type": "uint256"
            },
            {
              "internalType": "bytes32",
              "name": "documentId",
              "type": "bytes32"
            }
          ],
          "internalType": "struct Document",
          "name": "",
          "type": "tuple"
        }
      ],
      "stateMutability": "view",
      "type": "function"
    },
    {
      "inputs": [
        {
          "internalType": "uint256",
          "name": "assetId",
          "type": "uint256"
        }
      ],
      "name": "getAssetDocumentIds",
      "outputs": [
        {
          "internalType": "bytes32[]",
          "name": "",
          "type": "bytes32[]"
        }
      ],
      "stateMutability": "view",
      "type": "function"
    },
    {
      "inputs": [
        {
          "internalType": "uint256",
          "name": "assetId",
          "type": "uint256"
        }
      ],
      "name": "getExternalAudit",
      "outputs": [
        {
          "components": [
            {
              "internalType": "uint256",
              "name": "assetId",
              "type": "uint256"
            },
            {
              "internalType": "address",
              "name": "account",
              "type": "address"
            },
            {
              "internalType": "uint256",
              "name": "timestamp",
              "type": "uint256"
            },
            {
              "internalType": "bytes32",
              "name": "documentId",
              "type": "bytes32"
            }
          ],
          "internalType": "struct Document",
          "name": "document",
          "type": "tuple"
        }
      ],
      "stateMutability": "view",
      "type": "function"
    },
    {
      "inputs": [
        {
          "internalType": "uint256",
          "name": "assetId",
          "type": "uint256"
        }
      ],
      "name": "getExternalAuditId",
      "outputs": [
        {
          "internalType": "bytes32",
          "name": "documentId",
          "type": "bytes32"
        }
      ],
      "stateMutability": "view",
      "type": "function"
    },
    {
      "inputs": [
        {
          "internalType": "uint256",
          "name": "assetId",
          "type": "uint256"
        }
      ],
      "name": "getExternalAuditorAddress",
      "outputs": [
        {
          "internalType": "address",
          "name": "auitorAddress",
          "type": "address"
        }
      ],
      "stateMutability": "view",
      "type": "function"
    },
    {
      "inputs": [
        {
          "internalType": "uint256",
          "name": "assetId",
          "type": "uint256"
        }
      ],
      "name": "getInternalAudit",
      "outputs": [
        {
          "components": [
            {
              "internalType": "uint256",
              "name": "assetId",
              "type": "uint256"
            },
            {
              "internalType": "address",
              "name": "account",
              "type": "address"
            },
            {
              "internalType": "uint256",
              "name": "timestamp",
              "type": "uint256"
            },
            {
              "internalType": "bytes32",
              "name": "documentId",
              "type": "bytes32"
            }
          ],
          "internalType": "struct Document",
          "name": "document",
          "type": "tuple"
        }
      ],
      "stateMutability": "view",
      "type": "function"
    },
    {
      "inputs": [
        {
          "internalType": "uint256",
          "name": "assetId",
          "type": "uint256"
        }
      ],
      "name": "getInternalAuditId",
      "outputs": [
        {
          "internalType": "bytes32",
          "name": "documentId",
          "type": "bytes32"
        }
      ],
      "stateMutability": "view",
      "type": "function"
    },
    {
      "inputs": [
        {
          "internalType": "address",
          "name": "_controller",
          "type": "address"
        }
      ],
      "name": "initialize",
      "outputs": [],
      "stateMutability": "nonpayable",
      "type": "function"
    },
    {
      "inputs": [],
      "name": "owner",
      "outputs": [
        {
          "internalType": "address",
          "name": "",
          "type": "address"
        }
      ],
      "stateMutability": "view",
      "type": "function"
    },
    {
      "inputs": [],
      "name": "proxiableUUID",
      "outputs": [
        {
          "internalType": "bytes32",
          "name": "",
          "type": "bytes32"
        }
      ],
      "stateMutability": "view",
      "type": "function"
    },
    {
      "inputs": [],
      "name": "renounceOwnership",
      "outputs": [],
      "stateMutability": "nonpayable",
      "type": "function"
    },
    {
      "inputs": [
        {
          "internalType": "uint256",
          "name": "assetId",
          "type": "uint256"
        },
        {
          "internalType": "address",
          "name": "account",
          "type": "address"
        }
      ],
      "name": "setExternalAuditor",
      "outputs": [],
      "stateMutability": "nonpayable",
      "type": "function"
    },
    {
      "inputs": [
        {
          "internalType": "address",
          "name": "newOwner",
          "type": "address"
        }
      ],
      "name": "transferOwnership",
      "outputs": [],
      "stateMutability": "nonpayable",
      "type": "function"
    },
    {
      "inputs": [
        {
          "internalType": "address",
          "name": "newImplementation",
          "type": "address"
        }
      ],
      "name": "upgradeTo",
      "outputs": [],
      "stateMutability": "nonpayable",
      "type": "function"
    },
    {
      "inputs": [
        {
          "internalType": "address",
          "name": "newImplementation",
          "type": "address"
        },
        {
          "internalType": "bytes",
          "name": "data",
          "type": "bytes"
        }
      ],
      "name": "upgradeToAndCall",
      "outputs": [],
      "stateMutability": "payable",
      "type": "function"
    }
  ],
  "bytecode": {
    "object": "0x60a06040523060805234801561001457600080fd5b5060805161184361004c600039600081816105440152818161058d0152818161074001528181610780015261081301526118436000f3fe6080604052600436106101145760003560e01c80636f53b5b5116100a0578063b35659c611610064578063b35659c61461041d578063c17b3e641461043d578063c4d66de814610473578063f0183b5a14610493578063f2fde38b1461051a57600080fd5b80636f53b5b514610316578063715018a61461033657806376e507fc1461034b578063772d139b146103d25780638da5cb5b146103ff57600080fd5b80634f40436e116100e75780634f40436e1461024757806351530ff21461028257806352d1902d146102b45780635fc01851146102c95780636f311494146102f657600080fd5b806310bb978f146101195780633659cfe6146101f2578063438af01e146102145780634f1ef28614610234575b600080fd5b34801561012557600080fd5b506101ad61013436600461147b565b60408051608081018252600080825260208201819052918101829052606081019190915250600091825260cc602090815260408084209284529181529181902081516080810183528154815260018201546001600160a01b03169381019390935260028101549183019190915260030154606082015290565b6040516101e99190815181526020808301516001600160a01b031690820152604080830151908201526060918201519181019190915260800190565b60405180910390f35b3480156101fe57600080fd5b5061021261020d3660046114b9565b61053a565b005b34801561022057600080fd5b5061021261022f36600461147b565b610622565b6102126102423660046114ea565b610736565b34801561025357600080fd5b506102746102623660046115ac565b600090815260d0602052604090205490565b6040519081526020016101e9565b34801561028e57600080fd5b5060c9546001600160a01b03165b6040516001600160a01b0390911681526020016101e9565b3480156102c057600080fd5b50610274610806565b3480156102d557600080fd5b506102746102e43660046115ac565b600090815260ce602052604090205490565b34801561030257600080fd5b506102126103113660046115c5565b6108b9565b34801561032257600080fd5b5061021261033136600461147b565b6109b5565b34801561034257600080fd5b50610212610bbe565b34801561035757600080fd5b506101ad6103663660046115ac565b604080516080808201835260008083526020808401829052838501829052606093840182905294815260cd8552839020835191820184528054825260018101546001600160a01b0316948201949094526002840154928101929092526003909201549181019190915290565b3480156103de57600080fd5b506103f26103ed3660046115ac565b610bd2565b6040516101e991906115f1565b34801561040b57600080fd5b506097546001600160a01b031661029c565b34801561042957600080fd5b5061021261043836600461147b565b610c34565b34801561044957600080fd5b5061029c6104583660046115ac565b600090815260ca60205260409020546001600160a01b031690565b34801561047f57600080fd5b5061021261048e3660046114b9565b610daa565b34801561049f57600080fd5b506101ad6104ae3660046115ac565b604080516080808201835260008083526020808401829052838501829052606093840182905294815260cf8552839020835191820184528054825260018101546001600160a01b0316948201949094526002840154928101929092526003909201549181019190915290565b34801561052657600080fd5b506102126105353660046114b9565b610f05565b6001600160a01b037f000000000000000000000000000000000000000000000000000000000000000016300361058b5760405162461bcd60e51b815260040161058290611635565b60405180910390fd5b7f00000000000000000000000000000000000000000000000000000000000000006001600160a01b03166105d46000805160206117c7833981519152546001600160a01b031690565b6001600160a01b0316146105fa5760405162461bcd60e51b815260040161058290611681565b61060381610f7b565b6040805160008082526020820190925261061f91839190610f83565b50565b600082815260ca60205260409020546001600160a01b031633146106595760405163024c2bc360e21b815260040160405180910390fd5b600082815260d0602052604090205481900361068857604051633e5f985d60e11b815260040160405180910390fd5b60408051608081018252838152336020808301828152428486018181526060860188815260008a815260cf86528881209751885593516001880180546001600160a01b0319166001600160a01b03909216919091179055905160028701555160039095019490945560d082528490208590559251828152919284928692917f4dd627dd78d91ca2ae707e1a106e98cef6ac72b628c7d0929f996fb0e3301e1f910160405180910390a4505050565b6001600160a01b037f000000000000000000000000000000000000000000000000000000000000000016300361077e5760405162461bcd60e51b815260040161058290611635565b7f00000000000000000000000000000000000000000000000000000000000000006001600160a01b03166107c76000805160206117c7833981519152546001600160a01b031690565b6001600160a01b0316146107ed5760405162461bcd60e51b815260040161058290611681565b6107f682610f7b565b61080282826001610f83565b5050565b6000306001600160a01b037f000000000000000000000000000000000000000000000000000000000000000016146108a65760405162461bcd60e51b815260206004820152603860248201527f555550535570677261646561626c653a206d757374206e6f742062652063616c60448201527f6c6564207468726f7567682064656c656761746563616c6c00000000000000006064820152608401610582565b506000805160206117c783398151915290565b60c954604051630239eb7560e51b81526004810184905233602482015283916001600160a01b03169063473d6ea090604401602060405180830381865afa158015610908573d6000803e3d6000fd5b505050506040513d601f19601f8201168201806040525081019061092c91906116cd565b151560000361094e576040516322a74c9760e01b815260040160405180910390fd5b600083815260ca602090815260409182902080546001600160a01b0319166001600160a01b0386169081179091559151918252849133917f1201330ce951c96655d8b534cadd6efa62d0b8aeb635924b0e258b7b7d521d54910160405180910390a3505050565b60c954604051630239eb7560e51b81526004810184905233602482015283916001600160a01b03169063473d6ea090604401602060405180830381865afa158015610a04573d6000803e3d6000fd5b505050506040513d601f19601f82011682018060405250810190610a2891906116cd565b1515600003610a4a576040516322a74c9760e01b815260040160405180910390fd5b60c954604051630239eb7560e51b8152600481018590523360248201526001600160a01b039091169063473d6ea090604401602060405180830381865afa158015610a99573d6000803e3d6000fd5b505050506040513d601f19601f82011682018060405250810190610abd91906116cd565b1515600003610adf576040516322a74c9760e01b815260040160405180910390fd5b600083815260ce6020526040902054829003610b0e5760405163676d8be560e01b815260040160405180910390fd5b60408051608081018252848152336020808301828152428486018181526060860189815260008b815260cd86528881209751885593516001880180546001600160a01b0319166001600160a01b03909216919091179055905160028701555160039095019490945560ce82528490208690559251828152919285928792917f5661f5856501c9a0dc08389b319469b607c73ffb4d66b0c80e0d395b11d6fe6591015b60405180910390a450505050565b610bc66110f3565b610bd0600061114d565b565b600081815260cb6020908152604091829020805483518184028101840190945280845260609392830182828015610c2857602002820191906000526020600020905b815481526020019060010190808311610c14575b50505050509050919050565b60c954604051630239eb7560e51b81526004810184905233602482015283916001600160a01b03169063473d6ea090604401602060405180830381865afa158015610c83573d6000803e3d6000fd5b505050506040513d601f19601f82011682018060405250810190610ca791906116cd565b1515600003610cc9576040516322a74c9760e01b815260040160405180910390fd5b81610ce757604051638995003d60e01b815260040160405180910390fd5b60408051608081018252848152336020808301828152428486018181526060860189815260008b815260cc86528881208b82528652888120975188559351600180890180546001600160a01b0319166001600160a01b0390931692909217909155915160028801555160039096019590955588825260cb8352858220805495860181558252908290209093018690559251828152919285928792917f23d3321fe7b76d0f573ecfff0f228f3975e432260fd48557914d019b9689b03e9101610bb0565b600054610100900460ff1615808015610dca5750600054600160ff909116105b80610de45750303b158015610de4575060005460ff166001145b610e475760405162461bcd60e51b815260206004820152602e60248201527f496e697469616c697a61626c653a20636f6e747261637420697320616c72656160448201526d191e481a5b9a5d1a585b1a5e995960921b6064820152608401610582565b6000805460ff191660011790558015610e6a576000805461ff0019166101001790555b6001600160a01b038216610e91576040516374e31e3760e01b815260040160405180910390fd5b610e9961119f565b610ea16111ce565b60c980546001600160a01b0319166001600160a01b0384161790558015610802576000805461ff0019169055604051600181527f7f26b83ff96e1f2b6a682f133852f6798a09c465da95921460cefb38474024989060200160405180910390a15050565b610f0d6110f3565b6001600160a01b038116610f725760405162461bcd60e51b815260206004820152602660248201527f4f776e61626c653a206e6577206f776e657220697320746865207a65726f206160448201526564647265737360d01b6064820152608401610582565b61061f8161114d565b61061f6110f3565b7f4910fdfa16fed3260ed0e7147f7cc6da11a60208b5b9406d12a635614ffd91435460ff1615610fbb57610fb6836111f5565b505050565b826001600160a01b03166352d1902d6040518163ffffffff1660e01b8152600401602060405180830381865afa925050508015611015575060408051601f3d908101601f19168201909252611012918101906116ef565b60015b6110785760405162461bcd60e51b815260206004820152602e60248201527f45524331393637557067726164653a206e657720696d706c656d656e7461746960448201526d6f6e206973206e6f74205555505360901b6064820152608401610582565b6000805160206117c783398151915281146110e75760405162461bcd60e51b815260206004820152602960248201527f45524331393637557067726164653a20756e737570706f727465642070726f786044820152681a58589b195555525160ba1b6064820152608401610582565b50610fb6838383611291565b6097546001600160a01b03163314610bd05760405162461bcd60e51b815260206004820181905260248201527f4f776e61626c653a2063616c6c6572206973206e6f7420746865206f776e65726044820152606401610582565b609780546001600160a01b038381166001600160a01b0319831681179093556040519116919082907f8be0079c531659141344cd1fd0a4f28419497f9722a3daafe3b4186f6b6457e090600090a35050565b600054610100900460ff166111c65760405162461bcd60e51b815260040161058290611708565b610bd06112bc565b600054610100900460ff16610bd05760405162461bcd60e51b815260040161058290611708565b6001600160a01b0381163b6112625760405162461bcd60e51b815260206004820152602d60248201527f455243313936373a206e657720696d706c656d656e746174696f6e206973206e60448201526c1bdd08184818dbdb9d1c9858dd609a1b6064820152608401610582565b6000805160206117c783398151915280546001600160a01b0319166001600160a01b0392909216919091179055565b61129a836112ec565b6000825111806112a75750805b15610fb6576112b6838361132c565b50505050565b600054610100900460ff166112e35760405162461bcd60e51b815260040161058290611708565b610bd03361114d565b6112f5816111f5565b6040516001600160a01b038216907fbc7cd75a20ee27fd9adebab32041f755214dbc6bffa90cc0225b39da2e5c2d3b90600090a250565b606061135183836040518060600160405280602781526020016117e760279139611358565b9392505050565b6060600080856001600160a01b0316856040516113759190611777565b600060405180830381855af49150503d80600081146113b0576040519150601f19603f3d011682016040523d82523d6000602084013e6113b5565b606091505b50915091506113c6868383876113d0565b9695505050505050565b6060831561143f578251600003611438576001600160a01b0385163b6114385760405162461bcd60e51b815260206004820152601d60248201527f416464726573733a2063616c6c20746f206e6f6e2d636f6e74726163740000006044820152606401610582565b5081611449565b6114498383611451565b949350505050565b8151156114615781518083602001fd5b8060405162461bcd60e51b81526004016105829190611793565b6000806040838503121561148e57600080fd5b50508035926020909101359150565b80356001600160a01b03811681146114b457600080fd5b919050565b6000602082840312156114cb57600080fd5b6113518261149d565b634e487b7160e01b600052604160045260246000fd5b600080604083850312156114fd57600080fd5b6115068361149d565b9150602083013567ffffffffffffffff8082111561152357600080fd5b818501915085601f83011261153757600080fd5b813581811115611549576115496114d4565b604051601f8201601f19908116603f01168101908382118183101715611571576115716114d4565b8160405282815288602084870101111561158a57600080fd5b8260208601602083013760006020848301015280955050505050509250929050565b6000602082840312156115be57600080fd5b5035919050565b600080604083850312156115d857600080fd5b823591506115e86020840161149d565b90509250929050565b6020808252825182820181905260009190848201906040850190845b818110156116295783518352928401929184019160010161160d565b50909695505050505050565b6020808252602c908201527f46756e6374696f6e206d7573742062652063616c6c6564207468726f7567682060408201526b19195b1959d85d1958d85b1b60a21b606082015260800190565b6020808252602c908201527f46756e6374696f6e206d7573742062652063616c6c6564207468726f7567682060408201526b6163746976652070726f787960a01b606082015260800190565b6000602082840312156116df57600080fd5b8151801515811461135157600080fd5b60006020828403121561170157600080fd5b5051919050565b6020808252602b908201527f496e697469616c697a61626c653a20636f6e7472616374206973206e6f74206960408201526a6e697469616c697a696e6760a81b606082015260800190565b60005b8381101561176e578181015183820152602001611756565b50506000910152565b60008251611789818460208701611753565b9190910192915050565b60208152600082518060208401526117b2816040850160208701611753565b601f01601f1916919091016040019291505056fe360894a13ba1a3210667c828492db98dca3e2076cc3735a920a3ca505d382bbc416464726573733a206c6f772d6c6576656c2064656c65676174652063616c6c206661696c6564a26469706673582212201e4cb95c8d5bb5feaceaeb4d8768add682bfc2dbeeb09cfd719a4441249fdbd664736f6c63430008130033",
    "linkReferences": {}
  },
  "methodIdentifiers": {
    "addDocument(uint256,bytes32)": "b35659c6",
    "addExternalAudit(uint256,bytes32)": "438af01e",
    "addInternalAudit(uint256,bytes32)": "6f53b5b5",
    "getAssetController()": "51530ff2",
    "getAssetDocument(uint256,bytes32)": "10bb978f",
    "getAssetDocumentIds(uint256)": "772d139b",
    "getExternalAudit(uint256)": "f0183b5a",
    "getExternalAuditId(uint256)": "4f40436e",
    "getExternalAuditorAddress(uint256)": "c17b3e64",
    "getInternalAudit(uint256)": "76e507fc",
    "getInternalAuditId(uint256)": "5fc01851",
    "initialize(address)": "c4d66de8",
    "owner()": "8da5cb5b",
    "proxiableUUID()": "52d1902d",
    "renounceOwnership()": "715018a6",
    "setExternalAuditor(uint256,address)": "6f311494",
    "transferOwnership(address)": "f2fde38b",
    "upgradeTo(address)": "3659cfe6",
    "upgradeToAndCall(address,bytes)": "4f1ef286"
  },
  "id": 48
}