{
  "abi": [
    {
      "inputs": [
        {
          "internalType": "uint256",
          "name": "contentId",
          "type": "uint256"
        },
        {
          "internalType": "uint256",
          "name": "currentAmount",
          "type": "uint256"
        },
        {
          "internalType": "uint256",
          "name": "reduceAmount",
          "type": "uint256"
        }
      ],
      "name": "AssetController__AmountGreaterThanStoredAmount",
      "type": "error"
    },
    {
      "inputs": [],
      "name": "AssetController__CannotConsumeToZeroAssetBalance",
      "type": "error"
    },
    {
      "inputs": [
        {
          "internalType": "uint256",
          "name": "assetIdsLength",
          "type": "uint256"
        },
        {
          "internalType": "uint256",
          "name": "amountsLength",
          "type": "uint256"
        }
      ],
      "name": "AssetController__ContentIdsAmountsMismatch",
      "type": "error"
    },
    {
      "inputs": [],
      "name": "AssetController__ExceededMaxContentPerTransaction",
      "type": "error"
    },
    {
      "inputs": [],
      "name": "AssetController__ExceedsMaxAllowedContentIdPerTransaction",
      "type": "error"
    },
    {
      "inputs": [],
      "name": "AssetController__InputContentIdsExceedsStoredContentCount",
      "type": "error"
    },
    {
      "inputs": [
        {
          "internalType": "address",
          "name": "sender",
          "type": "address"
        },
        {
          "internalType": "uint256",
          "name": "assetId",
          "type": "uint256"
        }
      ],
      "name": "AssetController__InsufficientAssetBalance",
      "type": "error"
    },
    {
      "inputs": [
        {
          "internalType": "uint256",
          "name": "contentId",
          "type": "uint256"
        }
      ],
      "name": "AssetController__NotAssetContent",
      "type": "error"
    },
    {
      "inputs": [],
      "name": "AssetController__NotAssetOwner",
      "type": "error"
    },
    {
      "inputs": [
        {
          "internalType": "uint256",
          "name": "assetId",
          "type": "uint256"
        }
      ],
      "name": "AssetController__UnknownAsset",
      "type": "error"
    },
    {
      "inputs": [],
      "name": "AssetController__ZeroAddress",
      "type": "error"
    },
    {
      "inputs": [],
      "name": "AssetController__ZeroAmount",
      "type": "error"
    },
    {
      "inputs": [],
      "name": "AssetController__ZeroByes32",
      "type": "error"
    },
    {
      "inputs": [
        {
          "internalType": "uint256",
          "name": "contentId",
          "type": "uint256"
        }
      ],
      "name": "AssetController__ZeroContentAmount",
      "type": "error"
    },
    {
      "anonymous": false,
      "inputs": [
        {
          "indexed": false,
          "internalType": "address",
          "name": "previousAdmin",
          "type": "address"
        },
        {
          "indexed": false,
          "internalType": "address",
          "name": "newAdmin",
          "type": "address"
        }
      ],
      "name": "AdminChanged",
      "type": "event"
    },
    {
      "anonymous": false,
      "inputs": [
        {
          "indexed": true,
          "internalType": "address",
          "name": "from",
          "type": "address"
        },
        {
          "indexed": true,
          "internalType": "address",
          "name": "to",
          "type": "address"
        },
        {
          "indexed": false,
          "internalType": "uint256[]",
          "name": "assetIds",
          "type": "uint256[]"
        },
        {
          "indexed": false,
          "internalType": "uint256[]",
          "name": "amounts",
          "type": "uint256[]"
        }
      ],
      "name": "BatchTransfer",
      "type": "event"
    },
    {
      "anonymous": false,
      "inputs": [
        {
          "indexed": true,
          "internalType": "address",
          "name": "beacon",
          "type": "address"
        }
      ],
      "name": "BeaconUpgraded",
      "type": "event"
    },
    {
      "anonymous": false,
      "inputs": [
        {
          "indexed": true,
          "internalType": "address",
          "name": "sender",
          "type": "address"
        },
        {
          "indexed": true,
          "internalType": "uint256",
          "name": "assetId",
          "type": "uint256"
        },
        {
          "indexed": false,
          "internalType": "uint256[]",
          "name": "contentIds",
          "type": "uint256[]"
        },
        {
          "indexed": false,
          "internalType": "uint256[]",
          "name": "amounts",
          "type": "uint256[]"
        }
      ],
      "name": "Consume",
      "type": "event"
    },
    {
      "anonymous": false,
      "inputs": [
        {
          "indexed": false,
          "internalType": "uint8",
          "name": "version",
          "type": "uint8"
        }
      ],
      "name": "Initialized",
      "type": "event"
    },
    {
      "anonymous": false,
      "inputs": [
        {
          "indexed": true,
          "internalType": "address",
          "name": "sender",
          "type": "address"
        },
        {
          "indexed": true,
          "internalType": "uint256",
          "name": "assetId",
          "type": "uint256"
        },
        {
          "indexed": false,
          "internalType": "uint256",
          "name": "amount",
          "type": "uint256"
        },
        {
          "indexed": false,
          "internalType": "uint256[]",
          "name": "contentIds",
          "type": "uint256[]"
        },
        {
          "indexed": false,
          "internalType": "uint256[]",
          "name": "amounts",
          "type": "uint256[]"
        }
      ],
      "name": "Mint",
      "type": "event"
    },
    {
      "anonymous": false,
      "inputs": [
        {
          "indexed": true,
          "internalType": "address",
          "name": "previousOwner",
          "type": "address"
        },
        {
          "indexed": true,
          "internalType": "address",
          "name": "newOwner",
          "type": "address"
        }
      ],
      "name": "OwnershipTransferred",
      "type": "event"
    },
    {
      "anonymous": false,
      "inputs": [
        {
          "indexed": true,
          "internalType": "address",
          "name": "from",
          "type": "address"
        },
        {
          "indexed": true,
          "internalType": "address",
          "name": "to",
          "type": "address"
        },
        {
          "indexed": true,
          "internalType": "uint256",
          "name": "assetId",
          "type": "uint256"
        },
        {
          "indexed": false,
          "internalType": "uint256",
          "name": "amount",
          "type": "uint256"
        }
      ],
      "name": "Transfer",
      "type": "event"
    },
    {
      "anonymous": false,
      "inputs": [
        {
          "indexed": true,
          "internalType": "address",
          "name": "implementation",
          "type": "address"
        }
      ],
      "name": "Upgraded",
      "type": "event"
    },
    {
      "inputs": [],
      "name": "assetCount",
      "outputs": [
        {
          "internalType": "uint256",
          "name": "",
          "type": "uint256"
        }
      ],
      "stateMutability": "view",
      "type": "function"
    },
    {
      "inputs": [
        {
          "internalType": "uint256",
          "name": "assetId",
          "type": "uint256"
        }
      ],
      "name": "assetExists",
      "outputs": [
        {
          "internalType": "bool",
          "name": "",
          "type": "bool"
        }
      ],
      "stateMutability": "view",
      "type": "function"
    },
    {
      "inputs": [],
      "name": "assets",
      "outputs": [
        {
          "internalType": "address",
          "name": "",
          "type": "address"
        }
      ],
      "stateMutability": "view",
      "type": "function"
    },
    {
      "inputs": [
        {
          "internalType": "address",
          "name": "to",
          "type": "address"
        },
        {
          "internalType": "uint256[]",
          "name": "assetIds",
          "type": "uint256[]"
        },
        {
          "internalType": "uint256[]",
          "name": "amounts",
          "type": "uint256[]"
        },
        {
          "internalType": "bytes",
          "name": "data",
          "type": "bytes"
        }
      ],
      "name": "batchTransferFrom",
      "outputs": [],
      "stateMutability": "nonpayable",
      "type": "function"
    },
    {
      "inputs": [
        {
          "internalType": "uint256",
          "name": "assetId",
          "type": "uint256"
        },
        {
          "internalType": "uint256[]",
          "name": "contentIds",
          "type": "uint256[]"
        },
        {
          "internalType": "uint256[]",
          "name": "amounts",
          "type": "uint256[]"
        },
        {
          "internalType": "bytes",
          "name": "data",
          "type": "bytes"
        }
      ],
      "name": "consume",
      "outputs": [],
      "stateMutability": "nonpayable",
      "type": "function"
    },
    {
      "inputs": [
        {
          "internalType": "uint256",
          "name": "assetId",
          "type": "uint256"
        }
      ],
      "name": "getAssetContent",
      "outputs": [
        {
          "internalType": "uint256[]",
          "name": "",
          "type": "uint256[]"
        }
      ],
      "stateMutability": "view",
      "type": "function"
    },
    {
      "inputs": [
        {
          "internalType": "uint256",
          "name": "assetId",
          "type": "uint256"
        },
        {
          "internalType": "uint256",
          "name": "contentId",
          "type": "uint256"
        }
      ],
      "name": "getAssetContentAmount",
      "outputs": [
        {
          "internalType": "uint256",
          "name": "",
          "type": "uint256"
        }
      ],
      "stateMutability": "view",
      "type": "function"
    },
    {
      "inputs": [
        {
          "internalType": "uint256",
          "name": "assetId",
          "type": "uint256"
        },
        {
          "internalType": "uint256",
          "name": "contentId",
          "type": "uint256"
        }
      ],
      "name": "getAssetContentIndex",
      "outputs": [
        {
          "internalType": "uint256",
          "name": "index",
          "type": "uint256"
        }
      ],
      "stateMutability": "view",
      "type": "function"
    },
    {
      "inputs": [
        {
          "internalType": "uint256",
          "name": "assetId",
          "type": "uint256"
        },
        {
          "internalType": "uint256",
          "name": "contentId",
          "type": "uint256"
        }
      ],
      "name": "getAssetContentIndexWithRevert",
      "outputs": [
        {
          "internalType": "uint256",
          "name": "index",
          "type": "uint256"
        }
      ],
      "stateMutability": "view",
      "type": "function"
    },
    {
      "inputs": [
        {
          "internalType": "uint256",
          "name": "assetId",
          "type": "uint256"
        }
      ],
      "name": "getAssetExternalContentRef",
      "outputs": [
        {
          "internalType": "bytes32",
          "name": "",
          "type": "bytes32"
        }
      ],
      "stateMutability": "view",
      "type": "function"
    },
    {
      "inputs": [
        {
          "internalType": "uint256",
          "name": "assetId",
          "type": "uint256"
        }
      ],
      "name": "getContentCount",
      "outputs": [
        {
          "internalType": "uint256",
          "name": "",
          "type": "uint256"
        }
      ],
      "stateMutability": "view",
      "type": "function"
    },
    {
      "inputs": [
        {
          "internalType": "uint256",
          "name": "assetId",
          "type": "uint256"
        }
      ],
      "name": "getContentLength",
      "outputs": [
        {
          "internalType": "uint256",
          "name": "",
          "type": "uint256"
        }
      ],
      "stateMutability": "view",
      "type": "function"
    },
    {
      "inputs": [
        {
          "internalType": "address",
          "name": "assetToken",
          "type": "address"
        },
        {
          "internalType": "uint256",
          "name": "_maxContentPerTransaction",
          "type": "uint256"
        }
      ],
      "name": "initialize",
      "outputs": [],
      "stateMutability": "nonpayable",
      "type": "function"
    },
    {
      "inputs": [
        {
          "internalType": "uint256",
          "name": "assetId",
          "type": "uint256"
        },
        {
          "internalType": "address",
          "name": "account",
          "type": "address"
        }
      ],
      "name": "isAssetOwner",
      "outputs": [
        {
          "internalType": "bool",
          "name": "",
          "type": "bool"
        }
      ],
      "stateMutability": "view",
      "type": "function"
    },
    {
      "inputs": [],
      "name": "maxContentPerTransaction",
      "outputs": [
        {
          "internalType": "uint256",
          "name": "",
          "type": "uint256"
        }
      ],
      "stateMutability": "view",
      "type": "function"
    },
    {
      "inputs": [
        {
          "internalType": "uint256",
          "name": "amount",
          "type": "uint256"
        },
        {
          "internalType": "bytes32",
          "name": "name",
          "type": "bytes32"
        },
        {
          "internalType": "bytes32",
          "name": "symbol",
          "type": "bytes32"
        },
        {
          "internalType": "uint256[]",
          "name": "contentIds",
          "type": "uint256[]"
        },
        {
          "internalType": "uint256[]",
          "name": "amounts",
          "type": "uint256[]"
        },
        {
          "internalType": "bytes32",
          "name": "externalContentRef",
          "type": "bytes32"
        },
        {
          "internalType": "bytes",
          "name": "data",
          "type": "bytes"
        }
      ],
      "name": "mint",
      "outputs": [],
      "stateMutability": "nonpayable",
      "type": "function"
    },
    {
      "inputs": [
        {
          "internalType": "address",
          "name": "",
          "type": "address"
        },
        {
          "internalType": "address",
          "name": "",
          "type": "address"
        },
        {
          "internalType": "uint256[]",
          "name": "",
          "type": "uint256[]"
        },
        {
          "internalType": "uint256[]",
          "name": "",
          "type": "uint256[]"
        },
        {
          "internalType": "bytes",
          "name": "",
          "type": "bytes"
        }
      ],
      "name": "onERC1155BatchReceived",
      "outputs": [
        {
          "internalType": "bytes4",
          "name": "",
          "type": "bytes4"
        }
      ],
      "stateMutability": "pure",
      "type": "function"
    },
    {
      "inputs": [
        {
          "internalType": "address",
          "name": "",
          "type": "address"
        },
        {
          "internalType": "address",
          "name": "",
          "type": "address"
        },
        {
          "internalType": "uint256",
          "name": "",
          "type": "uint256"
        },
        {
          "internalType": "uint256",
          "name": "",
          "type": "uint256"
        },
        {
          "internalType": "bytes",
          "name": "",
          "type": "bytes"
        }
      ],
      "name": "onERC1155Received",
      "outputs": [
        {
          "internalType": "bytes4",
          "name": "",
          "type": "bytes4"
        }
      ],
      "stateMutability": "pure",
      "type": "function"
    },
    {
      "inputs": [],
      "name": "owner",
      "outputs": [
        {
          "internalType": "address",
          "name": "",
          "type": "address"
        }
      ],
      "stateMutability": "view",
      "type": "function"
    },
    {
      "inputs": [],
      "name": "proxiableUUID",
      "outputs": [
        {
          "internalType": "bytes32",
          "name": "",
          "type": "bytes32"
        }
      ],
      "stateMutability": "view",
      "type": "function"
    },
    {
      "inputs": [
        {
          "internalType": "uint256",
          "name": "assetId",
          "type": "uint256"
        },
        {
          "internalType": "uint256[]",
          "name": "contentIds",
          "type": "uint256[]"
        },
        {
          "internalType": "uint256[]",
          "name": "amounts",
          "type": "uint256[]"
        },
        {
          "internalType": "bytes",
          "name": "data",
          "type": "bytes"
        }
      ],
      "name": "reduceContentAmounts",
      "outputs": [],
      "stateMutability": "nonpayable",
      "type": "function"
    },
    {
      "inputs": [],
      "name": "renounceOwnership",
      "outputs": [],
      "stateMutability": "nonpayable",
      "type": "function"
    },
    {
      "inputs": [
        {
          "internalType": "uint256",
          "name": "assetId",
          "type": "uint256"
        },
        {
          "internalType": "bytes32",
          "name": "_externalContentRef",
          "type": "bytes32"
        }
      ],
      "name": "setAssetExternalContentRef",
      "outputs": [],
      "stateMutability": "nonpayable",
      "type": "function"
    },
    {
      "inputs": [
        {
          "internalType": "uint256",
          "name": "_value",
          "type": "uint256"
        }
      ],
      "name": "setMaxContentPerTransaction",
      "outputs": [],
      "stateMutability": "nonpayable",
      "type": "function"
    },
    {
      "inputs": [
        {
          "internalType": "bytes4",
          "name": "interfaceId",
          "type": "bytes4"
        }
      ],
      "name": "supportsInterface",
      "outputs": [
        {
          "internalType": "bool",
          "name": "",
          "type": "bool"
        }
      ],
      "stateMutability": "pure",
      "type": "function"
    },
    {
      "inputs": [
        {
          "internalType": "address",
          "name": "to",
          "type": "address"
        },
        {
          "internalType": "uint256",
          "name": "id",
          "type": "uint256"
        },
        {
          "internalType": "uint256",
          "name": "amount",
          "type": "uint256"
        },
        {
          "internalType": "bytes",
          "name": "data",
          "type": "bytes"
        }
      ],
      "name": "transfer",
      "outputs": [],
      "stateMutability": "nonpayable",
      "type": "function"
    },
    {
      "inputs": [
        {
          "internalType": "address",
          "name": "newOwner",
          "type": "address"
        }
      ],
      "name": "transferOwnership",
      "outputs": [],
      "stateMutability": "nonpayable",
      "type": "function"
    },
    {
      "inputs": [
        {
          "internalType": "address",
          "name": "newImplementation",
          "type": "address"
        }
      ],
      "name": "upgradeTo",
      "outputs": [],
      "stateMutability": "nonpayable",
      "type": "function"
    },
    {
      "inputs": [
        {
          "internalType": "address",
          "name": "newImplementation",
          "type": "address"
        },
        {
          "internalType": "bytes",
          "name": "data",
          "type": "bytes"
        }
      ],
      "name": "upgradeToAndCall",
      "outputs": [],
      "stateMutability": "payable",
      "type": "function"
    }
  ],
  "bytecode": {
    "object": "0x60a06040523060805234801561001457600080fd5b50608051612afb61004c6000396000818161068f015281816106cf0152818161078d015281816107cd01526108d40152612afb6000f3fe6080604052600436106101c25760003560e01c8063715018a6116100f7578063c5290d2811610095578063eafe7a7411610064578063eafe7a741461053f578063efec6a0914610554578063f23a6e6114610574578063f2fde38b146105a157600080fd5b8063c5290d28146104ca578063cd6dc687146104ea578063dabd76e91461050a578063e209f30a1461052a57600080fd5b80638da5cb5b116100d15780638da5cb5b1461042457806396e7e67f1461044257806398ddcd2e14610462578063bc197c811461048257600080fd5b8063715018a6146103bd578063719d98af146103d257806371a97305146103f257600080fd5b80634f1ef2861161016457806352d1902d1161013e57806352d1902d1461034857806357ac4b541461035d5780635e6d43ef1461037d5780636896893b1461039d57600080fd5b80634f1ef286146102f5578063518e2bdd1461030857806351a5ec341461032857600080fd5b80633659cfe6116101a05780633659cfe61461024c578063390027b31461026c57806341a9c13c14610299578063473d6ea0146102b957600080fd5b806301ffc9a7146101c75780631f54a327146101fc5780632e1e8d811461022a575b600080fd5b3480156101d357600080fd5b506101e76101e2366004612046565b6105c1565b60405190151581526020015b60405180910390f35b34801561020857600080fd5b5061021c610217366004612070565b6105f8565b6040519081526020016101f3565b34801561023657600080fd5b5061024a610245366004612089565b61060c565b005b34801561025857600080fd5b5061024a6102673660046120c7565b610685565b34801561027857600080fd5b5061028c610287366004612070565b610764565b6040516101f3919061211d565b3480156102a557600080fd5b5061021c6102b4366004612070565b61076f565b3480156102c557600080fd5b506101e76102d4366004612130565b600091825260676020526040909120546001600160a01b0390811691161490565b61024a610303366004612213565b610783565b34801561031457600080fd5b506101e7610323366004612070565b610853565b34801561033457600080fd5b5061021c610343366004612089565b610872565b34801561035457600080fd5b5061021c6108c7565b34801561036957600080fd5b5061021c610378366004612070565b61097a565b34801561038957600080fd5b5061021c610398366004612089565b61098e565b3480156103a957600080fd5b5061024a6103b83660046122e1565b6109b0565b3480156103c957600080fd5b5061024a610b78565b3480156103de57600080fd5b5061024a6103ed366004612070565b610b8c565b3480156103fe57600080fd5b506066546001600160a01b03165b6040516001600160a01b0390911681526020016101f3565b34801561043057600080fd5b506033546001600160a01b031661040c565b34801561044e57600080fd5b5061024a61045d36600461237a565b610b99565b34801561046e57600080fd5b5061024a61047d3660046123af565b610be2565b34801561048e57600080fd5b506104b161049d3660046124ec565b63bc197c8160e01b98975050505050505050565b6040516001600160e01b031990911681526020016101f3565b3480156104d657600080fd5b5061021c6104e5366004612089565b610db2565b3480156104f657600080fd5b5061024a6105053660046125a7565b610dd1565b34801561051657600080fd5b5061024a6105253660046125d1565b610ead565b34801561053657600080fd5b5060655461021c565b34801561054b57600080fd5b5060d15461021c565b34801561056057600080fd5b5061024a61056f36600461237a565b611097565b34801561058057600080fd5b506104b161058f366004612626565b63f23a6e6160e01b9695505050505050565b3480156105ad57600080fd5b5061024a6105bc3660046120c7565b61116b565b6000630271189760e51b6001600160e01b0319831614806105f25750633f95e5b160e21b6001600160e01b03198316145b92915050565b6000818152606b60205260408120546105f2565b6106146111e1565b6000828152606760205260408120546001600160a01b03161515900361065557604051633e0f67c760e21b8152600481018390526024015b60405180910390fd5b806106735760405163310a283b60e21b815260040160405180910390fd5b6000918252606c602052604090912055565b6001600160a01b037f00000000000000000000000000000000000000000000000000000000000000001630036106cd5760405162461bcd60e51b815260040161064c9061269e565b7f00000000000000000000000000000000000000000000000000000000000000006001600160a01b0316610716600080516020612a7f833981519152546001600160a01b031690565b6001600160a01b03161461073c5760405162461bcd60e51b815260040161064c906126ea565b6107458161123b565b6040805160008082526020820190925261076191839190611243565b50565b60606105f2826113ae565b6000818152606860205260408120546105f2565b6001600160a01b037f00000000000000000000000000000000000000000000000000000000000000001630036107cb5760405162461bcd60e51b815260040161064c9061269e565b7f00000000000000000000000000000000000000000000000000000000000000006001600160a01b0316610814600080516020612a7f833981519152546001600160a01b031690565b6001600160a01b03161461083a5760405162461bcd60e51b815260040161064c906126ea565b6108438261123b565b61084f82826001611243565b5050565b6000818152606760205260408120546001600160a01b031615156105f2565b6000828152606a60209081526040808320848452825280832054858452606b909252909120546108a49060019061274c565b8111156105f25760405163731bac9560e01b81526004810183905260240161064c565b6000306001600160a01b037f000000000000000000000000000000000000000000000000000000000000000016146109675760405162461bcd60e51b815260206004820152603860248201527f555550535570677261646561626c653a206d757374206e6f742062652063616c60448201527f6c6564207468726f7567682064656c656761746563616c6c0000000000000000606482015260840161064c565b50600080516020612a7f83398151915290565b6000818152606c60205260408120546105f2565b60008281526069602090815260408083208484529091528120545b9392505050565b6001600160a01b0384166109d75760405163fef5855160e01b815260040160405180910390fd5b60665460405163e985e9c560e01b81523060048201526001600160a01b0386811660248301529091169063e985e9c590604401602060405180830381865afa158015610a27573d6000803e3d6000fd5b505050506040513d601f19601f82011682018060405250810190610a4b919061275f565b1515600003610abb5760665460405163a22cb46560e01b81526001600160a01b038681166004830152600160248301529091169063a22cb46590604401600060405180830381600087803b158015610aa257600080fd5b505af1158015610ab6573d6000803e3d6000fd5b505050505b606654604051631759616b60e11b81526001600160a01b0390911690632eb2c2d690610af390339088908890889088906004016127d1565b600060405180830381600087803b158015610b0d57600080fd5b505af1158015610b21573d6000803e3d6000fd5b50505050836001600160a01b0316336001600160a01b03167ff59807b2c31ca3ba212e90599175c120c556422950bac5be656274483e8581df8585604051610b6a92919061282f565b60405180910390a350505050565b610b806111e1565b610b8a6000611410565b565b610b946111e1565b606555565b6000848152606760205260409020546001600160a01b03163314610bd057604051636ca5b42f60e01b815260040160405180910390fd5b610bdc84848484611462565b50505050565b600060d160008154610bf39061285d565b919050819055905087600003610c1c57604051630254d74560e61b815260040160405180910390fd5b60665460405163e985e9c560e01b81523060048201523360248201526001600160a01b039091169063e985e9c590604401602060405180830381865afa158015610c6a573d6000803e3d6000fd5b505050506040513d601f19601f82011682018060405250810190610c8e919061275f565b1515600003610cfc5760665460405163a22cb46560e01b8152336004820152600160248201526001600160a01b039091169063a22cb46590604401600060405180830381600087803b158015610ce357600080fd5b505af1158015610cf7573d6000803e3d6000fd5b505050505b845115610d5457610d0f8186868561189c565b80336001600160a01b03167f23d907043bfb613c5b4c9272d437b1b1380a4e8cf34eeba2beb61d004ab6c0018787604051610d4b92919061282f565b60405180910390a35b610d62818989898787611b9d565b80336001600160a01b03167f6b0c4b2713af3edd9f47e4da670c26d023534b822bf364a9036b3a15abf5f22f8a8888604051610da093929190612876565b60405180910390a35050505050505050565b6000828152606a602090815260408083208484529091528120546109a9565b600054610100900460ff1615808015610df15750600054600160ff909116105b80610e0b5750303b158015610e0b575060005460ff166001145b610e275760405162461bcd60e51b815260040161064c906128a1565b6000805460ff191660011790558015610e4a576000805461ff0019166101001790555b610e548383611c4a565b610e5c611d2d565b600060d1558015610ea8576000805461ff0019169055604051600181527f7f26b83ff96e1f2b6a682f133852f6798a09c465da95921460cefb3847402498906020015b60405180910390a15b505050565b81600003610ece57604051630254d74560e61b815260040160405180910390fd5b6001600160a01b038416610ef55760405163fef5855160e01b815260040160405180910390fd5b60665460405163e985e9c560e01b81526001600160a01b0386811660048301523060248301529091169063e985e9c590604401602060405180830381865afa158015610f45573d6000803e3d6000fd5b505050506040513d601f19601f82011682018060405250810190610f69919061275f565b1515600003610fd95760665460405163a22cb46560e01b81526001600160a01b038681166004830152600160248301529091169063a22cb46590604401600060405180830381600087803b158015610fc057600080fd5b505af1158015610fd4573d6000803e3d6000fd5b505050505b606654604051637921219560e11b81526001600160a01b039091169063f242432a9061101190339088908890889088906004016128ef565b600060405180830381600087803b15801561102b57600080fd5b505af115801561103f573d6000803e3d6000fd5b5050505082846001600160a01b0316336001600160a01b03167f9ed053bb818ff08b8353cd46f78db1f0799f31c9e4458fdb425c10eccd2efc448560405161108991815260200190565b60405180910390a450505050565b6000848152606760205260409020546001600160a01b031633146110ce57604051636ca5b42f60e01b815260040160405180910390fd5b606654604051627eeac760e11b8152336004820152602481018690526001600160a01b039091169062fdd58e90604401602060405180830381865afa15801561111b573d6000803e3d6000fd5b505050506040513d601f19601f8201168201806040525081019061113f9190612929565b60000361115f57604051632597525760e21b815260040160405180910390fd5b610bdc8484848461189c565b6111736111e1565b6001600160a01b0381166111d85760405162461bcd60e51b815260206004820152602660248201527f4f776e61626c653a206e6577206f776e657220697320746865207a65726f206160448201526564647265737360d01b606482015260840161064c565b61076181611410565b6033546001600160a01b03163314610b8a5760405162461bcd60e51b815260206004820181905260248201527f4f776e61626c653a2063616c6c6572206973206e6f7420746865206f776e6572604482015260640161064c565b6107616111e1565b7f4910fdfa16fed3260ed0e7147f7cc6da11a60208b5b9406d12a635614ffd91435460ff161561127657610ea883611d54565b826001600160a01b03166352d1902d6040518163ffffffff1660e01b8152600401602060405180830381865afa9250505080156112d0575060408051601f3d908101601f191682019092526112cd91810190612929565b60015b6113335760405162461bcd60e51b815260206004820152602e60248201527f45524331393637557067726164653a206e657720696d706c656d656e7461746960448201526d6f6e206973206e6f74205555505360901b606482015260840161064c565b600080516020612a7f83398151915281146113a25760405162461bcd60e51b815260206004820152602960248201527f45524331393637557067726164653a20756e737570706f727465642070726f786044820152681a58589b195555525160ba1b606482015260840161064c565b50610ea8838383611df0565b60008181526068602090815260409182902080548351818402810184019094528084526060939283018282801561140457602002820191906000526020600020905b8154815260200190600101908083116113f0575b50505050509050919050565b603380546001600160a01b038381166001600160a01b0319831681179093556040519116919082907f8be0079c531659141344cd1fd0a4f28419497f9722a3daafe3b4186f6b6457e090600090a35050565b81518351146114915782518251604051633a0162cb60e21b81526004810192909252602482015260440161064c565b6000848152606b6020526040902054835111156114c157604051632218abef60e21b815260040160405180910390fd5b6000848152606b6020908152604080832054606883528184208054606990945291842090939192915b875181101561180d5786818151811061150557611505612942565b602002602001015160000361154a5787818151811061152657611526612942565b6020026020010151604051631fb4688360e21b815260040161064c91815260200190565b60008260008a848151811061156157611561612942565b60200260200101518152602001908152602001600020549050806000036115b85788828151811061159457611594612942565b602002602001015160405163731bac9560e01b815260040161064c91815260200190565b808883815181106115cb576115cb612942565b6020026020010151111561163b578882815181106115eb576115eb612942565b60200260200101518189848151811061160657611606612942565b602002602001015160405163c17d41e960e01b815260040161064c939291909283526020830191909152604082015260600190565b87828151811061164d5761164d612942565b602002602001015181611660919061274c565b9050600061166e878661274c565b611679906001612958565b611683908661274c565b9050600086828154811061169957611699612942565b90600052602060002001549050826000036117c75760008c8152606a602052604081208c5182908e90889081106116d2576116d2612942565b6020026020010151815260200190815260200160002054905082811461177a5760008d8152606a602052604081208d518592908f908990811061171757611717612942565b602002602001015181526020019081526020016000208190555080606a60008f81526020019081526020016000206000848152602001908152602001600020819055508188828154811061176d5761176d612942565b6000918252602090912001555b61178560018a61274c565b60008e81526069602052604081208e51929b50918e90889081106117ab576117ab612942565b6020026020010151815260200190815260200160002060009055505b828560008d87815181106117dd576117dd612942565b602002602001015181526020019081526020016000208190555050505080806118059061285d565b9150506114ea565b506000888152606b6020526040902084905561182a838584611e15565b60665460405163672d78c360e01b81526001600160a01b039091169063672d78c3906118609033908b908b908b9060040161296b565b600060405180830381600087803b15801561187a57600080fd5b505af115801561188e573d6000803e3d6000fd5b505050505050505050505050565b81518351146118cb5782518251604051633a0162cb60e21b81526004810192909252602482015260440161064c565b606554835111156118ef57604051637f2ceb2760e01b815260040160405180910390fd5b600084815260686020908152604080832060698352818420606a8452828520606b9094529184205490939192915b8751811015611ae65786818151811061193857611938612942565b60200260200101516000036119595787818151811061152657611526612942565b61199388828151811061196e5761196e612942565b60200260200101516000908152606760205260409020546001600160a01b0316151590565b15156000036119d2578781815181106119ae576119ae612942565b6020026020010151604051633e0f67c760e21b815260040161064c91815260200190565b8360008983815181106119e7576119e7612942565b6020026020010151815260200190815260200160002054600003611a7a57818360008a8481518110611a1b57611a1b612942565b602002602001015181526020019081526020016000208190555084888281518110611a4857611a48612942565b60209081029190910181015182546001818101855560009485529290932090920191909155611a779083612958565b91505b868181518110611a8c57611a8c612942565b60200260200101518460008a8481518110611aa957611aa9612942565b602002602001015181526020019081526020016000206000828254611ace9190612958565b90915550819050611ade8161285d565b91505061191d565b506000888152606b602052604090819020829055606654905163258c4a7d60e11b81526001600160a01b0390911690634b1894fa90611b2f9033908b908b908b9060040161296b565b600060405180830381600087803b158015611b4957600080fd5b505af1158015611b5d573d6000803e3d6000fd5b5050505087336001600160a01b03167f23d907043bfb613c5b4c9272d437b1b1380a4e8cf34eeba2beb61d004ab6c0018989604051610da092919061282f565b8115611bb5576000868152606c602052604090208290555b6000868152606760205260409081902080546001600160a01b031916339081179091556066549151633f71f90d60e21b81526001600160a01b03929092169163fdc7e43491611c10918a908a908a908a9089906004016129b5565b600060405180830381600087803b158015611c2a57600080fd5b505af1158015611c3e573d6000803e3d6000fd5b50505050505050505050565b600054610100900460ff1615808015611c6a5750600054600160ff909116105b80611c845750303b158015611c84575060005460ff166001145b611ca05760405162461bcd60e51b815260040161064c906128a1565b6000805460ff191660011790558015611cc3576000805461ff0019166101001790555b611ccb611e5f565b606680546001600160a01b0319166001600160a01b03851617905560658290558015610ea8576000805461ff0019169055604051600181527f7f26b83ff96e1f2b6a682f133852f6798a09c465da95921460cefb384740249890602001610e9f565b600054610100900460ff16610b8a5760405162461bcd60e51b815260040161064c906129ee565b6001600160a01b0381163b611dc15760405162461bcd60e51b815260206004820152602d60248201527f455243313936373a206e657720696d706c656d656e746174696f6e206973206e60448201526c1bdd08184818dbdb9d1c9858dd609a1b606482015260840161064c565b600080516020612a7f83398151915280546001600160a01b0319166001600160a01b0392909216919091179055565b611df983611e8e565b600082511180611e065750805b15610ea857610bdc8383611ece565b808214610ea857815b81811015610bdc5783805480611e3657611e36612a39565b600190038181906000526020600020016000905590558080611e579061285d565b915050611e1e565b600054610100900460ff16611e865760405162461bcd60e51b815260040161064c906129ee565b610b8a611ef3565b611e9781611d54565b6040516001600160a01b038216907fbc7cd75a20ee27fd9adebab32041f755214dbc6bffa90cc0225b39da2e5c2d3b90600090a250565b60606109a98383604051806060016040528060278152602001612a9f60279139611f23565b600054610100900460ff16611f1a5760405162461bcd60e51b815260040161064c906129ee565b610b8a33611410565b6060600080856001600160a01b031685604051611f409190612a4f565b600060405180830381855af49150503d8060008114611f7b576040519150601f19603f3d011682016040523d82523d6000602084013e611f80565b606091505b5091509150611f9186838387611f9b565b9695505050505050565b6060831561200a578251600003612003576001600160a01b0385163b6120035760405162461bcd60e51b815260206004820152601d60248201527f416464726573733a2063616c6c20746f206e6f6e2d636f6e7472616374000000604482015260640161064c565b5081612014565b612014838361201c565b949350505050565b81511561202c5781518083602001fd5b8060405162461bcd60e51b815260040161064c9190612a6b565b60006020828403121561205857600080fd5b81356001600160e01b0319811681146109a957600080fd5b60006020828403121561208257600080fd5b5035919050565b6000806040838503121561209c57600080fd5b50508035926020909101359150565b80356001600160a01b03811681146120c257600080fd5b919050565b6000602082840312156120d957600080fd5b6109a9826120ab565b600081518084526020808501945080840160005b83811015612112578151875295820195908201906001016120f6565b509495945050505050565b6020815260006109a960208301846120e2565b6000806040838503121561214357600080fd5b82359150612153602084016120ab565b90509250929050565b634e487b7160e01b600052604160045260246000fd5b604051601f8201601f1916810167ffffffffffffffff8111828210171561219b5761219b61215c565b604052919050565b600082601f8301126121b457600080fd5b813567ffffffffffffffff8111156121ce576121ce61215c565b6121e1601f8201601f1916602001612172565b8181528460208386010111156121f657600080fd5b816020850160208301376000918101602001919091529392505050565b6000806040838503121561222657600080fd5b61222f836120ab565b9150602083013567ffffffffffffffff81111561224b57600080fd5b612257858286016121a3565b9150509250929050565b600082601f83011261227257600080fd5b8135602067ffffffffffffffff82111561228e5761228e61215c565b8160051b61229d828201612172565b92835284810182019282810190878511156122b757600080fd5b83870192505b848310156122d6578235825291830191908301906122bd565b979650505050505050565b600080600080608085870312156122f757600080fd5b612300856120ab565b9350602085013567ffffffffffffffff8082111561231d57600080fd5b61232988838901612261565b9450604087013591508082111561233f57600080fd5b61234b88838901612261565b9350606087013591508082111561236157600080fd5b5061236e878288016121a3565b91505092959194509250565b6000806000806080858703121561239057600080fd5b84359350602085013567ffffffffffffffff8082111561231d57600080fd5b600080600080600080600060e0888a0312156123ca57600080fd5b873596506020880135955060408801359450606088013567ffffffffffffffff808211156123f757600080fd5b6124038b838c01612261565b955060808a013591508082111561241957600080fd5b6124258b838c01612261565b945060a08a0135935060c08a013591508082111561244257600080fd5b5061244f8a828b016121a3565b91505092959891949750929550565b60008083601f84011261247057600080fd5b50813567ffffffffffffffff81111561248857600080fd5b6020830191508360208260051b85010111156124a357600080fd5b9250929050565b60008083601f8401126124bc57600080fd5b50813567ffffffffffffffff8111156124d457600080fd5b6020830191508360208285010111156124a357600080fd5b60008060008060008060008060a0898b03121561250857600080fd5b612511896120ab565b975061251f60208a016120ab565b9650604089013567ffffffffffffffff8082111561253c57600080fd5b6125488c838d0161245e565b909850965060608b013591508082111561256157600080fd5b61256d8c838d0161245e565b909650945060808b013591508082111561258657600080fd5b506125938b828c016124aa565b999c989b5096995094979396929594505050565b600080604083850312156125ba57600080fd5b6125c3836120ab565b946020939093013593505050565b600080600080608085870312156125e757600080fd5b6125f0856120ab565b93506020850135925060408501359150606085013567ffffffffffffffff81111561261a57600080fd5b61236e878288016121a3565b60008060008060008060a0878903121561263f57600080fd5b612648876120ab565b9550612656602088016120ab565b94506040870135935060608701359250608087013567ffffffffffffffff81111561268057600080fd5b61268c89828a016124aa565b979a9699509497509295939492505050565b6020808252602c908201527f46756e6374696f6e206d7573742062652063616c6c6564207468726f7567682060408201526b19195b1959d85d1958d85b1b60a21b606082015260800190565b6020808252602c908201527f46756e6374696f6e206d7573742062652063616c6c6564207468726f7567682060408201526b6163746976652070726f787960a01b606082015260800190565b634e487b7160e01b600052601160045260246000fd5b818103818111156105f2576105f2612736565b60006020828403121561277157600080fd5b815180151581146109a957600080fd5b60005b8381101561279c578181015183820152602001612784565b50506000910152565b600081518084526127bd816020860160208601612781565b601f01601f19169290920160200192915050565b6001600160a01b0386811682528516602082015260a0604082018190526000906127fd908301866120e2565b828103606084015261280f81866120e2565b9050828103608084015261282381856127a5565b98975050505050505050565b60408152600061284260408301856120e2565b828103602084015261285481856120e2565b95945050505050565b60006001820161286f5761286f612736565b5060010190565b83815260606020820152600061288f60608301856120e2565b8281036040840152611f9181856120e2565b6020808252602e908201527f496e697469616c697a61626c653a20636f6e747261637420697320616c72656160408201526d191e481a5b9a5d1a585b1a5e995960921b606082015260800190565b6001600160a01b03868116825285166020820152604081018490526060810183905260a0608082018190526000906122d6908301846127a5565b60006020828403121561293b57600080fd5b5051919050565b634e487b7160e01b600052603260045260246000fd5b808201808211156105f2576105f2612736565b6001600160a01b038516815260806020820181905260009061298f908301866120e2565b82810360408401526129a181866120e2565b905082810360608401526122d681856127a5565b60018060a01b038716815285602082015284604082015283606082015282608082015260c060a0820152600061282360c08301846127a5565b6020808252602b908201527f496e697469616c697a61626c653a20636f6e7472616374206973206e6f74206960408201526a6e697469616c697a696e6760a81b606082015260800190565b634e487b7160e01b600052603160045260246000fd5b60008251612a61818460208701612781565b9190910192915050565b6020815260006109a960208301846127a556fe360894a13ba1a3210667c828492db98dca3e2076cc3735a920a3ca505d382bbc416464726573733a206c6f772d6c6576656c2064656c65676174652063616c6c206661696c6564a264697066735822122059445d3c787e2388a8d88d4064c0017c57838c3dbdf6196e1179a9450e431db064736f6c63430008130033",
    "linkReferences": {}
  },
  "methodIdentifiers": {
    "assetCount()": "eafe7a74",
    "assetExists(uint256)": "518e2bdd",
    "assets()": "71a97305",
    "batchTransferFrom(address,uint256[],uint256[],bytes)": "6896893b",
    "consume(uint256,uint256[],uint256[],bytes)": "efec6a09",
    "getAssetContent(uint256)": "390027b3",
    "getAssetContentAmount(uint256,uint256)": "5e6d43ef",
    "getAssetContentIndex(uint256,uint256)": "c5290d28",
    "getAssetContentIndexWithRevert(uint256,uint256)": "51a5ec34",
    "getAssetExternalContentRef(uint256)": "57ac4b54",
    "getContentCount(uint256)": "1f54a327",
    "getContentLength(uint256)": "41a9c13c",
    "initialize(address,uint256)": "cd6dc687",
    "isAssetOwner(uint256,address)": "473d6ea0",
    "maxContentPerTransaction()": "e209f30a",
    "mint(uint256,bytes32,bytes32,uint256[],uint256[],bytes32,bytes)": "98ddcd2e",
    "onERC1155BatchReceived(address,address,uint256[],uint256[],bytes)": "bc197c81",
    "onERC1155Received(address,address,uint256,uint256,bytes)": "f23a6e61",
    "owner()": "8da5cb5b",
    "proxiableUUID()": "52d1902d",
    "reduceContentAmounts(uint256,uint256[],uint256[],bytes)": "96e7e67f",
    "renounceOwnership()": "715018a6",
    "setAssetExternalContentRef(uint256,bytes32)": "2e1e8d81",
    "setMaxContentPerTransaction(uint256)": "719d98af",
    "supportsInterface(bytes4)": "01ffc9a7",
    "transfer(address,uint256,uint256,bytes)": "dabd76e9",
    "transferOwnership(address)": "f2fde38b",
    "upgradeTo(address)": "3659cfe6",
    "upgradeToAndCall(address,bytes)": "4f1ef286"
  },
  "id": 45
}