{
  "abi": [
    {
      "inputs": [
        {
          "internalType": "string",
          "name": "_name",
          "type": "string"
        },
        {
          "internalType": "string",
          "name": "_symbol",
          "type": "string"
        },
        {
          "internalType": "string",
          "name": "_unit",
          "type": "string"
        },
        {
          "internalType": "uint8",
          "name": "_decimals",
          "type": "uint8"
        },
        {
          "internalType": "uint256",
          "name": "_totalSupply",
          "type": "uint256"
        }
      ],
      "stateMutability": "nonpayable",
      "type": "constructor"
    },
    {
      "anonymous": false,
      "inputs": [
        {
          "indexed": true,
          "internalType": "address",
          "name": "tokenOwner",
          "type": "address"
        },
        {
          "indexed": true,
          "internalType": "address",
          "name": "spender",
          "type": "address"
        },
        {
          "indexed": false,
          "internalType": "uint256",
          "name": "tokens",
          "type": "uint256"
        }
      ],
      "name": "Approval",
      "type": "event"
    },
    {
      "anonymous": false,
      "inputs": [
        {
          "indexed": true,
          "internalType": "address",
          "name": "from",
          "type": "address"
        },
        {
          "indexed": true,
          "internalType": "address",
          "name": "to",
          "type": "address"
        },
        {
          "indexed": false,
          "internalType": "uint256",
          "name": "tokens",
          "type": "uint256"
        }
      ],
      "name": "Transfer",
      "type": "event"
    },
    {
      "inputs": [
        {
          "internalType": "address",
          "name": "tokenOwner",
          "type": "address"
        },
        {
          "internalType": "address",
          "name": "spender",
          "type": "address"
        }
      ],
      "name": "allowance",
      "outputs": [
        {
          "internalType": "uint256",
          "name": "remaining",
          "type": "uint256"
        }
      ],
      "stateMutability": "view",
      "type": "function"
    },
    {
      "inputs": [
        {
          "internalType": "address",
          "name": "spender",
          "type": "address"
        },
        {
          "internalType": "uint256",
          "name": "tokens",
          "type": "uint256"
        }
      ],
      "name": "approve",
      "outputs": [
        {
          "internalType": "bool",
          "name": "success",
          "type": "bool"
        }
      ],
      "stateMutability": "nonpayable",
      "type": "function"
    },
    {
      "inputs": [
        {
          "internalType": "address",
          "name": "tokenOwner",
          "type": "address"
        }
      ],
      "name": "balanceOf",
      "outputs": [
        {
          "internalType": "uint256",
          "name": "balance",
          "type": "uint256"
        }
      ],
      "stateMutability": "view",
      "type": "function"
    },
    {
      "inputs": [],
      "name": "decimals",
      "outputs": [
        {
          "internalType": "uint8",
          "name": "",
          "type": "uint8"
        }
      ],
      "stateMutability": "view",
      "type": "function"
    },
    {
      "inputs": [
        {
          "internalType": "address",
          "name": "addr",
          "type": "address"
        }
      ],
      "name": "isContract",
      "outputs": [
        {
          "internalType": "bool",
          "name": "success",
          "type": "bool"
        }
      ],
      "stateMutability": "view",
      "type": "function"
    },
    {
      "inputs": [],
      "name": "name",
      "outputs": [
        {
          "internalType": "string",
          "name": "",
          "type": "string"
        }
      ],
      "stateMutability": "view",
      "type": "function"
    },
    {
      "inputs": [],
      "name": "symbol",
      "outputs": [
        {
          "internalType": "string",
          "name": "",
          "type": "string"
        }
      ],
      "stateMutability": "view",
      "type": "function"
    },
    {
      "inputs": [],
      "name": "totalSupply",
      "outputs": [
        {
          "internalType": "uint256",
          "name": "",
          "type": "uint256"
        }
      ],
      "stateMutability": "view",
      "type": "function"
    },
    {
      "inputs": [
        {
          "internalType": "address",
          "name": "to",
          "type": "address"
        },
        {
          "internalType": "uint256",
          "name": "tokens",
          "type": "uint256"
        }
      ],
      "name": "transfer",
      "outputs": [
        {
          "internalType": "bool",
          "name": "success",
          "type": "bool"
        }
      ],
      "stateMutability": "nonpayable",
      "type": "function"
    },
    {
      "inputs": [
        {
          "internalType": "address",
          "name": "from",
          "type": "address"
        },
        {
          "internalType": "address",
          "name": "to",
          "type": "address"
        },
        {
          "internalType": "uint256",
          "name": "tokens",
          "type": "uint256"
        }
      ],
      "name": "transferFrom",
      "outputs": [
        {
          "internalType": "bool",
          "name": "success",
          "type": "bool"
        }
      ],
      "stateMutability": "nonpayable",
      "type": "function"
    },
    {
      "inputs": [],
      "name": "unit",
      "outputs": [
        {
          "internalType": "string",
          "name": "",
          "type": "string"
        }
      ],
      "stateMutability": "view",
      "type": "function"
    }
  ],
  "bytecode": {
    "object": "0x60806040523480156200001157600080fd5b5060405162000ae538038062000ae5833981016040819052620000349162000189565b6000620000428682620002cf565b506001620000518582620002cf565b506002620000608482620002cf565b506003805460ff191660ff84161790556004819055336000818152600560209081526040808320859055518481527fddf252ad1be2c89b69c2b068fc378daa952ba7f163c4a11628f55a4df523b3ef910160405180910390a350505050506200039b565b634e487b7160e01b600052604160045260246000fd5b600082601f830112620000ec57600080fd5b81516001600160401b0380821115620001095762000109620000c4565b604051601f8301601f19908116603f01168101908282118183101715620001345762000134620000c4565b816040528381526020925086838588010111156200015157600080fd5b600091505b8382101562000175578582018301518183018401529082019062000156565b600093810190920192909252949350505050565b600080600080600060a08688031215620001a257600080fd5b85516001600160401b0380821115620001ba57600080fd5b620001c889838a01620000da565b96506020880151915080821115620001df57600080fd5b620001ed89838a01620000da565b955060408801519150808211156200020457600080fd5b506200021388828901620000da565b935050606086015160ff811681146200022b57600080fd5b80925050608086015190509295509295909350565b600181811c908216806200025557607f821691505b6020821081036200027657634e487b7160e01b600052602260045260246000fd5b50919050565b601f821115620002ca57600081815260208120601f850160051c81016020861015620002a55750805b601f850160051c820191505b81811015620002c657828155600101620002b1565b5050505b505050565b81516001600160401b03811115620002eb57620002eb620000c4565b6200030381620002fc845462000240565b846200027c565b602080601f8311600181146200033b5760008415620003225750858301515b600019600386901b1c1916600185901b178555620002c6565b600085815260208120601f198616915b828110156200036c578886015182559484019460019091019084016200034b565b50858210156200038b5787850151600019600388901b60f8161c191681555b5050505050600190811b01905550565b61073a80620003ab6000396000f3fe608060405234801561001057600080fd5b50600436106100a95760003560e01c8063313ce56711610071578063313ce5671461012857806370a082311461013d578063907af6c01461016657806395d89b411461016e578063a9059cbb14610176578063dd62ed3e1461018957600080fd5b806306fdde03146100ae578063095ea7b3146100cc57806316279055146100ef57806318160ddd1461010357806323b872dd14610115575b600080fd5b6100b66101c2565b6040516100c39190610553565b60405180910390f35b6100df6100da3660046105bd565b610254565b60405190151581526020016100c3565b6100df6100fd3660046105e7565b3b151590565b6004545b6040519081526020016100c3565b6100df610123366004610609565b6102e6565b60035460405160ff90911681526020016100c3565b61010761014b3660046105e7565b6001600160a01b031660009081526005602052604090205490565b6100b661045a565b6100b6610469565b6100df6101843660046105bd565b610478565b610107610197366004610645565b6001600160a01b03918216600090815260066020908152604080832093909416825291909152205490565b6060600080546101d190610678565b80601f01602080910402602001604051908101604052809291908181526020018280546101fd90610678565b801561024a5780601f1061021f5761010080835404028352916020019161024a565b820191906000526020600020905b81548152906001019060200180831161022d57829003601f168201915b5050505050905090565b600080821180156102745750336000908152600560205260409020548211155b610280576102806106b2565b3360008181526006602090815260408083206001600160a01b03881680855290835292819020869055518581529192917f8c5be1e5ebec7d5bd14f71427d1e84f3dd0314c0f7b2291e5b200ac8c7c3b92591015b60405180910390a35060015b92915050565b6000826001600160a01b0316846001600160a01b03161415801561030a5750600082115b801561032e57506001600160a01b0384166000908152600560205260409020548211155b801561035f57506001600160a01b038085166000908152600660209081526040808320938716835292905220548211155b61036b5761036b6106b2565b6001600160a01b038085166000908152600660209081526040808320938716835292905290812080548492906103a29084906106de565b90915550506001600160a01b038416600090815260056020526040812080548492906103cf9084906106de565b90915550506001600160a01b038316600090815260056020526040812080548492906103fc9084906106f1565b92505081905550826001600160a01b0316846001600160a01b03167fddf252ad1be2c89b69c2b068fc378daa952ba7f163c4a11628f55a4df523b3ef8460405161044891815260200190565b60405180910390a35060019392505050565b6060600280546101d190610678565b6060600180546101d190610678565b6000823b1580156104925750336001600160a01b03841614155b801561049e5750600082115b80156104b95750336000908152600560205260409020548211155b6104c5576104c56106b2565b33600090815260056020526040812080548492906104e49084906106de565b90915550506001600160a01b038316600090815260056020526040812080548492906105119084906106f1565b90915550506040518281526001600160a01b0384169033907fddf252ad1be2c89b69c2b068fc378daa952ba7f163c4a11628f55a4df523b3ef906020016102d4565b600060208083528351808285015260005b8181101561058057858101830151858201604001528201610564565b506000604082860101526040601f19601f8301168501019250505092915050565b80356001600160a01b03811681146105b857600080fd5b919050565b600080604083850312156105d057600080fd5b6105d9836105a1565b946020939093013593505050565b6000602082840312156105f957600080fd5b610602826105a1565b9392505050565b60008060006060848603121561061e57600080fd5b610627846105a1565b9250610635602085016105a1565b9150604084013590509250925092565b6000806040838503121561065857600080fd5b610661836105a1565b915061066f602084016105a1565b90509250929050565b600181811c9082168061068c57607f821691505b6020821081036106ac57634e487b7160e01b600052602260045260246000fd5b50919050565b634e487b7160e01b600052600160045260246000fd5b634e487b7160e01b600052601160045260246000fd5b818103818111156102e0576102e06106c8565b808201808211156102e0576102e06106c856fea26469706673582212202c5047f2fe5e56d4960dbbdeef1c4c5630fa7a5f6e7888dafd93fa72c8f767ff64736f6c63430008130033",
    "linkReferences": {}
  },
  "methodIdentifiers": {
    "allowance(address,address)": "dd62ed3e",
    "approve(address,uint256)": "095ea7b3",
    "balanceOf(address)": "70a08231",
    "decimals()": "313ce567",
    "isContract(address)": "16279055",
    "name()": "06fdde03",
    "symbol()": "95d89b41",
    "totalSupply()": "18160ddd",
    "transfer(address,uint256)": "a9059cbb",
    "transferFrom(address,address,uint256)": "23b872dd",
    "unit()": "907af6c0"
  },
  "id": 77
}