{
  "abi": [
    {
      "inputs": [
        {
          "internalType": "address",
          "name": "caller",
          "type": "address"
        }
      ],
      "name": "Payroll__AccessControl__CallerIsNotAdminRole",
      "type": "error"
    },
    {
      "inputs": [
        {
          "internalType": "address",
          "name": "caller",
          "type": "address"
        }
      ],
      "name": "Payroll__AccessControl__CallerIsNotOwnerRole",
      "type": "error"
    },
    {
      "inputs": [
        {
          "internalType": "address",
          "name": "caller",
          "type": "address"
        }
      ],
      "name": "Payroll__AccessControl__CallerIsNotReadRole",
      "type": "error"
    },
    {
      "inputs": [],
      "name": "Payroll__AlreadyClosed",
      "type": "error"
    },
    {
      "inputs": [],
      "name": "Payroll__AlreadyExists",
      "type": "error"
    },
    {
      "inputs": [],
      "name": "Payroll__DataReferenceMustNotBeEmpty",
      "type": "error"
    },
    {
      "inputs": [],
      "name": "Payroll__DefaultReadRoleCannotBeRevoked",
      "type": "error"
    },
    {
      "inputs": [],
      "name": "Payroll__InvalidID",
      "type": "error"
    },
    {
      "inputs": [],
      "name": "Payroll__NotFound",
      "type": "error"
    },
    {
      "anonymous": false,
      "inputs": [],
      "name": "DataReferenceAdded",
      "type": "event"
    },
    {
      "anonymous": false,
      "inputs": [
        {
          "indexed": false,
          "internalType": "uint8",
          "name": "version",
          "type": "uint8"
        }
      ],
      "name": "Initialized",
      "type": "event"
    },
    {
      "anonymous": false,
      "inputs": [
        {
          "indexed": true,
          "internalType": "bytes32",
          "name": "id",
          "type": "bytes32"
        },
        {
          "indexed": false,
          "internalType": "uint256",
          "name": "publishDate",
          "type": "uint256"
        }
      ],
      "name": "PayrollAdded",
      "type": "event"
    },
    {
      "anonymous": false,
      "inputs": [
        {
          "indexed": true,
          "internalType": "bytes32",
          "name": "id",
          "type": "bytes32"
        }
      ],
      "name": "PayrollClosed",
      "type": "event"
    },
    {
      "anonymous": false,
      "inputs": [
        {
          "indexed": true,
          "internalType": "bytes32",
          "name": "role",
          "type": "bytes32"
        },
        {
          "indexed": true,
          "internalType": "bytes32",
          "name": "previousAdminRole",
          "type": "bytes32"
        },
        {
          "indexed": true,
          "internalType": "bytes32",
          "name": "newAdminRole",
          "type": "bytes32"
        }
      ],
      "name": "RoleAdminChanged",
      "type": "event"
    },
    {
      "anonymous": false,
      "inputs": [
        {
          "indexed": true,
          "internalType": "bytes32",
          "name": "role",
          "type": "bytes32"
        },
        {
          "indexed": true,
          "internalType": "address",
          "name": "account",
          "type": "address"
        },
        {
          "indexed": true,
          "internalType": "address",
          "name": "sender",
          "type": "address"
        }
      ],
      "name": "RoleGranted",
      "type": "event"
    },
    {
      "anonymous": false,
      "inputs": [
        {
          "indexed": true,
          "internalType": "bytes32",
          "name": "role",
          "type": "bytes32"
        },
        {
          "indexed": true,
          "internalType": "address",
          "name": "account",
          "type": "address"
        },
        {
          "indexed": true,
          "internalType": "address",
          "name": "sender",
          "type": "address"
        }
      ],
      "name": "RoleRevoked",
      "type": "event"
    },
    {
      "inputs": [],
      "name": "DEFAULT_ADMIN_ROLE",
      "outputs": [
        {
          "internalType": "bytes32",
          "name": "",
          "type": "bytes32"
        }
      ],
      "stateMutability": "view",
      "type": "function"
    },
    {
      "inputs": [],
      "name": "DEFAULT_READ_ROLE",
      "outputs": [
        {
          "internalType": "bytes32",
          "name": "",
          "type": "bytes32"
        }
      ],
      "stateMutability": "view",
      "type": "function"
    },
    {
      "inputs": [],
      "name": "OWNER_ROLE",
      "outputs": [
        {
          "internalType": "bytes32",
          "name": "",
          "type": "bytes32"
        }
      ],
      "stateMutability": "view",
      "type": "function"
    },
    {
      "inputs": [],
      "name": "READ_ROLE",
      "outputs": [
        {
          "internalType": "bytes32",
          "name": "",
          "type": "bytes32"
        }
      ],
      "stateMutability": "view",
      "type": "function"
    },
    {
      "inputs": [
        {
          "internalType": "bytes32",
          "name": "id",
          "type": "bytes32"
        },
        {
          "internalType": "bytes32",
          "name": "dataReference",
          "type": "bytes32"
        }
      ],
      "name": "addDataReferenceAndClosePayroll",
      "outputs": [],
      "stateMutability": "nonpayable",
      "type": "function"
    },
    {
      "inputs": [
        {
          "internalType": "bytes32",
          "name": "id",
          "type": "bytes32"
        },
        {
          "internalType": "bytes32",
          "name": "dataReference",
          "type": "bytes32"
        }
      ],
      "name": "addDatareference",
      "outputs": [],
      "stateMutability": "nonpayable",
      "type": "function"
    },
    {
      "inputs": [
        {
          "internalType": "uint256",
          "name": "startDate",
          "type": "uint256"
        },
        {
          "internalType": "uint256",
          "name": "endDate",
          "type": "uint256"
        },
        {
          "internalType": "uint256",
          "name": "revision",
          "type": "uint256"
        },
        {
          "internalType": "bytes32",
          "name": "name",
          "type": "bytes32"
        },
        {
          "internalType": "bytes32",
          "name": "payrollType",
          "type": "bytes32"
        },
        {
          "internalType": "bytes32",
          "name": "id",
          "type": "bytes32"
        },
        {
          "internalType": "bytes32",
          "name": "dataReference",
          "type": "bytes32"
        }
      ],
      "name": "addPayroll",
      "outputs": [],
      "stateMutability": "nonpayable",
      "type": "function"
    },
    {
      "inputs": [
        {
          "internalType": "uint256",
          "name": "startDate",
          "type": "uint256"
        },
        {
          "internalType": "uint256",
          "name": "endDate",
          "type": "uint256"
        },
        {
          "internalType": "uint256",
          "name": "revision",
          "type": "uint256"
        },
        {
          "internalType": "bytes32",
          "name": "name",
          "type": "bytes32"
        },
        {
          "internalType": "bytes32",
          "name": "payrollType",
          "type": "bytes32"
        },
        {
          "internalType": "bytes32",
          "name": "id",
          "type": "bytes32"
        },
        {
          "internalType": "bytes32",
          "name": "payrolDataReference",
          "type": "bytes32"
        }
      ],
      "name": "addPayrollAndClosePayroll",
      "outputs": [],
      "stateMutability": "nonpayable",
      "type": "function"
    },
    {
      "inputs": [
        {
          "internalType": "bytes32",
          "name": "id",
          "type": "bytes32"
        }
      ],
      "name": "closePayroll",
      "outputs": [],
      "stateMutability": "nonpayable",
      "type": "function"
    },
    {
      "inputs": [
        {
          "internalType": "bytes32",
          "name": "id",
          "type": "bytes32"
        }
      ],
      "name": "getPayroll",
      "outputs": [
        {
          "components": [
            {
              "internalType": "enum PayrollDataTypes.Status",
              "name": "status",
              "type": "uint8"
            },
            {
              "internalType": "uint256",
              "name": "publishDate",
              "type": "uint256"
            },
            {
              "internalType": "uint256",
              "name": "startDate",
              "type": "uint256"
            },
            {
              "internalType": "uint256",
              "name": "endDate",
              "type": "uint256"
            },
            {
              "internalType": "uint256",
              "name": "revision",
              "type": "uint256"
            },
            {
              "internalType": "bytes32",
              "name": "name",
              "type": "bytes32"
            },
            {
              "internalType": "bytes32",
              "name": "payrollType",
              "type": "bytes32"
            },
            {
              "internalType": "bytes32",
              "name": "id",
              "type": "bytes32"
            },
            {
              "internalType": "bytes32",
              "name": "dataReference",
              "type": "bytes32"
            }
          ],
          "internalType": "struct PayrollDataTypes.PayrollData",
          "name": "",
          "type": "tuple"
        }
      ],
      "stateMutability": "view",
      "type": "function"
    },
    {
      "inputs": [],
      "name": "getPayrollDataReferences",
      "outputs": [
        {
          "internalType": "bytes32[]",
          "name": "",
          "type": "bytes32[]"
        }
      ],
      "stateMutability": "view",
      "type": "function"
    },
    {
      "inputs": [],
      "name": "getPayrollIds",
      "outputs": [
        {
          "internalType": "bytes32[]",
          "name": "",
          "type": "bytes32[]"
        }
      ],
      "stateMutability": "view",
      "type": "function"
    },
    {
      "inputs": [
        {
          "internalType": "bytes32",
          "name": "role",
          "type": "bytes32"
        }
      ],
      "name": "getRoleAdmin",
      "outputs": [
        {
          "internalType": "bytes32",
          "name": "",
          "type": "bytes32"
        }
      ],
      "stateMutability": "view",
      "type": "function"
    },
    {
      "inputs": [
        {
          "internalType": "address",
          "name": "account",
          "type": "address"
        }
      ],
      "name": "grantAdminRole",
      "outputs": [],
      "stateMutability": "nonpayable",
      "type": "function"
    },
    {
      "inputs": [
        {
          "internalType": "address",
          "name": "account",
          "type": "address"
        }
      ],
      "name": "grantOwnerRole",
      "outputs": [],
      "stateMutability": "nonpayable",
      "type": "function"
    },
    {
      "inputs": [
        {
          "internalType": "address",
          "name": "account",
          "type": "address"
        }
      ],
      "name": "grantReadRole",
      "outputs": [],
      "stateMutability": "nonpayable",
      "type": "function"
    },
    {
      "inputs": [
        {
          "internalType": "bytes32",
          "name": "role",
          "type": "bytes32"
        },
        {
          "internalType": "address",
          "name": "account",
          "type": "address"
        }
      ],
      "name": "grantRole",
      "outputs": [],
      "stateMutability": "nonpayable",
      "type": "function"
    },
    {
      "inputs": [
        {
          "internalType": "bytes32",
          "name": "role",
          "type": "bytes32"
        },
        {
          "internalType": "address",
          "name": "account",
          "type": "address"
        }
      ],
      "name": "hasRole",
      "outputs": [
        {
          "internalType": "bool",
          "name": "",
          "type": "bool"
        }
      ],
      "stateMutability": "view",
      "type": "function"
    },
    {
      "inputs": [],
      "name": "initialize",
      "outputs": [],
      "stateMutability": "nonpayable",
      "type": "function"
    },
    {
      "inputs": [
        {
          "internalType": "bytes32",
          "name": "role",
          "type": "bytes32"
        },
        {
          "internalType": "address",
          "name": "account",
          "type": "address"
        }
      ],
      "name": "renounceRole",
      "outputs": [],
      "stateMutability": "nonpayable",
      "type": "function"
    },
    {
      "inputs": [
        {
          "internalType": "address",
          "name": "account",
          "type": "address"
        }
      ],
      "name": "revokeAdminRole",
      "outputs": [],
      "stateMutability": "nonpayable",
      "type": "function"
    },
    {
      "inputs": [
        {
          "internalType": "address",
          "name": "account",
          "type": "address"
        }
      ],
      "name": "revokeOwnerRole",
      "outputs": [],
      "stateMutability": "nonpayable",
      "type": "function"
    },
    {
      "inputs": [
        {
          "internalType": "address",
          "name": "account",
          "type": "address"
        }
      ],
      "name": "revokeReadRole",
      "outputs": [],
      "stateMutability": "nonpayable",
      "type": "function"
    },
    {
      "inputs": [
        {
          "internalType": "bytes32",
          "name": "role",
          "type": "bytes32"
        },
        {
          "internalType": "address",
          "name": "account",
          "type": "address"
        }
      ],
      "name": "revokeRole",
      "outputs": [],
      "stateMutability": "nonpayable",
      "type": "function"
    },
    {
      "inputs": [
        {
          "internalType": "bytes4",
          "name": "interfaceId",
          "type": "bytes4"
        }
      ],
      "name": "supportsInterface",
      "outputs": [
        {
          "internalType": "bool",
          "name": "",
          "type": "bool"
        }
      ],
      "stateMutability": "view",
      "type": "function"
    }
  ],
  "bytecode": {
    "object": "0x608060405234801561001057600080fd5b5061128a806100206000396000f3fe608060405234801561001057600080fd5b50600436106101735760003560e01c80639a19c7b0116100de578063b8afe31311610097578063c634b78e11610071578063c634b78e14610339578063d547741f1461034c578063dffb05e91461035f578063e58378bb1461036757600080fd5b8063b8afe31314610300578063be57522914610313578063c3e24b121461032657600080fd5b80639a19c7b0146102885780639c5bdeb41461029b578063a217fddf146102ae578063a726ef1a146102b6578063a73e41e6146102cb578063af15256a146102eb57600080fd5b8063397a8bab11610130578063397a8bab1461021f57806364e167b8146102325780638129fc1c1461024557806386f6b7fb1461024d57806388e7d6091461026057806391d148541461027557600080fd5b806301ffc9a714610178578063094e4898146101a05780631d772f62146101b5578063248a9ca3146101c85780632f2ff15d146101f957806336568abe1461020c575b600080fd5b61018b610186366004611002565b61037c565b60405190151581526020015b60405180910390f35b6101b36101ae366004611033565b6103b3565b005b6101b36101c3366004611063565b61040c565b6101eb6101d6366004611033565b60009081526065602052604090206001015490565b604051908152602001610197565b6101b361020736600461107e565b61045f565b6101b361021a36600461107e565b610487565b6101b361022d366004611063565b610501565b6101b36102403660046110aa565b610533565b6101b3610572565b6101b361025b3660046110f6565b610685565b6101eb60008051602061123583398151915281565b61018b61028336600461107e565b6106b6565b6101b3610296366004611063565b6106e1565b6101b36102a9366004611063565b610706565b6101eb600081565b6102be610738565b6040516101979190611118565b6102de6102d9366004611033565b6107f6565b6040516101979190611172565b6101eb60008051602061121583398151915281565b6101b361030e3660046110f6565b610923565b6101b3610321366004611063565b61095d565b6101b36103343660046110aa565b61098f565b6101b3610347366004611063565b6109ec565b6101b361035a36600461107e565b610a11565b6102be610a59565b6101eb6000805160206111f583398151915281565b60006001600160e01b03198216637965db0b60e01b14806103ad57506301ffc9a760e01b6001600160e01b03198316145b92915050565b6103cb6000805160206111f5833981519152336106b6565b151560000361040057335b604051635f4a20cd60e11b81526001600160a01b0390911660048201526024015b60405180910390fd5b61040981610af4565b50565b6104176000336106b6565b151560000361044757335b6040516352e9ee6760e01b81526001600160a01b0390911660048201526024016103f7565b61040960008051602061121583398151915282610c5a565b61046a6000336106b6565b15156000036104795733610422565b6104838282610cc1565b5050565b6001600160a01b03811633146104f75760405162461bcd60e51b815260206004820152602f60248201527f416363657373436f6e74726f6c3a2063616e206f6e6c792072656e6f756e636560448201526e103937b632b9903337b91039b2b63360891b60648201526084016103f7565b6104838282610c5a565b61050c6000336106b6565b151560000361051b5733610422565b6104096000805160206111f583398151915282610479565b61054b6000805160206111f5833981519152336106b6565b151560000361055a57336103d6565b61056987878787878787610d47565b50505050505050565b600054610100900460ff16158080156105925750600054600160ff909116105b806105ac5750303b1580156105ac575060005460ff166001145b61060f5760405162461bcd60e51b815260206004820152602e60248201527f496e697469616c697a61626c653a20636f6e747261637420697320616c72656160448201526d191e481a5b9a5d1a585b1a5e995960921b60648201526084016103f7565b6000805460ff191660011790558015610632576000805461ff0019166101001790555b61063d600033610479565b8015610409576000805461ff0019169055604051600181527f7f26b83ff96e1f2b6a682f133852f6798a09c465da95921460cefb38474024989060200160405180910390a150565b61069d6000805160206111f5833981519152336106b6565b15156000036106ac57336103d6565b6104838282610f22565b60009182526065602090815260408084206001600160a01b0393909316845291905290205460ff1690565b6106ec6000336106b6565b15156000036106fb5733610422565b610409600082610a11565b6107116000336106b6565b15156000036107205733610422565b6104096000805160206111f583398151915282610c5a565b6060610752600080516020611215833981519152336106b6565b1580156107745750610772600080516020611235833981519152336106b6565b155b156107a057335b60405163d418e20960e01b81526001600160a01b0390911660048201526024016103f7565b60988054806020026020016040519081016040528092919081815260200182805480156107ec57602002820191906000526020600020905b8154815260200190600101908083116107d8575b5050505050905090565b6040805161012081018252600080825260208201819052918101829052606081018290526080810182905260a0810182905260c0810182905260e08101829052610100810191909152610857600080516020611215833981519152336106b6565b1580156108795750610877600080516020611235833981519152336106b6565b155b15610884573361077b565b60008281526099602052604090819020815161012081019092528054829060ff1660028111156108b6576108b661115c565b60028111156108c7576108c761115c565b81526020016001820154815260200160028201548152602001600382015481526020016004820154815260200160058201548152602001600682015481526020016007820154815260200160088201548152505090505b919050565b61093b6000805160206111f5833981519152336106b6565b151560000361094a57336103d6565b6109548282610f22565b61048382610af4565b6109686000336106b6565b15156000036109775733610422565b61040960008051602061121583398151915282610cc1565b6109a76000805160206111f5833981519152336106b6565b15156000036109b657336103d6565b806109d4576040516303a85aa760e41b815260040160405180910390fd5b6109e387878787878787610d47565b61056982610af4565b6109f76000336106b6565b1515600003610a065733610422565b610409600082610cc1565b610a1c6000336106b6565b1515600003610a2b5733610422565b60008051602061123583398151915282036104f75760405163021470b960e11b815260040160405180910390fd5b6060610a73600080516020611215833981519152336106b6565b158015610a955750610a93600080516020611235833981519152336106b6565b155b15610aa0573361077b565b60978054806020026020016040519081016040528092919081815260200182805480156107ec57602002820191906000526020600020908154815260200190600101908083116107d8575050505050905090565b600081815260996020526040808220815161012081019092528054829060ff166002811115610b2557610b2561115c565b6002811115610b3657610b3661115c565b815260018201546020820152600282015460408201526003820154606082015260048201546080820152600582015460a0820152600682015460c0820152600782015460e0820152600890910154610100909101529050600081516002811115610ba257610ba261115c565b03610bc057604051630fd7220f60e31b815260040160405180910390fd5b600281516002811115610bd557610bd561115c565b03610bf357604051634b1fe43960e11b815260040160405180910390fd5b610100810151610c16576040516303a85aa760e41b815260040160405180910390fd5b600082815260996020526040808220805460ff191660021790555183917fe33dfa77e1c9dc53786b56739d7809d96899ee1c74e2b986681ec398cd29efb691a25050565b610c6482826106b6565b156104835760008281526065602090815260408083206001600160a01b0385168085529252808320805460ff1916905551339285917ff6391f5c32d9c69d2a47ea670b442974b53935d1edc7fd64eb21e047a839171b9190a45050565b610ccb82826106b6565b6104835760008281526065602090815260408083206001600160a01b03851684529091529020805460ff19166001179055610d033390565b6001600160a01b0316816001600160a01b0316837f2f8788117e7eff1d82e926ec794901d17c78024a50270940304540a733656f0d60405160405180910390a45050565b81610d6557604051633082cb8d60e21b815260040160405180910390fd5b60008281526099602052604081205460ff166002811115610d8857610d8861115c565b14610da657604051635fde7d4760e11b815260040160405180910390fd5b60408051610120810190915242908060018152602080820184905260408083018c9052606083018b9052608083018a905260a0830189905260c0830188905260e08301879052610100909201859052600086815260999091522081518154829060ff19166001836002811115610e1e57610e1e61115c565b021790555060208201516001808301919091556040808401516002840155606084015160038401556080840151600484015560a0840151600584015560c0840151600684015560e0840151600784015561010090930151600890920191909155609780548083019091557f354a83ed9988f79f6038d4c7a7dadbad8af32f4ad6df893e0e5807a1b1944ff9018590556098805491820181556000527f2237a976fa961f5921fd19f2b03c925c725d77b20ce8f790c19709c03de4d814018390555183907fb928c822c49483745df422670322acbf4ad963a08cc3f10746a6882ce42f383790610f109084815260200190565b60405180910390a25050505050505050565b60008281526099602052604081205460ff166002811115610f4557610f4561115c565b03610f6357604051630fd7220f60e31b815260040160405180910390fd5b80610f81576040516303a85aa760e41b815260040160405180910390fd5b600260008381526099602052604090205460ff166002811115610fa657610fa661115c565b03610fc457604051634b1fe43960e11b815260040160405180910390fd5b600082815260996020526040808220600801839055517f1c9fa335af7f1cc65c26b7f4f4c56e802c3621cba66a45c26bbc7d1a62a2ce559190a15050565b60006020828403121561101457600080fd5b81356001600160e01b03198116811461102c57600080fd5b9392505050565b60006020828403121561104557600080fd5b5035919050565b80356001600160a01b038116811461091e57600080fd5b60006020828403121561107557600080fd5b61102c8261104c565b6000806040838503121561109157600080fd5b823591506110a16020840161104c565b90509250929050565b600080600080600080600060e0888a0312156110c557600080fd5b505085359760208701359750604087013596606081013596506080810135955060a0810135945060c0013592509050565b6000806040838503121561110957600080fd5b50508035926020909101359150565b6020808252825182820181905260009190848201906040850190845b8181101561115057835183529284019291840191600101611134565b50909695505050505050565b634e487b7160e01b600052602160045260246000fd5b81516101208201906003811061119857634e487b7160e01b600052602160045260246000fd5b808352506020830151602083015260408301516040830152606083015160608301526080830151608083015260a083015160a083015260c083015160c083015260e083015160e08301526101008084015181840152509291505056feb19546dff01e856fb3f010c267a7b1c60363cf8a4664e21cc89c26224620214e30854e1816f97c77fec020bfaf79d4d65ec0313c6c52626de45756a4441c650c9ba8518984ecd922a282db79730eef360aab3a173c17b159e362d8ead1b281c5a2646970667358221220688aa3424b060fcb21dc21367c17d0d2a23384aca996313484f2f2a87859b97664736f6c63430008130033",
    "linkReferences": {}
  },
  "methodIdentifiers": {
    "DEFAULT_ADMIN_ROLE()": "a217fddf",
    "DEFAULT_READ_ROLE()": "88e7d609",
    "OWNER_ROLE()": "e58378bb",
    "READ_ROLE()": "af15256a",
    "addDataReferenceAndClosePayroll(bytes32,bytes32)": "b8afe313",
    "addDatareference(bytes32,bytes32)": "86f6b7fb",
    "addPayroll(uint256,uint256,uint256,bytes32,bytes32,bytes32,bytes32)": "64e167b8",
    "addPayrollAndClosePayroll(uint256,uint256,uint256,bytes32,bytes32,bytes32,bytes32)": "c3e24b12",
    "closePayroll(bytes32)": "094e4898",
    "getPayroll(bytes32)": "a73e41e6",
    "getPayrollDataReferences()": "a726ef1a",
    "getPayrollIds()": "dffb05e9",
    "getRoleAdmin(bytes32)": "248a9ca3",
    "grantAdminRole(address)": "c634b78e",
    "grantOwnerRole(address)": "397a8bab",
    "grantReadRole(address)": "be575229",
    "grantRole(bytes32,address)": "2f2ff15d",
    "hasRole(bytes32,address)": "91d14854",
    "initialize()": "8129fc1c",
    "renounceRole(bytes32,address)": "36568abe",
    "revokeAdminRole(address)": "9a19c7b0",
    "revokeOwnerRole(address)": "9c5bdeb4",
    "revokeReadRole(address)": "1d772f62",
    "revokeRole(bytes32,address)": "d547741f",
    "supportsInterface(bytes4)": "01ffc9a7"
  },
  "id": 70
}