{
  "abi": [
    {
      "inputs": [],
      "name": "Asset__CallerIsNotApprovedToTransfer",
      "type": "error"
    },
    {
      "inputs": [],
      "name": "Asset__CallerIsNotTokenOwner",
      "type": "error"
    },
    {
      "inputs": [],
      "name": "Asset__ControllerNotSet",
      "type": "error"
    },
    {
      "inputs": [],
      "name": "Asset__InvalidLockAddress",
      "type": "error"
    },
    {
      "inputs": [],
      "name": "Asset__NotController",
      "type": "error"
    },
    {
      "inputs": [],
      "name": "Asset__ZeroAddress",
      "type": "error"
    },
    {
      "anonymous": false,
      "inputs": [
        {
          "indexed": false,
          "internalType": "address",
          "name": "previousAdmin",
          "type": "address"
        },
        {
          "indexed": false,
          "internalType": "address",
          "name": "newAdmin",
          "type": "address"
        }
      ],
      "name": "AdminChanged",
      "type": "event"
    },
    {
      "anonymous": false,
      "inputs": [
        {
          "indexed": true,
          "internalType": "address",
          "name": "account",
          "type": "address"
        },
        {
          "indexed": true,
          "internalType": "address",
          "name": "operator",
          "type": "address"
        },
        {
          "indexed": false,
          "internalType": "bool",
          "name": "approved",
          "type": "bool"
        }
      ],
      "name": "ApprovalForAll",
      "type": "event"
    },
    {
      "anonymous": false,
      "inputs": [
        {
          "indexed": true,
          "internalType": "address",
          "name": "beacon",
          "type": "address"
        }
      ],
      "name": "BeaconUpgraded",
      "type": "event"
    },
    {
      "anonymous": false,
      "inputs": [
        {
          "indexed": false,
          "internalType": "uint8",
          "name": "version",
          "type": "uint8"
        }
      ],
      "name": "Initialized",
      "type": "event"
    },
    {
      "anonymous": false,
      "inputs": [
        {
          "indexed": true,
          "internalType": "address",
          "name": "previousOwner",
          "type": "address"
        },
        {
          "indexed": true,
          "internalType": "address",
          "name": "newOwner",
          "type": "address"
        }
      ],
      "name": "OwnershipTransferred",
      "type": "event"
    },
    {
      "anonymous": false,
      "inputs": [
        {
          "indexed": true,
          "internalType": "address",
          "name": "operator",
          "type": "address"
        },
        {
          "indexed": true,
          "internalType": "address",
          "name": "from",
          "type": "address"
        },
        {
          "indexed": true,
          "internalType": "address",
          "name": "to",
          "type": "address"
        },
        {
          "indexed": false,
          "internalType": "uint256[]",
          "name": "ids",
          "type": "uint256[]"
        },
        {
          "indexed": false,
          "internalType": "uint256[]",
          "name": "values",
          "type": "uint256[]"
        }
      ],
      "name": "TransferBatch",
      "type": "event"
    },
    {
      "anonymous": false,
      "inputs": [
        {
          "indexed": true,
          "internalType": "address",
          "name": "operator",
          "type": "address"
        },
        {
          "indexed": true,
          "internalType": "address",
          "name": "from",
          "type": "address"
        },
        {
          "indexed": true,
          "internalType": "address",
          "name": "to",
          "type": "address"
        },
        {
          "indexed": false,
          "internalType": "uint256",
          "name": "id",
          "type": "uint256"
        },
        {
          "indexed": false,
          "internalType": "uint256",
          "name": "value",
          "type": "uint256"
        }
      ],
      "name": "TransferSingle",
      "type": "event"
    },
    {
      "anonymous": false,
      "inputs": [
        {
          "indexed": false,
          "internalType": "string",
          "name": "value",
          "type": "string"
        },
        {
          "indexed": true,
          "internalType": "uint256",
          "name": "id",
          "type": "uint256"
        }
      ],
      "name": "URI",
      "type": "event"
    },
    {
      "anonymous": false,
      "inputs": [
        {
          "indexed": true,
          "internalType": "address",
          "name": "implementation",
          "type": "address"
        }
      ],
      "name": "Upgraded",
      "type": "event"
    },
    {
      "inputs": [
        {
          "internalType": "address",
          "name": "account",
          "type": "address"
        },
        {
          "internalType": "uint256",
          "name": "id",
          "type": "uint256"
        }
      ],
      "name": "balanceOf",
      "outputs": [
        {
          "internalType": "uint256",
          "name": "",
          "type": "uint256"
        }
      ],
      "stateMutability": "view",
      "type": "function"
    },
    {
      "inputs": [
        {
          "internalType": "address[]",
          "name": "accounts",
          "type": "address[]"
        },
        {
          "internalType": "uint256[]",
          "name": "ids",
          "type": "uint256[]"
        }
      ],
      "name": "balanceOfBatch",
      "outputs": [
        {
          "internalType": "uint256[]",
          "name": "",
          "type": "uint256[]"
        }
      ],
      "stateMutability": "view",
      "type": "function"
    },
    {
      "inputs": [
        {
          "internalType": "string",
          "name": "tokenUri",
          "type": "string"
        }
      ],
      "name": "initialize",
      "outputs": [],
      "stateMutability": "nonpayable",
      "type": "function"
    },
    {
      "inputs": [
        {
          "internalType": "address",
          "name": "account",
          "type": "address"
        },
        {
          "internalType": "address",
          "name": "operator",
          "type": "address"
        }
      ],
      "name": "isApprovedForAll",
      "outputs": [
        {
          "internalType": "bool",
          "name": "",
          "type": "bool"
        }
      ],
      "stateMutability": "view",
      "type": "function"
    },
    {
      "inputs": [
        {
          "internalType": "address",
          "name": "from",
          "type": "address"
        },
        {
          "internalType": "uint256[]",
          "name": "ids",
          "type": "uint256[]"
        },
        {
          "internalType": "uint256[]",
          "name": "amounts",
          "type": "uint256[]"
        },
        {
          "internalType": "bytes",
          "name": "data",
          "type": "bytes"
        }
      ],
      "name": "lock",
      "outputs": [],
      "stateMutability": "nonpayable",
      "type": "function"
    },
    {
      "inputs": [
        {
          "internalType": "address",
          "name": "to",
          "type": "address"
        },
        {
          "internalType": "uint256",
          "name": "id",
          "type": "uint256"
        },
        {
          "internalType": "uint256",
          "name": "amount",
          "type": "uint256"
        },
        {
          "internalType": "bytes32",
          "name": "name",
          "type": "bytes32"
        },
        {
          "internalType": "bytes32",
          "name": "symbol",
          "type": "bytes32"
        },
        {
          "internalType": "bytes",
          "name": "data",
          "type": "bytes"
        }
      ],
      "name": "mint",
      "outputs": [],
      "stateMutability": "nonpayable",
      "type": "function"
    },
    {
      "inputs": [
        {
          "internalType": "uint256",
          "name": "id",
          "type": "uint256"
        }
      ],
      "name": "nameOf",
      "outputs": [
        {
          "internalType": "bytes32",
          "name": "",
          "type": "bytes32"
        }
      ],
      "stateMutability": "view",
      "type": "function"
    },
    {
      "inputs": [],
      "name": "owner",
      "outputs": [
        {
          "internalType": "address",
          "name": "",
          "type": "address"
        }
      ],
      "stateMutability": "view",
      "type": "function"
    },
    {
      "inputs": [],
      "name": "proxiableUUID",
      "outputs": [
        {
          "internalType": "bytes32",
          "name": "",
          "type": "bytes32"
        }
      ],
      "stateMutability": "view",
      "type": "function"
    },
    {
      "inputs": [],
      "name": "renounceOwnership",
      "outputs": [],
      "stateMutability": "nonpayable",
      "type": "function"
    },
    {
      "inputs": [
        {
          "internalType": "address",
          "name": "from",
          "type": "address"
        },
        {
          "internalType": "address",
          "name": "to",
          "type": "address"
        },
        {
          "internalType": "uint256[]",
          "name": "ids",
          "type": "uint256[]"
        },
        {
          "internalType": "uint256[]",
          "name": "amounts",
          "type": "uint256[]"
        },
        {
          "internalType": "bytes",
          "name": "data",
          "type": "bytes"
        }
      ],
      "name": "safeBatchTransferFrom",
      "outputs": [],
      "stateMutability": "nonpayable",
      "type": "function"
    },
    {
      "inputs": [
        {
          "internalType": "address",
          "name": "from",
          "type": "address"
        },
        {
          "internalType": "address",
          "name": "to",
          "type": "address"
        },
        {
          "internalType": "uint256",
          "name": "id",
          "type": "uint256"
        },
        {
          "internalType": "uint256",
          "name": "amount",
          "type": "uint256"
        },
        {
          "internalType": "bytes",
          "name": "data",
          "type": "bytes"
        }
      ],
      "name": "safeTransferFrom",
      "outputs": [],
      "stateMutability": "nonpayable",
      "type": "function"
    },
    {
      "inputs": [
        {
          "internalType": "address",
          "name": "owner",
          "type": "address"
        },
        {
          "internalType": "bool",
          "name": "approved",
          "type": "bool"
        }
      ],
      "name": "setApprovalForAll",
      "outputs": [],
      "stateMutability": "nonpayable",
      "type": "function"
    },
    {
      "inputs": [
        {
          "internalType": "bytes4",
          "name": "interfaceId",
          "type": "bytes4"
        }
      ],
      "name": "supportsInterface",
      "outputs": [
        {
          "internalType": "bool",
          "name": "",
          "type": "bool"
        }
      ],
      "stateMutability": "view",
      "type": "function"
    },
    {
      "inputs": [
        {
          "internalType": "uint256",
          "name": "id",
          "type": "uint256"
        }
      ],
      "name": "symbolOf",
      "outputs": [
        {
          "internalType": "bytes32",
          "name": "",
          "type": "bytes32"
        }
      ],
      "stateMutability": "view",
      "type": "function"
    },
    {
      "inputs": [
        {
          "internalType": "address",
          "name": "newOwner",
          "type": "address"
        }
      ],
      "name": "transferOwnership",
      "outputs": [],
      "stateMutability": "nonpayable",
      "type": "function"
    },
    {
      "inputs": [
        {
          "internalType": "address",
          "name": "to",
          "type": "address"
        },
        {
          "internalType": "uint256[]",
          "name": "ids",
          "type": "uint256[]"
        },
        {
          "internalType": "uint256[]",
          "name": "amounts",
          "type": "uint256[]"
        },
        {
          "internalType": "bytes",
          "name": "data",
          "type": "bytes"
        }
      ],
      "name": "unlock",
      "outputs": [],
      "stateMutability": "nonpayable",
      "type": "function"
    },
    {
      "inputs": [
        {
          "internalType": "address",
          "name": "newImplementation",
          "type": "address"
        }
      ],
      "name": "upgradeTo",
      "outputs": [],
      "stateMutability": "nonpayable",
      "type": "function"
    },
    {
      "inputs": [
        {
          "internalType": "address",
          "name": "newImplementation",
          "type": "address"
        },
        {
          "internalType": "bytes",
          "name": "data",
          "type": "bytes"
        }
      ],
      "name": "upgradeToAndCall",
      "outputs": [],
      "stateMutability": "payable",
      "type": "function"
    },
    {
      "inputs": [
        {
          "internalType": "uint256",
          "name": "",
          "type": "uint256"
        }
      ],
      "name": "uri",
      "outputs": [
        {
          "internalType": "string",
          "name": "",
          "type": "string"
        }
      ],
      "stateMutability": "view",
      "type": "function"
    }
  ],
  "bytecode": {
    "object": "0x60a06040523060805234801561001457600080fd5b5060805161250661004c600039600081816105dd0152818161061d0152818161084a0152818161088a015261091d01526125066000f3fe60806040526004361061011e5760003560e01c8063672d78c3116100a0578063e985e9c511610064578063e985e9c514610343578063f242432a1461038c578063f2fde38b146103ac578063f62d1888146103cc578063fdc7e434146103ec57600080fd5b8063672d78c314610298578063715018a6146102b857806375cfbe6c146102cd5780638da5cb5b146102fb578063a22cb4651461032357600080fd5b80633659cfe6116100e75780633659cfe6146102035780634b1894fa146102235780634e1273f4146102435780634f1ef2861461027057806352d1902d1461028357600080fd5b8062fdd58e1461012357806301ffc9a714610156578063051a2664146101865780630e89341c146101b45780632eb2c2d6146101e1575b600080fd5b34801561012f57600080fd5b5061014361013e366004611901565b61040c565b6040519081526020015b60405180910390f35b34801561016257600080fd5b50610176610171366004611941565b6104a7565b604051901515815260200161014d565b34801561019257600080fd5b506101436101a136600461195e565b600090815261012e602052604090205490565b3480156101c057600080fd5b506101d46101cf36600461195e565b6104f7565b60405161014d91906119c7565b3480156101ed57600080fd5b506102016101fc366004611b2d565b61058b565b005b34801561020f57600080fd5b5061020161021e366004611bd6565b6105d3565b34801561022f57600080fd5b5061020161023e366004611bf1565b6106b2565b34801561024f57600080fd5b5061026361025e366004611c89565b610717565b60405161014d9190611d8e565b61020161027e366004611da1565b610840565b34801561028f57600080fd5b50610143610910565b3480156102a457600080fd5b506102016102b3366004611bf1565b6109c4565b3480156102c457600080fd5b506102016109fa565b3480156102d957600080fd5b506101436102e836600461195e565b600090815261012f602052604090205490565b34801561030757600080fd5b5060fb546040516001600160a01b03909116815260200161014d565b34801561032f57600080fd5b5061020161033e366004611de4565b610a0e565b34801561034f57600080fd5b5061017661035e366004611e20565b6001600160a01b03918216600090815260666020908152604080832093909416825291909152205460ff1690565b34801561039857600080fd5b506102016103a7366004611e53565b610a21565b3480156103b857600080fd5b506102016103c7366004611bd6565b610a62565b3480156103d857600080fd5b506102016103e7366004611eb7565b610ad8565b3480156103f857600080fd5b50610201610407366004611eff565b610bfa565b60006001600160a01b03831661047c5760405162461bcd60e51b815260206004820152602a60248201527f455243313135353a2061646472657373207a65726f206973206e6f742061207660448201526930b634b21037bbb732b960b11b60648201526084015b60405180910390fd5b5060008181526065602090815260408083206001600160a01b03861684529091529020545b92915050565b60006001600160e01b03198216636cdb3d1360e11b14806104d857506001600160e01b031982166303a24d0760e21b145b806104a157506301ffc9a760e01b6001600160e01b03198316146104a1565b60606067805461050690611f71565b80601f016020809104026020016040519081016040528092919081815260200182805461053290611f71565b801561057f5780601f106105545761010080835404028352916020019161057f565b820191906000526020600020905b81548152906001019060200180831161056257829003601f168201915b50505050509050919050565b610593610c34565b61059d853361035e565b15156000036105bf57604051631e4200df60e31b815260040160405180910390fd5b6105cc8585858585610c8e565b5050505050565b6001600160a01b037f000000000000000000000000000000000000000000000000000000000000000016300361061b5760405162461bcd60e51b815260040161047390611fab565b7f00000000000000000000000000000000000000000000000000000000000000006001600160a01b031661066460008051602061248a833981519152546001600160a01b031690565b6001600160a01b03161461068a5760405162461bcd60e51b815260040161047390611ff7565b61069381610e6e565b604080516000808252602082019092526106af91839190610e76565b50565b6106c6335b6001600160a01b03163b151590565b151560011480156106e1575060fb546001600160a01b031633145b156106f8576106f38433858585610c8e565b610711565b60405163349ddd8760e21b815260040160405180910390fd5b50505050565b6060815183511461077c5760405162461bcd60e51b815260206004820152602960248201527f455243313135353a206163636f756e747320616e6420696473206c656e677468604482015268040dad2e6dac2e8c6d60bb1b6064820152608401610473565b600083516001600160401b03811115610797576107976119da565b6040519080825280602002602001820160405280156107c0578160200160208202803683370190505b50905060005b84518110156108385761080b8582815181106107e4576107e4612043565b60200260200101518583815181106107fe576107fe612043565b602002602001015161040c565b82828151811061081d5761081d612043565b60209081029190910101526108318161206f565b90506107c6565b509392505050565b6001600160a01b037f00000000000000000000000000000000000000000000000000000000000000001630036108885760405162461bcd60e51b815260040161047390611fab565b7f00000000000000000000000000000000000000000000000000000000000000006001600160a01b03166108d160008051602061248a833981519152546001600160a01b031690565b6001600160a01b0316146108f75760405162461bcd60e51b815260040161047390611ff7565b61090082610e6e565b61090c82826001610e76565b5050565b6000306001600160a01b037f000000000000000000000000000000000000000000000000000000000000000016146109b05760405162461bcd60e51b815260206004820152603860248201527f555550535570677261646561626c653a206d757374206e6f742062652063616c60448201527f6c6564207468726f7567682064656c656761746563616c6c00000000000000006064820152608401610473565b5060008051602061248a8339815191525b90565b6109cd336106b7565b151560011480156109e8575060fb546001600160a01b031633145b156106f8576106f33385858585610c8e565b610a02610c34565b610a0c6000610fe6565b565b610a16610c34565b61090c823383611038565b610a29610c34565b610a33853361035e565b1515600003610a5557604051631e4200df60e31b815260040160405180910390fd5b6105cc8585858585611118565b610a6a610c34565b6001600160a01b038116610acf5760405162461bcd60e51b815260206004820152602660248201527f4f776e61626c653a206e6577206f776e657220697320746865207a65726f206160448201526564647265737360d01b6064820152608401610473565b6106af81610fe6565b600054610100900460ff1615808015610af85750600054600160ff909116105b80610b125750303b158015610b12575060005460ff166001145b610b755760405162461bcd60e51b815260206004820152602e60248201527f496e697469616c697a61626c653a20636f6e747261637420697320616c72656160448201526d191e481a5b9a5d1a585b1a5e995960921b6064820152608401610473565b6000805460ff191660011790558015610b98576000805461ff0019166101001790555b610ba0611246565b610ba8611275565b610bb18261129c565b801561090c576000805461ff0019169055604051600181527f7f26b83ff96e1f2b6a682f133852f6798a09c465da95921460cefb38474024989060200160405180910390a15050565b610c02610c34565b610c0e868686846112cc565b50600093845261012e602090815260408086209390935561012f90529220919091555050565b60fb546001600160a01b03163314610a0c5760405162461bcd60e51b815260206004820181905260248201527f4f776e61626c653a2063616c6c6572206973206e6f7420746865206f776e65726044820152606401610473565b8151835114610cf05760405162461bcd60e51b815260206004820152602860248201527f455243313135353a2069647320616e6420616d6f756e7473206c656e677468206044820152670dad2e6dac2e8c6d60c31b6064820152608401610473565b6001600160a01b038416610d165760405162461bcd60e51b815260040161047390612088565b3360005b8451811015610e00576000858281518110610d3757610d37612043565b602002602001015190506000858381518110610d5557610d55612043565b60209081029190910181015160008481526065835260408082206001600160a01b038e168352909352919091205490915081811015610da65760405162461bcd60e51b8152600401610473906120cd565b60008381526065602090815260408083206001600160a01b038e8116855292528083208585039055908b16825281208054849290610de5908490612117565b9250508190555050505080610df99061206f565b9050610d1a565b50846001600160a01b0316866001600160a01b0316826001600160a01b03167f4a39dc06d4c0dbc64b70af90fd698a233a518aa5d07e595d983b8c0526c8f7fb8787604051610e5092919061212a565b60405180910390a4610e668187878787876113e2565b505050505050565b6106af610c34565b7f4910fdfa16fed3260ed0e7147f7cc6da11a60208b5b9406d12a635614ffd91435460ff1615610eae57610ea98361153d565b505050565b826001600160a01b03166352d1902d6040518163ffffffff1660e01b8152600401602060405180830381865afa925050508015610f08575060408051601f3d908101601f19168201909252610f0591810190612158565b60015b610f6b5760405162461bcd60e51b815260206004820152602e60248201527f45524331393637557067726164653a206e657720696d706c656d656e7461746960448201526d6f6e206973206e6f74205555505360901b6064820152608401610473565b60008051602061248a8339815191528114610fda5760405162461bcd60e51b815260206004820152602960248201527f45524331393637557067726164653a20756e737570706f727465642070726f786044820152681a58589b195555525160ba1b6064820152608401610473565b50610ea98383836115d9565b60fb80546001600160a01b038381166001600160a01b0319831681179093556040519116919082907f8be0079c531659141344cd1fd0a4f28419497f9722a3daafe3b4186f6b6457e090600090a35050565b816001600160a01b0316836001600160a01b0316036110ab5760405162461bcd60e51b815260206004820152602960248201527f455243313135353a2073657474696e6720617070726f76616c20737461747573604482015268103337b91039b2b63360b91b6064820152608401610473565b6001600160a01b03838116600081815260666020908152604080832094871680845294825291829020805460ff191686151590811790915591519182527f17307eab39ab6107e8899845ad3d59bd9653f200f220920489ca2b5937696c31910160405180910390a3505050565b6001600160a01b03841661113e5760405162461bcd60e51b815260040161047390612088565b33600061114a856115fe565b90506000611157856115fe565b905060008681526065602090815260408083206001600160a01b038c1684529091529020548581101561119c5760405162461bcd60e51b8152600401610473906120cd565b60008781526065602090815260408083206001600160a01b038d8116855292528083208985039055908a168252812080548892906111db908490612117565b909155505060408051888152602081018890526001600160a01b03808b16928c821692918816917fc3d58168c5ae7397731d063d5bbf3d657854427343f4c083240f7aacaa2d0f62910160405180910390a461123b848a8a8a8a8a611649565b505050505050505050565b600054610100900460ff1661126d5760405162461bcd60e51b815260040161047390612171565b610a0c611704565b600054610100900460ff16610a0c5760405162461bcd60e51b815260040161047390612171565b600054610100900460ff166112c35760405162461bcd60e51b815260040161047390612171565b6106af81611734565b6001600160a01b03841661132c5760405162461bcd60e51b815260206004820152602160248201527f455243313135353a206d696e7420746f20746865207a65726f206164647265736044820152607360f81b6064820152608401610473565b336000611338856115fe565b90506000611345856115fe565b905060008681526065602090815260408083206001600160a01b038b16845290915281208054879290611379908490612117565b909155505060408051878152602081018790526001600160a01b03808a1692600092918716917fc3d58168c5ae7397731d063d5bbf3d657854427343f4c083240f7aacaa2d0f62910160405180910390a46113d983600089898989611649565b50505050505050565b6001600160a01b0384163b15610e665760405163bc197c8160e01b81526001600160a01b0385169063bc197c819061142690899089908890889088906004016121bc565b6020604051808303816000875af1925050508015611461575060408051601f3d908101601f1916820190925261145e9181019061221a565b60015b61150d5761146d612237565b806308c379a0036114a65750611481612252565b8061148c57506114a8565b8060405162461bcd60e51b815260040161047391906119c7565b505b60405162461bcd60e51b815260206004820152603460248201527f455243313135353a207472616e7366657220746f206e6f6e2d455243313135356044820152732932b1b2b4bb32b91034b6b83632b6b2b73a32b960611b6064820152608401610473565b6001600160e01b0319811663bc197c8160e01b146113d95760405162461bcd60e51b8152600401610473906122db565b6001600160a01b0381163b6115aa5760405162461bcd60e51b815260206004820152602d60248201527f455243313936373a206e657720696d706c656d656e746174696f6e206973206e60448201526c1bdd08184818dbdb9d1c9858dd609a1b6064820152608401610473565b60008051602061248a83398151915280546001600160a01b0319166001600160a01b0392909216919091179055565b6115e283611764565b6000825111806115ef5750805b15610ea95761071183836117a4565b6040805160018082528183019092526060916000919060208083019080368337019050509050828160008151811061163857611638612043565b602090810291909101015292915050565b6001600160a01b0384163b15610e665760405163f23a6e6160e01b81526001600160a01b0385169063f23a6e619061168d9089908990889088908890600401612323565b6020604051808303816000875af19250505080156116c8575060408051601f3d908101601f191682019092526116c59181019061221a565b60015b6116d45761146d612237565b6001600160e01b0319811663f23a6e6160e01b146113d95760405162461bcd60e51b8152600401610473906122db565b600054610100900460ff1661172b5760405162461bcd60e51b815260040161047390612171565b610a0c33610fe6565b600054610100900460ff1661175b5760405162461bcd60e51b815260040161047390612171565b6106af816117d0565b61176d8161153d565b6040516001600160a01b038216907fbc7cd75a20ee27fd9adebab32041f755214dbc6bffa90cc0225b39da2e5c2d3b90600090a250565b60606117c983836040518060600160405280602781526020016124aa602791396117dc565b9392505050565b606761090c82826123ae565b6060600080856001600160a01b0316856040516117f9919061246d565b600060405180830381855af49150503d8060008114611834576040519150601f19603f3d011682016040523d82523d6000602084013e611839565b606091505b509150915061184a86838387611854565b9695505050505050565b606083156118c35782516000036118bc576001600160a01b0385163b6118bc5760405162461bcd60e51b815260206004820152601d60248201527f416464726573733a2063616c6c20746f206e6f6e2d636f6e74726163740000006044820152606401610473565b50816118cd565b6118cd83836118d5565b949350505050565b81511561148c5781518083602001fd5b80356001600160a01b03811681146118fc57600080fd5b919050565b6000806040838503121561191457600080fd5b61191d836118e5565b946020939093013593505050565b6001600160e01b0319811681146106af57600080fd5b60006020828403121561195357600080fd5b81356117c98161192b565b60006020828403121561197057600080fd5b5035919050565b60005b8381101561199257818101518382015260200161197a565b50506000910152565b600081518084526119b3816020860160208601611977565b601f01601f19169290920160200192915050565b6020815260006117c9602083018461199b565b634e487b7160e01b600052604160045260246000fd5b601f8201601f191681016001600160401b0381118282101715611a1557611a156119da565b6040525050565b60006001600160401b03821115611a3557611a356119da565b5060051b60200190565b600082601f830112611a5057600080fd5b81356020611a5d82611a1c565b604051611a6a82826119f0565b83815260059390931b8501820192828101915086841115611a8a57600080fd5b8286015b84811015611aa55780358352918301918301611a8e565b509695505050505050565b60006001600160401b03831115611ac957611ac96119da565b604051611ae0601f8501601f1916602001826119f0565b809150838152848484011115611af557600080fd5b83836020830137600060208583010152509392505050565b600082601f830112611b1e57600080fd5b6117c983833560208501611ab0565b600080600080600060a08688031215611b4557600080fd5b611b4e866118e5565b9450611b5c602087016118e5565b935060408601356001600160401b0380821115611b7857600080fd5b611b8489838a01611a3f565b94506060880135915080821115611b9a57600080fd5b611ba689838a01611a3f565b93506080880135915080821115611bbc57600080fd5b50611bc988828901611b0d565b9150509295509295909350565b600060208284031215611be857600080fd5b6117c9826118e5565b60008060008060808587031215611c0757600080fd5b611c10856118e5565b935060208501356001600160401b0380821115611c2c57600080fd5b611c3888838901611a3f565b94506040870135915080821115611c4e57600080fd5b611c5a88838901611a3f565b93506060870135915080821115611c7057600080fd5b50611c7d87828801611b0d565b91505092959194509250565b60008060408385031215611c9c57600080fd5b82356001600160401b0380821115611cb357600080fd5b818501915085601f830112611cc757600080fd5b81356020611cd482611a1c565b604051611ce182826119f0565b83815260059390931b8501820192828101915089841115611d0157600080fd5b948201945b83861015611d2657611d17866118e5565b82529482019490820190611d06565b96505086013592505080821115611d3c57600080fd5b50611d4985828601611a3f565b9150509250929050565b600081518084526020808501945080840160005b83811015611d8357815187529582019590820190600101611d67565b509495945050505050565b6020815260006117c96020830184611d53565b60008060408385031215611db457600080fd5b611dbd836118e5565b915060208301356001600160401b03811115611dd857600080fd5b611d4985828601611b0d565b60008060408385031215611df757600080fd5b611e00836118e5565b915060208301358015158114611e1557600080fd5b809150509250929050565b60008060408385031215611e3357600080fd5b611e3c836118e5565b9150611e4a602084016118e5565b90509250929050565b600080600080600060a08688031215611e6b57600080fd5b611e74866118e5565b9450611e82602087016118e5565b9350604086013592506060860135915060808601356001600160401b03811115611eab57600080fd5b611bc988828901611b0d565b600060208284031215611ec957600080fd5b81356001600160401b03811115611edf57600080fd5b8201601f81018413611ef057600080fd5b6118cd84823560208401611ab0565b60008060008060008060c08789031215611f1857600080fd5b611f21876118e5565b95506020870135945060408701359350606087013592506080870135915060a08701356001600160401b03811115611f5857600080fd5b611f6489828a01611b0d565b9150509295509295509295565b600181811c90821680611f8557607f821691505b602082108103611fa557634e487b7160e01b600052602260045260246000fd5b50919050565b6020808252602c908201527f46756e6374696f6e206d7573742062652063616c6c6564207468726f7567682060408201526b19195b1959d85d1958d85b1b60a21b606082015260800190565b6020808252602c908201527f46756e6374696f6e206d7573742062652063616c6c6564207468726f7567682060408201526b6163746976652070726f787960a01b606082015260800190565b634e487b7160e01b600052603260045260246000fd5b634e487b7160e01b600052601160045260246000fd5b60006001820161208157612081612059565b5060010190565b60208082526025908201527f455243313135353a207472616e7366657220746f20746865207a65726f206164604082015264647265737360d81b606082015260800190565b6020808252602a908201527f455243313135353a20696e73756666696369656e742062616c616e636520666f60408201526939103a3930b739b332b960b11b606082015260800190565b808201808211156104a1576104a1612059565b60408152600061213d6040830185611d53565b828103602084015261214f8185611d53565b95945050505050565b60006020828403121561216a57600080fd5b5051919050565b6020808252602b908201527f496e697469616c697a61626c653a20636f6e7472616374206973206e6f74206960408201526a6e697469616c697a696e6760a81b606082015260800190565b6001600160a01b0386811682528516602082015260a0604082018190526000906121e890830186611d53565b82810360608401526121fa8186611d53565b9050828103608084015261220e818561199b565b98975050505050505050565b60006020828403121561222c57600080fd5b81516117c98161192b565b600060033d11156109c15760046000803e5060005160e01c90565b600060443d10156122605790565b6040516003193d81016004833e81513d6001600160401b03816024840111818411171561228f57505050505090565b82850191508151818111156122a75750505050505090565b843d87010160208285010111156122c15750505050505090565b6122d0602082860101876119f0565b509095945050505050565b60208082526028908201527f455243313135353a204552433131353552656365697665722072656a656374656040820152676420746f6b656e7360c01b606082015260800190565b6001600160a01b03868116825285166020820152604081018490526060810183905260a06080820181905260009061235d9083018461199b565b979650505050505050565b601f821115610ea957600081815260208120601f850160051c8101602086101561238f5750805b601f850160051c820191505b81811015610e665782815560010161239b565b81516001600160401b038111156123c7576123c76119da565b6123db816123d58454611f71565b84612368565b602080601f83116001811461241057600084156123f85750858301515b600019600386901b1c1916600185901b178555610e66565b600085815260208120601f198616915b8281101561243f57888601518255948401946001909101908401612420565b508582101561245d5787850151600019600388901b60f8161c191681555b5050505050600190811b01905550565b6000825161247f818460208701611977565b919091019291505056fe360894a13ba1a3210667c828492db98dca3e2076cc3735a920a3ca505d382bbc416464726573733a206c6f772d6c6576656c2064656c65676174652063616c6c206661696c6564a264697066735822122050b49ed0364be206a5f25d54f8f58bac88bcd26e589641d1941e83945a7bccb664736f6c63430008130033",
    "linkReferences": {}
  },
  "methodIdentifiers": {
    "balanceOf(address,uint256)": "00fdd58e",
    "balanceOfBatch(address[],uint256[])": "4e1273f4",
    "initialize(string)": "f62d1888",
    "isApprovedForAll(address,address)": "e985e9c5",
    "lock(address,uint256[],uint256[],bytes)": "4b1894fa",
    "mint(address,uint256,uint256,bytes32,bytes32,bytes)": "fdc7e434",
    "nameOf(uint256)": "051a2664",
    "owner()": "8da5cb5b",
    "proxiableUUID()": "52d1902d",
    "renounceOwnership()": "715018a6",
    "safeBatchTransferFrom(address,address,uint256[],uint256[],bytes)": "2eb2c2d6",
    "safeTransferFrom(address,address,uint256,uint256,bytes)": "f242432a",
    "setApprovalForAll(address,bool)": "a22cb465",
    "supportsInterface(bytes4)": "01ffc9a7",
    "symbolOf(uint256)": "75cfbe6c",
    "transferOwnership(address)": "f2fde38b",
    "unlock(address,uint256[],uint256[],bytes)": "672d78c3",
    "upgradeTo(address)": "3659cfe6",
    "upgradeToAndCall(address,bytes)": "4f1ef286",
    "uri(uint256)": "0e89341c"
  },
  "id": 59
}