{
  "abi": [
    {
      "inputs": [
        {
          "internalType": "address",
          "name": "_beacon",
          "type": "address"
        },
        {
          "internalType": "bytes",
          "name": "data",
          "type": "bytes"
        }
      ],
      "stateMutability": "nonpayable",
      "type": "constructor"
    },
    {
      "anonymous": false,
      "inputs": [
        {
          "indexed": false,
          "internalType": "address",
          "name": "previousAdmin",
          "type": "address"
        },
        {
          "indexed": false,
          "internalType": "address",
          "name": "newAdmin",
          "type": "address"
        }
      ],
      "name": "AdminChanged",
      "type": "event"
    },
    {
      "anonymous": false,
      "inputs": [
        {
          "indexed": true,
          "internalType": "address",
          "name": "beacon",
          "type": "address"
        }
      ],
      "name": "BeaconUpgraded",
      "type": "event"
    },
    {
      "anonymous": false,
      "inputs": [
        {
          "indexed": true,
          "internalType": "address",
          "name": "implementation",
          "type": "address"
        }
      ],
      "name": "Upgraded",
      "type": "event"
    },
    {
      "stateMutability": "payable",
      "type": "fallback"
    },
    {
      "inputs": [],
      "name": "getBeacon",
      "outputs": [
        {
          "internalType": "address",
          "name": "",
          "type": "address"
        }
      ],
      "stateMutability": "view",
      "type": "function"
    },
    {
      "inputs": [],
      "name": "getImplementation",
      "outputs": [
        {
          "internalType": "address",
          "name": "",
          "type": "address"
        }
      ],
      "stateMutability": "view",
      "type": "function"
    },
    {
      "stateMutability": "payable",
      "type": "receive"
    }
  ],
  "bytecode": {
    "object": "0x608060405234801561001057600080fd5b5060405161078e38038061078e83398101604081905261002f91610431565b818161003d82826000610046565b5050505061055b565b61004f83610107565b6040516001600160a01b038416907f1cf3b03a6cf19fa2baba4df148e9dcabedea7f8a5c07840e207e5c089be95d3e90600090a26000825111806100905750805b1561010257610100836001600160a01b0316635c60da1b6040518163ffffffff1660e01b8152600401602060405180830381865afa1580156100d6573d6000803e3d6000fd5b505050506040513d601f19601f820116820180604052508101906100fa91906104f1565b8361028b565b505b505050565b6001600160a01b0381163b6101715760405162461bcd60e51b815260206004820152602560248201527f455243313936373a206e657720626561636f6e206973206e6f74206120636f6e6044820152641d1c9858dd60da1b60648201526084015b60405180910390fd5b6101e5816001600160a01b0316635c60da1b6040518163ffffffff1660e01b8152600401602060405180830381865afa1580156101b2573d6000803e3d6000fd5b505050506040513d601f19601f820116820180604052508101906101d691906104f1565b6001600160a01b03163b151590565b61024a5760405162461bcd60e51b815260206004820152603060248201527f455243313936373a20626561636f6e20696d706c656d656e746174696f6e206960448201526f1cc81b9bdd08184818dbdb9d1c9858dd60821b6064820152608401610168565b7fa3f0ad74e5423aebfd80d3ef4346578335a9a72aeaee59ff6cb3582b35133d5080546001600160a01b0319166001600160a01b0392909216919091179055565b60606102b08383604051806060016040528060278152602001610767602791396102b7565b9392505050565b6060600080856001600160a01b0316856040516102d4919061050c565b600060405180830381855af49150503d806000811461030f576040519150601f19603f3d011682016040523d82523d6000602084013e610314565b606091505b50909250905061032686838387610330565b9695505050505050565b6060831561039f578251600003610398576001600160a01b0385163b6103985760405162461bcd60e51b815260206004820152601d60248201527f416464726573733a2063616c6c20746f206e6f6e2d636f6e74726163740000006044820152606401610168565b50816103a9565b6103a983836103b1565b949350505050565b8151156103c15781518083602001fd5b8060405162461bcd60e51b81526004016101689190610528565b80516001600160a01b03811681146103f257600080fd5b919050565b634e487b7160e01b600052604160045260246000fd5b60005b83811015610428578181015183820152602001610410565b50506000910152565b6000806040838503121561044457600080fd5b61044d836103db565b60208401519092506001600160401b038082111561046a57600080fd5b818501915085601f83011261047e57600080fd5b815181811115610490576104906103f7565b604051601f8201601f19908116603f011681019083821181831017156104b8576104b86103f7565b816040528281528860208487010111156104d157600080fd5b6104e283602083016020880161040d565b80955050505050509250929050565b60006020828403121561050357600080fd5b6102b0826103db565b6000825161051e81846020870161040d565b9190910192915050565b602081526000825180602084015261054781604085016020870161040d565b601f01601f19169190910160400192915050565b6101fd8061056a6000396000f3fe60806040526004361061002d5760003560e01c80632d6b3a6b14610044578063aaf10f42146100755761003c565b3661003c5761003a61008a565b005b61003a61008a565b34801561005057600080fd5b5061005961009c565b6040516001600160a01b03909116815260200160405180910390f35b34801561008157600080fd5b506100596100d9565b61009a6100956100df565b610173565b565b60006100d460006100d47fa3f0ad74e5423aebfd80d3ef4346578335a9a72aeaee59ff6cb3582b35133d50546001600160a01b031690565b905090565b60006100d45b60006101127fa3f0ad74e5423aebfd80d3ef4346578335a9a72aeaee59ff6cb3582b35133d50546001600160a01b031690565b6001600160a01b0316635c60da1b6040518163ffffffff1660e01b8152600401602060405180830381865afa15801561014f573d6000803e3d6000fd5b505050506040513d601f19601f820116820180604052508101906100d49190610197565b3660008037600080366000845af43d6000803e808015610192573d6000f35b3d6000fd5b6000602082840312156101a957600080fd5b81516001600160a01b03811681146101c057600080fd5b939250505056fea26469706673582212207c9feeb363807213a43b4db5947b15447317141f40ffbd26ae02e15c84002c8764736f6c63430008130033416464726573733a206c6f772d6c6576656c2064656c65676174652063616c6c206661696c6564",
    "linkReferences": {}
  },
  "methodIdentifiers": {
    "getBeacon()": "2d6b3a6b",
    "getImplementation()": "aaf10f42"
  },
  "id": 42
}