{
  "abi": [
    {
      "inputs": [
        {
          "internalType": "uint256",
          "name": "contentId",
          "type": "uint256"
        },
        {
          "internalType": "uint256",
          "name": "currentAmount",
          "type": "uint256"
        },
        {
          "internalType": "uint256",
          "name": "reduceAmount",
          "type": "uint256"
        }
      ],
      "name": "AssetController__AmountGreaterThanStoredAmount",
      "type": "error"
    },
    {
      "inputs": [
        {
          "internalType": "uint256",
          "name": "assetIdsLength",
          "type": "uint256"
        },
        {
          "internalType": "uint256",
          "name": "amountsLength",
          "type": "uint256"
        }
      ],
      "name": "AssetController__ContentIdsAmountsMismatch",
      "type": "error"
    },
    {
      "inputs": [],
      "name": "AssetController__ExceedsMaxAllowedContentIdPerTransaction",
      "type": "error"
    },
    {
      "inputs": [],
      "name": "AssetController__InputContentIdsExceedsStoredContentCount",
      "type": "error"
    },
    {
      "inputs": [
        {
          "internalType": "uint256",
          "name": "contentId",
          "type": "uint256"
        }
      ],
      "name": "AssetController__NotAssetContent",
      "type": "error"
    },
    {
      "inputs": [
        {
          "internalType": "uint256",
          "name": "assetId",
          "type": "uint256"
        }
      ],
      "name": "AssetController__UnknownAsset",
      "type": "error"
    },
    {
      "inputs": [],
      "name": "AssetController__ZeroByes32",
      "type": "error"
    },
    {
      "inputs": [
        {
          "internalType": "uint256",
          "name": "contentId",
          "type": "uint256"
        }
      ],
      "name": "AssetController__ZeroContentAmount",
      "type": "error"
    },
    {
      "anonymous": false,
      "inputs": [
        {
          "indexed": true,
          "internalType": "address",
          "name": "sender",
          "type": "address"
        },
        {
          "indexed": true,
          "internalType": "uint256",
          "name": "assetId",
          "type": "uint256"
        },
        {
          "indexed": false,
          "internalType": "uint256[]",
          "name": "contentIds",
          "type": "uint256[]"
        },
        {
          "indexed": false,
          "internalType": "uint256[]",
          "name": "amounts",
          "type": "uint256[]"
        }
      ],
      "name": "Consume",
      "type": "event"
    },
    {
      "anonymous": false,
      "inputs": [
        {
          "indexed": false,
          "internalType": "uint8",
          "name": "version",
          "type": "uint8"
        }
      ],
      "name": "Initialized",
      "type": "event"
    },
    {
      "anonymous": false,
      "inputs": [
        {
          "indexed": true,
          "internalType": "address",
          "name": "previousOwner",
          "type": "address"
        },
        {
          "indexed": true,
          "internalType": "address",
          "name": "newOwner",
          "type": "address"
        }
      ],
      "name": "OwnershipTransferred",
      "type": "event"
    },
    {
      "inputs": [],
      "name": "assets",
      "outputs": [
        {
          "internalType": "address",
          "name": "",
          "type": "address"
        }
      ],
      "stateMutability": "view",
      "type": "function"
    },
    {
      "inputs": [],
      "name": "maxContentPerTransaction",
      "outputs": [
        {
          "internalType": "uint256",
          "name": "",
          "type": "uint256"
        }
      ],
      "stateMutability": "view",
      "type": "function"
    },
    {
      "inputs": [],
      "name": "owner",
      "outputs": [
        {
          "internalType": "address",
          "name": "",
          "type": "address"
        }
      ],
      "stateMutability": "view",
      "type": "function"
    },
    {
      "inputs": [],
      "name": "renounceOwnership",
      "outputs": [],
      "stateMutability": "nonpayable",
      "type": "function"
    },
    {
      "inputs": [
        {
          "internalType": "uint256",
          "name": "assetId",
          "type": "uint256"
        },
        {
          "internalType": "bytes32",
          "name": "_externalContentRef",
          "type": "bytes32"
        }
      ],
      "name": "setAssetExternalContentRef",
      "outputs": [],
      "stateMutability": "nonpayable",
      "type": "function"
    },
    {
      "inputs": [
        {
          "internalType": "uint256",
          "name": "_value",
          "type": "uint256"
        }
      ],
      "name": "setMaxContentPerTransaction",
      "outputs": [],
      "stateMutability": "nonpayable",
      "type": "function"
    },
    {
      "inputs": [
        {
          "internalType": "address",
          "name": "newOwner",
          "type": "address"
        }
      ],
      "name": "transferOwnership",
      "outputs": [],
      "stateMutability": "nonpayable",
      "type": "function"
    }
  ],
  "bytecode": {
    "object": "0x608060405234801561001057600080fd5b50610371806100206000396000f3fe608060405234801561001057600080fd5b506004361061007d5760003560e01c806371a973051161005b57806371a97305146100b25780638da5cb5b146100dc578063e209f30a146100ed578063f2fde38b146100fe57600080fd5b80632e1e8d8114610082578063715018a614610097578063719d98af1461009f575b600080fd5b6100956100903660046102d0565b610111565b005b61009561018a565b6100956100ad3660046102f2565b61019e565b6066546001600160a01b03165b6040516001600160a01b0390911681526020015b60405180910390f35b6033546001600160a01b03166100bf565b6065546040519081526020016100d3565b61009561010c36600461030b565b6101ab565b610119610224565b6000828152606760205260408120546001600160a01b03161515900361015a57604051633e0f67c760e21b8152600481018390526024015b60405180910390fd5b806101785760405163310a283b60e21b815260040160405180910390fd5b6000918252606c602052604090912055565b610192610224565b61019c600061027e565b565b6101a6610224565b606555565b6101b3610224565b6001600160a01b0381166102185760405162461bcd60e51b815260206004820152602660248201527f4f776e61626c653a206e6577206f776e657220697320746865207a65726f206160448201526564647265737360d01b6064820152608401610151565b6102218161027e565b50565b6033546001600160a01b0316331461019c5760405162461bcd60e51b815260206004820181905260248201527f4f776e61626c653a2063616c6c6572206973206e6f7420746865206f776e65726044820152606401610151565b603380546001600160a01b038381166001600160a01b0319831681179093556040519116919082907f8be0079c531659141344cd1fd0a4f28419497f9722a3daafe3b4186f6b6457e090600090a35050565b600080604083850312156102e357600080fd5b50508035926020909101359150565b60006020828403121561030457600080fd5b5035919050565b60006020828403121561031d57600080fd5b81356001600160a01b038116811461033457600080fd5b939250505056fea26469706673582212208dc32ece0cacafb801a3830c1946775cec6c5be5c262138ed2847204fc7f579964736f6c63430008130033",
    "linkReferences": {}
  },
  "methodIdentifiers": {
    "assets()": "71a97305",
    "maxContentPerTransaction()": "e209f30a",
    "owner()": "8da5cb5b",
    "renounceOwnership()": "715018a6",
    "setAssetExternalContentRef(uint256,bytes32)": "2e1e8d81",
    "setMaxContentPerTransaction(uint256)": "719d98af",
    "transferOwnership(address)": "f2fde38b"
  },
  "id": 46
}